{
  "contractName": "Roles",
  "abi": [
    {
      "inputs": [
        {
          "internalType": "address",
          "name": "_address",
          "type": "address"
        }
      ],
      "stateMutability": "nonpayable",
      "type": "constructor"
    },
    {
      "anonymous": false,
      "inputs": [
        {
          "indexed": true,
          "internalType": "address",
          "name": "previousOwner",
          "type": "address"
        },
        {
          "indexed": true,
          "internalType": "address",
          "name": "newOwner",
          "type": "address"
        }
      ],
      "name": "OwnershipTransferred",
      "type": "event"
    },
    {
      "anonymous": false,
      "inputs": [
        {
          "indexed": true,
          "internalType": "bytes32",
          "name": "role",
          "type": "bytes32"
        },
        {
          "indexed": true,
          "internalType": "bytes32",
          "name": "previousAdminRole",
          "type": "bytes32"
        },
        {
          "indexed": true,
          "internalType": "bytes32",
          "name": "newAdminRole",
          "type": "bytes32"
        }
      ],
      "name": "RoleAdminChanged",
      "type": "event"
    },
    {
      "anonymous": false,
      "inputs": [
        {
          "indexed": true,
          "internalType": "bytes32",
          "name": "role",
          "type": "bytes32"
        },
        {
          "indexed": true,
          "internalType": "address",
          "name": "account",
          "type": "address"
        },
        {
          "indexed": true,
          "internalType": "address",
          "name": "sender",
          "type": "address"
        }
      ],
      "name": "RoleGranted",
      "type": "event"
    },
    {
      "anonymous": false,
      "inputs": [
        {
          "indexed": true,
          "internalType": "bytes32",
          "name": "role",
          "type": "bytes32"
        },
        {
          "indexed": true,
          "internalType": "address",
          "name": "account",
          "type": "address"
        },
        {
          "indexed": true,
          "internalType": "address",
          "name": "sender",
          "type": "address"
        }
      ],
      "name": "RoleRevoked",
      "type": "event"
    },
    {
      "inputs": [],
      "name": "DEFAULT_ADMIN_ROLE",
      "outputs": [
        {
          "internalType": "bytes32",
          "name": "",
          "type": "bytes32"
        }
      ],
      "stateMutability": "view",
      "type": "function"
    },
    {
      "inputs": [],
      "name": "FREEZER_ROLE",
      "outputs": [
        {
          "internalType": "bytes32",
          "name": "",
          "type": "bytes32"
        }
      ],
      "stateMutability": "view",
      "type": "function"
    },
    {
      "inputs": [],
      "name": "LIMITER_ROLE",
      "outputs": [
        {
          "internalType": "bytes32",
          "name": "",
          "type": "bytes32"
        }
      ],
      "stateMutability": "view",
      "type": "function"
    },
    {
      "inputs": [],
      "name": "TRANSPORTER_ROLE",
      "outputs": [
        {
          "internalType": "bytes32",
          "name": "",
          "type": "bytes32"
        }
      ],
      "stateMutability": "view",
      "type": "function"
    },
    {
      "inputs": [],
      "name": "VOTER_ROLE",
      "outputs": [
        {
          "internalType": "bytes32",
          "name": "",
          "type": "bytes32"
        }
      ],
      "stateMutability": "view",
      "type": "function"
    },
    {
      "inputs": [],
      "name": "WHITELISTER_ROLE",
      "outputs": [
        {
          "internalType": "bytes32",
          "name": "",
          "type": "bytes32"
        }
      ],
      "stateMutability": "view",
      "type": "function"
    },
    {
      "inputs": [
        {
          "internalType": "bytes32",
          "name": "role",
          "type": "bytes32"
        }
      ],
      "name": "getRoleAdmin",
      "outputs": [
        {
          "internalType": "bytes32",
          "name": "",
          "type": "bytes32"
        }
      ],
      "stateMutability": "view",
      "type": "function"
    },
    {
      "inputs": [
        {
          "internalType": "bytes32",
          "name": "role",
          "type": "bytes32"
        },
        {
          "internalType": "uint256",
          "name": "index",
          "type": "uint256"
        }
      ],
      "name": "getRoleMember",
      "outputs": [
        {
          "internalType": "address",
          "name": "",
          "type": "address"
        }
      ],
      "stateMutability": "view",
      "type": "function"
    },
    {
      "inputs": [
        {
          "internalType": "bytes32",
          "name": "role",
          "type": "bytes32"
        }
      ],
      "name": "getRoleMemberCount",
      "outputs": [
        {
          "internalType": "uint256",
          "name": "",
          "type": "uint256"
        }
      ],
      "stateMutability": "view",
      "type": "function"
    },
    {
      "inputs": [
        {
          "internalType": "bytes32",
          "name": "role",
          "type": "bytes32"
        },
        {
          "internalType": "address",
          "name": "account",
          "type": "address"
        }
      ],
      "name": "grantRole",
      "outputs": [],
      "stateMutability": "nonpayable",
      "type": "function"
    },
    {
      "inputs": [
        {
          "internalType": "bytes32",
          "name": "role",
          "type": "bytes32"
        },
        {
          "internalType": "address",
          "name": "account",
          "type": "address"
        }
      ],
      "name": "hasRole",
      "outputs": [
        {
          "internalType": "bool",
          "name": "",
          "type": "bool"
        }
      ],
      "stateMutability": "view",
      "type": "function"
    },
    {
      "inputs": [],
      "name": "owner",
      "outputs": [
        {
          "internalType": "address",
          "name": "",
          "type": "address"
        }
      ],
      "stateMutability": "view",
      "type": "function"
    },
    {
      "inputs": [],
      "name": "renounceOwnership",
      "outputs": [],
      "stateMutability": "nonpayable",
      "type": "function"
    },
    {
      "inputs": [
        {
          "internalType": "bytes32",
          "name": "role",
          "type": "bytes32"
        },
        {
          "internalType": "address",
          "name": "account",
          "type": "address"
        }
      ],
      "name": "renounceRole",
      "outputs": [],
      "stateMutability": "nonpayable",
      "type": "function"
    },
    {
      "inputs": [
        {
          "internalType": "bytes32",
          "name": "role",
          "type": "bytes32"
        },
        {
          "internalType": "address",
          "name": "account",
          "type": "address"
        }
      ],
      "name": "revokeRole",
      "outputs": [],
      "stateMutability": "nonpayable",
      "type": "function"
    },
    {
      "inputs": [
        {
          "internalType": "address",
          "name": "newOwner",
          "type": "address"
        }
      ],
      "name": "transferOwnership",
      "outputs": [],
      "stateMutability": "nonpayable",
      "type": "function"
    },
    {
      "inputs": [
        {
          "internalType": "address",
          "name": "_address",
          "type": "address"
        }
      ],
      "name": "addSuperAdmin",
      "outputs": [],
      "stateMutability": "nonpayable",
      "type": "function"
    },
    {
      "inputs": [
        {
          "internalType": "address",
          "name": "_address",
          "type": "address"
        }
      ],
      "name": "addWhitelister",
      "outputs": [],
      "stateMutability": "nonpayable",
      "type": "function"
    },
    {
      "inputs": [
        {
          "internalType": "address",
          "name": "_address",
          "type": "address"
        }
      ],
      "name": "addFreezer",
      "outputs": [],
      "stateMutability": "nonpayable",
      "type": "function"
    },
    {
      "inputs": [
        {
          "internalType": "address",
          "name": "_address",
          "type": "address"
        }
      ],
      "name": "addTransporter",
      "outputs": [],
      "stateMutability": "nonpayable",
      "type": "function"
    },
    {
      "inputs": [
        {
          "internalType": "address",
          "name": "_address",
          "type": "address"
        }
      ],
      "name": "addVoter",
      "outputs": [],
      "stateMutability": "nonpayable",
      "type": "function"
    },
    {
      "inputs": [
        {
          "internalType": "address",
          "name": "_address",
          "type": "address"
        }
      ],
      "name": "addLimiter",
      "outputs": [],
      "stateMutability": "nonpayable",
      "type": "function"
    },
    {
      "inputs": [],
      "name": "renounceSuperAdmin",
      "outputs": [],
      "stateMutability": "nonpayable",
      "type": "function"
    },
    {
      "inputs": [
        {
          "internalType": "address",
          "name": "_address",
          "type": "address"
        }
      ],
      "name": "removeWhitelister",
      "outputs": [],
      "stateMutability": "nonpayable",
      "type": "function"
    },
    {
      "inputs": [
        {
          "internalType": "address",
          "name": "_address",
          "type": "address"
        }
      ],
      "name": "removeFreezer",
      "outputs": [],
      "stateMutability": "nonpayable",
      "type": "function"
    },
    {
      "inputs": [
        {
          "internalType": "address",
          "name": "_address",
          "type": "address"
        }
      ],
      "name": "removeTransporter",
      "outputs": [],
      "stateMutability": "nonpayable",
      "type": "function"
    },
    {
      "inputs": [
        {
          "internalType": "address",
          "name": "_address",
          "type": "address"
        }
      ],
      "name": "removeVoter",
      "outputs": [],
      "stateMutability": "nonpayable",
      "type": "function"
    },
    {
      "inputs": [
        {
          "internalType": "address",
          "name": "_address",
          "type": "address"
        }
      ],
      "name": "removeLimiter",
      "outputs": [],
      "stateMutability": "nonpayable",
      "type": "function"
    },
    {
      "inputs": [
        {
          "internalType": "address",
          "name": "_address",
          "type": "address"
        }
      ],
      "name": "isSuperAdmin",
      "outputs": [
        {
          "internalType": "bool",
          "name": "",
          "type": "bool"
        }
      ],
      "stateMutability": "view",
      "type": "function"
    },
    {
      "inputs": [
        {
          "internalType": "address",
          "name": "_address",
          "type": "address"
        }
      ],
      "name": "isWhitelister",
      "outputs": [
        {
          "internalType": "bool",
          "name": "",
          "type": "bool"
        }
      ],
      "stateMutability": "view",
      "type": "function"
    },
    {
      "inputs": [
        {
          "internalType": "address",
          "name": "_address",
          "type": "address"
        }
      ],
      "name": "isFreezer",
      "outputs": [
        {
          "internalType": "bool",
          "name": "",
          "type": "bool"
        }
      ],
      "stateMutability": "view",
      "type": "function"
    },
    {
      "inputs": [
        {
          "internalType": "address",
          "name": "_address",
          "type": "address"
        }
      ],
      "name": "isTransporter",
      "outputs": [
        {
          "internalType": "bool",
          "name": "",
          "type": "bool"
        }
      ],
      "stateMutability": "view",
      "type": "function"
    },
    {
      "inputs": [
        {
          "internalType": "address",
          "name": "_address",
          "type": "address"
        }
      ],
      "name": "isVoter",
      "outputs": [
        {
          "internalType": "bool",
          "name": "",
          "type": "bool"
        }
      ],
      "stateMutability": "view",
      "type": "function"
    },
    {
      "inputs": [
        {
          "internalType": "address",
          "name": "_address",
          "type": "address"
        }
      ],
      "name": "isLimiter",
      "outputs": [
        {
          "internalType": "bool",
          "name": "",
          "type": "bool"
        }
      ],
      "stateMutability": "view",
      "type": "function"
    }
  ],
  "bytecode": "0x60806040523480156200001157600080fd5b506040516200232a3803806200232a833981810160405260208110156200003757600080fd5b810190808051906020019092919050505060006200005a6200021d60201b60201c565b9050806000806101000a81548173ffffffffffffffffffffffffffffffffffffffff021916908373ffffffffffffffffffffffffffffffffffffffff1602179055508073ffffffffffffffffffffffffffffffffffffffff16600073ffffffffffffffffffffffffffffffffffffffff167f8be0079c531659141344cd1fd0a4f28419497f9722a3daafe3b4186f6b6457e060405160405180910390a3506200010d6000801b826200022560201b60201c565b620001427f8619cecd8b9e095ab43867f5b69d492180450fe862e6b50bfbfb24b75dd84c8a6000801b6200023b60201b60201c565b620001777f92de27771f92d6942691d73358b3a4673e4880de8356f8f2cf452be87e02d3636000801b6200023b60201b60201c565b620001ac7fddaa901e2fe3bda354fe0ede2785152d5c109282a613fe024a056a3e66c41bb36000801b6200023b60201b60201c565b620001e17f72c3eec1760bf69946625c2d4fb8e44e2c806345041960b434674fb9ab3976cf6000801b6200023b60201b60201c565b620002167ff7b34cf87af24ce01c1aff9f518b133989851466d994e0016fc14651fa02826c6000801b6200023b60201b60201c565b5062000418565b600033905090565b6200023782826200029f60201b60201c565b5050565b806001600084815260200190815260200160002060020154837fbd79b86ffe0ab8e8776151514217cd7cacd52c909f66475c3af44e129f0b00ff60405160405180910390a48060016000848152602001908152602001600020600201819055505050565b620002ce81600160008581526020019081526020016000206000016200034360201b620019dc1790919060201c565b156200033f57620002e46200021d60201b60201c565b73ffffffffffffffffffffffffffffffffffffffff168173ffffffffffffffffffffffffffffffffffffffff16837f2f8788117e7eff1d82e926ec794901d17c78024a50270940304540a733656f0d60405160405180910390a45b5050565b600062000373836000018373ffffffffffffffffffffffffffffffffffffffff1660001b6200037b60201b60201c565b905092915050565b60006200038f8383620003f560201b60201c565b620003ea578260000182908060018154018082558091505060019003906000526020600020016000909190919091505582600001805490508360010160008481526020019081526020016000208190555060019050620003ef565b600090505b92915050565b600080836001016000848152602001908152602001600020541415905092915050565b611f0280620004286000396000f3fe608060405234801561001057600080fd5b50600436106102065760003560e01c806386c1ff681161011a578063b3292ff0116100ad578063d547741f1161007c578063d547741f14610913578063df7f453b14610961578063eaf9144a146109bb578063f2fde38b146109ff578063f4ab9adf14610a4357610206565b8063b3292ff01461082b578063b3de42141461086f578063b70220491461088d578063ca15c873146108d157610206565b8063a217fddf116100e9578063a217fddf14610751578063a2e92b671461076f578063a7771ee3146107b3578063a94015c81461080d57610206565b806386c1ff68146106135780638da5cb5b146106575780639010d07c1461068b57806391d14854146106ed57610206565b80633dd489061161019d578063570618e11161016c578063570618e1146104f35780636c65fd6a14610511578063715018a61461056b5780637d0c269f1461057557806382c3f79c146105cf57610206565b80633dd4890614610443578063416edaa0146104875780634eabbe7714610491578063526606c9146104af57610206565b80632f2ff15d116101d95780632f2ff15d1461030957806330129e6014610357578063349701791461039b57806336568abe146103f557610206565b806306a85f0f1461020b578063248a9ca3146102295780632acd20001461026b5780632b8109d5146102af575b600080fd5b610213610a87565b6040518082815260200191505060405180910390f35b6102556004803603602081101561023f57600080fd5b8101908080359060200190929190505050610aab565b6040518082815260200191505060405180910390f35b6102ad6004803603602081101561028157600080fd5b81019080803573ffffffffffffffffffffffffffffffffffffffff169060200190929190505050610acb565b005b6102f1600480360360208110156102c557600080fd5b81019080803573ffffffffffffffffffffffffffffffffffffffff169060200190929190505050610b73565b60405180821515815260200191505060405180910390f35b6103556004803603604081101561031f57600080fd5b8101908080359060200190929190803573ffffffffffffffffffffffffffffffffffffffff169060200190929190505050610ba6565b005b6103996004803603602081101561036d57600080fd5b81019080803573ffffffffffffffffffffffffffffffffffffffff169060200190929190505050610c30565b005b6103dd600480360360208110156103b157600080fd5b81019080803573ffffffffffffffffffffffffffffffffffffffff169060200190929190505050610cd8565b60405180821515815260200191505060405180910390f35b6104416004803603604081101561040b57600080fd5b8101908080359060200190929190803573ffffffffffffffffffffffffffffffffffffffff169060200190929190505050610d0b565b005b6104856004803603602081101561045957600080fd5b81019080803573ffffffffffffffffffffffffffffffffffffffff169060200190929190505050610da4565b005b61048f610e4c565b005b610499610ed6565b6040518082815260200191505060405180910390f35b6104f1600480360360208110156104c557600080fd5b81019080803573ffffffffffffffffffffffffffffffffffffffff169060200190929190505050610efa565b005b6104fb610fa2565b6040518082815260200191505060405180910390f35b6105536004803603602081101561052757600080fd5b81019080803573ffffffffffffffffffffffffffffffffffffffff169060200190929190505050610fc6565b60405180821515815260200191505060405180910390f35b610573610ff9565b005b6105b76004803603602081101561058b57600080fd5b81019080803573ffffffffffffffffffffffffffffffffffffffff169060200190929190505050611166565b60405180821515815260200191505060405180910390f35b610611600480360360208110156105e557600080fd5b81019080803573ffffffffffffffffffffffffffffffffffffffff169060200190929190505050611199565b005b6106556004803603602081101561062957600080fd5b81019080803573ffffffffffffffffffffffffffffffffffffffff169060200190929190505050611241565b005b61065f6112e9565b604051808273ffffffffffffffffffffffffffffffffffffffff16815260200191505060405180910390f35b6106c1600480360360408110156106a157600080fd5b810190808035906020019092919080359060200190929190505050611312565b604051808273ffffffffffffffffffffffffffffffffffffffff16815260200191505060405180910390f35b6107396004803603604081101561070357600080fd5b8101908080359060200190929190803573ffffffffffffffffffffffffffffffffffffffff169060200190929190505050611344565b60405180821515815260200191505060405180910390f35b610759611376565b6040518082815260200191505060405180910390f35b6107b16004803603602081101561078557600080fd5b81019080803573ffffffffffffffffffffffffffffffffffffffff16906020019092919050505061137d565b005b6107f5600480360360208110156107c957600080fd5b81019080803573ffffffffffffffffffffffffffffffffffffffff169060200190929190505050611425565b60405180821515815260200191505060405180910390f35b610815611458565b6040518082815260200191505060405180910390f35b61086d6004803603602081101561084157600080fd5b81019080803573ffffffffffffffffffffffffffffffffffffffff16906020019092919050505061147c565b005b610877611507565b6040518082815260200191505060405180910390f35b6108cf600480360360208110156108a357600080fd5b81019080803573ffffffffffffffffffffffffffffffffffffffff16906020019092919050505061152b565b005b6108fd600480360360208110156108e757600080fd5b81019080803590602001909291905050506115d3565b6040518082815260200191505060405180910390f35b61095f6004803603604081101561092957600080fd5b8101908080359060200190929190803573ffffffffffffffffffffffffffffffffffffffff1690602001909291905050506115fa565b005b6109a36004803603602081101561097757600080fd5b81019080803573ffffffffffffffffffffffffffffffffffffffff169060200190929190505050611684565b60405180821515815260200191505060405180910390f35b6109fd600480360360208110156109d157600080fd5b81019080803573ffffffffffffffffffffffffffffffffffffffff16906020019092919050505061169a565b005b610a4160048036036020811015610a1557600080fd5b81019080803573ffffffffffffffffffffffffffffffffffffffff169060200190929190505050611742565b005b610a8560048036036020811015610a5957600080fd5b81019080803573ffffffffffffffffffffffffffffffffffffffff169060200190929190505050611934565b005b7f92de27771f92d6942691d73358b3a4673e4880de8356f8f2cf452be87e02d36381565b600060016000838152602001908152602001600020600201549050919050565b610ad433611684565b610b46576040517f08c379a000000000000000000000000000000000000000000000000000000000815260040180806020018281038252601b8152602001807f5265737472696374656420746f2073757065722061646d696e732e000000000081525060200191505060405180910390fd5b610b70817f92de27771f92d6942691d73358b3a4673e4880de8356f8f2cf452be87e02d363611a0c565b50565b6000610b9f7fddaa901e2fe3bda354fe0ede2785152d5c109282a613fe024a056a3e66c41bb383611344565b9050919050565b610bcd6001600084815260200190815260200160002060020154610bc8611a1a565b611344565b610c22576040517f08c379a000000000000000000000000000000000000000000000000000000000815260040180806020018281038252602f815260200180611e19602f913960400191505060405180910390fd5b610c2c8282611a22565b5050565b610c3933611684565b610cab576040517f08c379a000000000000000000000000000000000000000000000000000000000815260040180806020018281038252601b8152602001807f5265737472696374656420746f2073757065722061646d696e732e000000000081525060200191505060405180910390fd5b610cd5817ff7b34cf87af24ce01c1aff9f518b133989851466d994e0016fc14651fa02826c611a0c565b50565b6000610d047ff7b34cf87af24ce01c1aff9f518b133989851466d994e0016fc14651fa02826c83611344565b9050919050565b610d13611a1a565b73ffffffffffffffffffffffffffffffffffffffff168173ffffffffffffffffffffffffffffffffffffffff1614610d96576040517f08c379a000000000000000000000000000000000000000000000000000000000815260040180806020018281038252602f815260200180611e9e602f913960400191505060405180910390fd5b610da08282611ab6565b5050565b610dad33611684565b610e1f576040517f08c379a000000000000000000000000000000000000000000000000000000000815260040180806020018281038252601b8152602001807f5265737472696374656420746f2073757065722061646d696e732e000000000081525060200191505060405180910390fd5b610e49817fddaa901e2fe3bda354fe0ede2785152d5c109282a613fe024a056a3e66c41bb3611a0c565b50565b610e5533611684565b610ec7576040517f08c379a000000000000000000000000000000000000000000000000000000000815260040180806020018281038252601b8152602001807f5265737472696374656420746f2073757065722061646d696e732e000000000081525060200191505060405180910390fd5b610ed46000801b33610d0b565b565b7fddaa901e2fe3bda354fe0ede2785152d5c109282a613fe024a056a3e66c41bb381565b610f0333611684565b610f75576040517f08c379a000000000000000000000000000000000000000000000000000000000815260040180806020018281038252601b8152602001807f5265737472696374656420746f2073757065722061646d696e732e000000000081525060200191505060405180910390fd5b610f9f817f92de27771f92d6942691d73358b3a4673e4880de8356f8f2cf452be87e02d363611b4a565b50565b7f8619cecd8b9e095ab43867f5b69d492180450fe862e6b50bfbfb24b75dd84c8a81565b6000610ff27f92de27771f92d6942691d73358b3a4673e4880de8356f8f2cf452be87e02d36383611344565b9050919050565b611001611a1a565b73ffffffffffffffffffffffffffffffffffffffff1661101f6112e9565b73ffffffffffffffffffffffffffffffffffffffff16146110a8576040517f08c379a00000000000000000000000000000000000000000000000000000000081526004018080602001828103825260208152602001807f4f776e61626c653a2063616c6c6572206973206e6f7420746865206f776e657281525060200191505060405180910390fd5b600073ffffffffffffffffffffffffffffffffffffffff1660008054906101000a900473ffffffffffffffffffffffffffffffffffffffff1673ffffffffffffffffffffffffffffffffffffffff167f8be0079c531659141344cd1fd0a4f28419497f9722a3daafe3b4186f6b6457e060405160405180910390a360008060006101000a81548173ffffffffffffffffffffffffffffffffffffffff021916908373ffffffffffffffffffffffffffffffffffffffff160217905550565b60006111927f8619cecd8b9e095ab43867f5b69d492180450fe862e6b50bfbfb24b75dd84c8a83611344565b9050919050565b6111a233611684565b611214576040517f08c379a000000000000000000000000000000000000000000000000000000000815260040180806020018281038252601b8152602001807f5265737472696374656420746f2073757065722061646d696e732e000000000081525060200191505060405180910390fd5b61123e817f8619cecd8b9e095ab43867f5b69d492180450fe862e6b50bfbfb24b75dd84c8a611a0c565b50565b61124a33611684565b6112bc576040517f08c379a000000000000000000000000000000000000000000000000000000000815260040180806020018281038252601b8152602001807f5265737472696374656420746f2073757065722061646d696e732e000000000081525060200191505060405180910390fd5b6112e6817f72c3eec1760bf69946625c2d4fb8e44e2c806345041960b434674fb9ab3976cf611a0c565b50565b60008060009054906101000a900473ffffffffffffffffffffffffffffffffffffffff16905090565b600061133c8260016000868152602001908152602001600020600001611b5890919063ffffffff16565b905092915050565b600061136e8260016000868152602001908152602001600020600001611b7290919063ffffffff16565b905092915050565b6000801b81565b61138633611684565b6113f8576040517f08c379a000000000000000000000000000000000000000000000000000000000815260040180806020018281038252601b8152602001807f5265737472696374656420746f2073757065722061646d696e732e000000000081525060200191505060405180910390fd5b611422817ff7b34cf87af24ce01c1aff9f518b133989851466d994e0016fc14651fa02826c611b4a565b50565b60006114517f72c3eec1760bf69946625c2d4fb8e44e2c806345041960b434674fb9ab3976cf83611344565b9050919050565b7f72c3eec1760bf69946625c2d4fb8e44e2c806345041960b434674fb9ab3976cf81565b61148533611684565b6114f7576040517f08c379a000000000000000000000000000000000000000000000000000000000815260040180806020018281038252601b8152602001807f5265737472696374656420746f2073757065722061646d696e732e000000000081525060200191505060405180910390fd5b611504816000801b611b4a565b50565b7ff7b34cf87af24ce01c1aff9f518b133989851466d994e0016fc14651fa02826c81565b61153433611684565b6115a6576040517f08c379a000000000000000000000000000000000000000000000000000000000815260040180806020018281038252601b8152602001807f5265737472696374656420746f2073757065722061646d696e732e000000000081525060200191505060405180910390fd5b6115d0817fddaa901e2fe3bda354fe0ede2785152d5c109282a613fe024a056a3e66c41bb3611b4a565b50565b60006115f360016000848152602001908152602001600020600001611ba2565b9050919050565b611621600160008481526020019081526020016000206002015461161c611a1a565b611344565b611676576040517f08c379a0000000000000000000000000000000000000000000000000000000008152600401808060200182810382526030815260200180611e6e6030913960400191505060405180910390fd5b6116808282611ab6565b5050565b60006116936000801b83611344565b9050919050565b6116a333611684565b611715576040517f08c379a000000000000000000000000000000000000000000000000000000000815260040180806020018281038252601b8152602001807f5265737472696374656420746f2073757065722061646d696e732e000000000081525060200191505060405180910390fd5b61173f817f8619cecd8b9e095ab43867f5b69d492180450fe862e6b50bfbfb24b75dd84c8a611b4a565b50565b61174a611a1a565b73ffffffffffffffffffffffffffffffffffffffff166117686112e9565b73ffffffffffffffffffffffffffffffffffffffff16146117f1576040517f08c379a00000000000000000000000000000000000000000000000000000000081526004018080602001828103825260208152602001807f4f776e61626c653a2063616c6c6572206973206e6f7420746865206f776e657281525060200191505060405180910390fd5b600073ffffffffffffffffffffffffffffffffffffffff168173ffffffffffffffffffffffffffffffffffffffff161415611877576040517f08c379a0000000000000000000000000000000000000000000000000000000008152600401808060200182810382526026815260200180611e486026913960400191505060405180910390fd5b8073ffffffffffffffffffffffffffffffffffffffff1660008054906101000a900473ffffffffffffffffffffffffffffffffffffffff1673ffffffffffffffffffffffffffffffffffffffff167f8be0079c531659141344cd1fd0a4f28419497f9722a3daafe3b4186f6b6457e060405160405180910390a3806000806101000a81548173ffffffffffffffffffffffffffffffffffffffff021916908373ffffffffffffffffffffffffffffffffffffffff16021790555050565b61193d33611684565b6119af576040517f08c379a000000000000000000000000000000000000000000000000000000000815260040180806020018281038252601b8152602001807f5265737472696374656420746f2073757065722061646d696e732e000000000081525060200191505060405180910390fd5b6119d9817f72c3eec1760bf69946625c2d4fb8e44e2c806345041960b434674fb9ab3976cf611b4a565b50565b6000611a04836000018373ffffffffffffffffffffffffffffffffffffffff1660001b611bb7565b905092915050565b611a1681836115fa565b5050565b600033905090565b611a4a81600160008581526020019081526020016000206000016119dc90919063ffffffff16565b15611ab257611a57611a1a565b73ffffffffffffffffffffffffffffffffffffffff168173ffffffffffffffffffffffffffffffffffffffff16837f2f8788117e7eff1d82e926ec794901d17c78024a50270940304540a733656f0d60405160405180910390a45b5050565b611ade8160016000858152602001908152602001600020600001611c2790919063ffffffff16565b15611b4657611aeb611a1a565b73ffffffffffffffffffffffffffffffffffffffff168173ffffffffffffffffffffffffffffffffffffffff16837ff6391f5c32d9c69d2a47ea670b442974b53935d1edc7fd64eb21e047a839171b60405160405180910390a45b5050565b611b548183610ba6565b5050565b6000611b678360000183611c57565b60001c905092915050565b6000611b9a836000018373ffffffffffffffffffffffffffffffffffffffff1660001b611cda565b905092915050565b6000611bb082600001611cfd565b9050919050565b6000611bc38383611cda565b611c1c578260000182908060018154018082558091505060019003906000526020600020016000909190919091505582600001805490508360010160008481526020019081526020016000208190555060019050611c21565b600090505b92915050565b6000611c4f836000018373ffffffffffffffffffffffffffffffffffffffff1660001b611d0e565b905092915050565b600081836000018054905011611cb8576040517f08c379a0000000000000000000000000000000000000000000000000000000008152600401808060200182810382526022815260200180611df76022913960400191505060405180910390fd5b826000018281548110611cc757fe5b9060005260206000200154905092915050565b600080836001016000848152602001908152602001600020541415905092915050565b600081600001805490509050919050565b60008083600101600084815260200190815260200160002054905060008114611dea5760006001820390506000600186600001805490500390506000866000018281548110611d5957fe5b9060005260206000200154905080876000018481548110611d7657fe5b9060005260206000200181905550600183018760010160008381526020019081526020016000208190555086600001805480611dae57fe5b60019003818190600052602060002001600090559055866001016000878152602001908152602001600020600090556001945050505050611df0565b60009150505b9291505056fe456e756d657261626c655365743a20696e646578206f7574206f6620626f756e6473416363657373436f6e74726f6c3a2073656e646572206d75737420626520616e2061646d696e20746f206772616e744f776e61626c653a206e6577206f776e657220697320746865207a65726f2061646472657373416363657373436f6e74726f6c3a2073656e646572206d75737420626520616e2061646d696e20746f207265766f6b65416363657373436f6e74726f6c3a2063616e206f6e6c792072656e6f756e636520726f6c657320666f722073656c66a26469706673582212202f29a1917a727ed9c17c6a9b43757825938bb9ebf9e202b5355c0e38c86ea78164736f6c634300060c0033",
  "immutableReferences": {},
  "source": "// SPDX-License-Identifier: UNLICENSED\npragma solidity >=0.4.22 <0.8.0;\n\nimport \"openzeppelin-solidity/contracts/access/AccessControl.sol\";\nimport \"openzeppelin-solidity/contracts/access/Ownable.sol\";\n\ncontract Roles is Ownable, AccessControl {\n    bytes32 public constant WHITELISTER_ROLE = keccak256(\"WHITELISTER_ROLE\");\n    bytes32 public constant FREEZER_ROLE = keccak256(\"FREEZER_ROLE\");\n    bytes32 public constant TRANSPORTER_ROLE = keccak256(\"TRANSPORTER_ROLE\");\n    bytes32 public constant VOTER_ROLE = keccak256(\"VOTER_ROLE\");\n    bytes32 public constant LIMITER_ROLE = keccak256(\"LIMITER_ROLE\");\n\n    /**\n     * @notice Add `_address` to the super admin role as a member.\n     * @param _address Address to aad to the super admin role as a member.\n     */\n    constructor(address _address) public {\n        _setupRole(DEFAULT_ADMIN_ROLE, _address);\n\n        _setRoleAdmin(WHITELISTER_ROLE, DEFAULT_ADMIN_ROLE);\n        _setRoleAdmin(FREEZER_ROLE, DEFAULT_ADMIN_ROLE);\n        _setRoleAdmin(TRANSPORTER_ROLE, DEFAULT_ADMIN_ROLE);\n        _setRoleAdmin(VOTER_ROLE, DEFAULT_ADMIN_ROLE);\n        _setRoleAdmin(LIMITER_ROLE, DEFAULT_ADMIN_ROLE);\n    }\n\n    // Modifiers\n    modifier onlySuperAdmin() {\n        require(isSuperAdmin(msg.sender), \"Restricted to super admins.\");\n        _;\n    }\n\n    modifier onlyWhitelister() {\n        require(isWhitelister(msg.sender), \"Restricted to whitelisters.\");\n        _;\n    }\n\n    modifier onlyFreezer() {\n        require(isFreezer(msg.sender), \"Restricted to freezers.\");\n        _;\n    }\n\n    modifier onlyTransporter() {\n        require(isTransporter(msg.sender), \"Restricted to transporters.\");\n        _;\n    }\n\n    modifier onlyVoter() {\n        require(isVoter(msg.sender), \"Restricted to voters.\");\n        _;\n    }\n\n    modifier onlyLimiter() {\n        require(isLimiter(msg.sender), \"Restricted to limiters.\");\n        _;\n    }\n\n    // External functions\n\n    /**\n     * @notice Add the super admin role for the address.\n     * @param _address Address for assigning the super admin role.\n     */\n    function addSuperAdmin(address _address) external onlySuperAdmin {\n        _assignRole(_address, DEFAULT_ADMIN_ROLE);\n    }\n\n    /**\n     * @notice Add the whitelister role for the address.\n     * @param _address Address for assigning the whitelister role.\n     */\n    function addWhitelister(address _address) external onlySuperAdmin {\n        _assignRole(_address, WHITELISTER_ROLE);\n    }\n\n    /**\n     * @notice Add the freezer role for the address.\n     * @param _address Address for assigning the freezer role.\n     */\n    function addFreezer(address _address) external onlySuperAdmin {\n        _assignRole(_address, FREEZER_ROLE);\n    }\n\n    /**\n     * @notice Add the transporter role for the address.\n     * @param _address Address for assigning the transporter role.\n     */\n    function addTransporter(address _address) external onlySuperAdmin {\n        _assignRole(_address, TRANSPORTER_ROLE);\n    }\n\n    /**\n     * @notice Add the voter role for the address.\n     * @param _address Address for assigning the voter role.\n     */\n    function addVoter(address _address) external onlySuperAdmin {\n        _assignRole(_address, VOTER_ROLE);\n    }\n\n    /**\n     * @notice Add the limiter role for the address.\n     * @param _address Address for assigning the limiter role.\n     */\n    function addLimiter(address _address) external onlySuperAdmin {\n        _assignRole(_address, LIMITER_ROLE);\n    }\n\n    /**\n     * @notice Renouncement of supera dmin role.\n     */\n    function renounceSuperAdmin() external onlySuperAdmin {\n        renounceRole(DEFAULT_ADMIN_ROLE, msg.sender);\n    }\n\n    /**\n     * @notice Remove the whitelister role for the address.\n     * @param _address Address for removing the whitelister role.\n     */\n    function removeWhitelister(address _address) external onlySuperAdmin {\n        _removeRole(_address, WHITELISTER_ROLE);\n    }\n\n    /**\n     * @notice Remove the freezer role for the address.\n     * @param _address Address for removing the freezer role.\n     */\n    function removeFreezer(address _address) external onlySuperAdmin {\n        _removeRole(_address, FREEZER_ROLE);\n    }\n\n    /**\n     * @notice Remove the transporter role for the address.\n     * @param _address Address for removing the transporter role.\n     */\n    function removeTransporter(address _address) external onlySuperAdmin {\n        _removeRole(_address, TRANSPORTER_ROLE);\n    }\n\n    /**\n     * @notice Remove the voter role for the address.\n     * @param _address Address for removing the voter role.\n     */\n    function removeVoter(address _address) external onlySuperAdmin {\n        _removeRole(_address, VOTER_ROLE);\n    }\n\n    /**\n     * @notice Remove the limiter role for the address.\n     * @param _address Address for removing the limiter role.\n     */\n    function removeLimiter(address _address) external onlySuperAdmin {\n        _removeRole(_address, LIMITER_ROLE);\n    }\n\n    // Public functions\n\n    /**\n     * @notice Checks if the address is assigned the super admin role.\n     * @param _address Address for checking.\n     */\n    function isSuperAdmin(address _address) public view virtual returns (bool) {\n        return hasRole(DEFAULT_ADMIN_ROLE, _address);\n    }\n\n    /**\n     * @notice Checks if the address is assigned the whitelister role.\n     * @param _address Address for checking.\n     */\n    function isWhitelister(address _address)\n        public\n        view\n        virtual\n        returns (bool)\n    {\n        return hasRole(WHITELISTER_ROLE, _address);\n    }\n\n    /**\n     * @notice Checks if the address is assigned the freezer role.\n     * @param _address Address for checking.\n     */\n    function isFreezer(address _address) public view virtual returns (bool) {\n        return hasRole(FREEZER_ROLE, _address);\n    }\n\n    /**\n     * @notice Checks if the address is assigned the transporter role.\n     * @param _address Address for checking.\n     */\n    function isTransporter(address _address)\n        public\n        view\n        virtual\n        returns (bool)\n    {\n        return hasRole(TRANSPORTER_ROLE, _address);\n    }\n\n    /**\n     * @notice Checks if the address is assigned the voter role.\n     * @param _address Address for checking.\n     */\n    function isVoter(address _address) public view virtual returns (bool) {\n        return hasRole(VOTER_ROLE, _address);\n    }\n\n    /**\n     * @notice Checks if the address is assigned the limiter role.\n     * @param _address Address for checking.\n     */\n    function isLimiter(address _address) public view virtual returns (bool) {\n        return hasRole(LIMITER_ROLE, _address);\n    }\n\n    // Private functions\n\n    /**\n     * @notice Add the `_role` for the `_address`.\n     * @param _role Role to assigning for the `_address`.\n     * @param _address Address for assigning the `_role`.\n     */\n    function _assignRole(address _address, bytes32 _role) private {\n        grantRole(_role, _address);\n    }\n\n    /**\n     * @notice Remove the `_role` from the `_address`.\n     * @param _role Role to removing from the `_address`.\n     * @param _address Address for removing the `_role`.\n     */\n    function _removeRole(address _address, bytes32 _role) private {\n        revokeRole(_role, _address);\n    }\n}\n",
  "sourcePath": "/home/jenja/stobox-contract/contracts/Roles.sol",
  "compiler": {
    "name": "solc",
    "version": "0.6.12+commit.27d51765.Emscripten.clang"
  },
  "schemaVersion": "3.3.3",
  "updatedAt": "2021-02-10T09:57:31.794Z",
  "devdoc": {
    "kind": "dev",
    "methods": {
      "addFreezer(address)": {
        "params": {
          "_address": "Address for assigning the freezer role."
        }
      },
      "addLimiter(address)": {
        "params": {
          "_address": "Address for assigning the limiter role."
        }
      },
      "addSuperAdmin(address)": {
        "params": {
          "_address": "Address for assigning the super admin role."
        }
      },
      "addTransporter(address)": {
        "params": {
          "_address": "Address for assigning the transporter role."
        }
      },
      "addVoter(address)": {
        "params": {
          "_address": "Address for assigning the voter role."
        }
      },
      "addWhitelister(address)": {
        "params": {
          "_address": "Address for assigning the whitelister role."
        }
      },
      "constructor": {
        "params": {
          "_address": "Address to aad to the super admin role as a member."
        }
      },
      "getRoleAdmin(bytes32)": {
        "details": "Returns the admin role that controls `role`. See {grantRole} and {revokeRole}. To change a role's admin, use {_setRoleAdmin}."
      },
      "getRoleMember(bytes32,uint256)": {
        "details": "Returns one of the accounts that have `role`. `index` must be a value between 0 and {getRoleMemberCount}, non-inclusive. Role bearers are not sorted in any particular way, and their ordering may change at any point. WARNING: When using {getRoleMember} and {getRoleMemberCount}, make sure you perform all queries on the same block. See the following https://forum.openzeppelin.com/t/iterating-over-elements-on-enumerableset-in-openzeppelin-contracts/2296[forum post] for more information."
      },
      "getRoleMemberCount(bytes32)": {
        "details": "Returns the number of accounts that have `role`. Can be used together with {getRoleMember} to enumerate all bearers of a role."
      },
      "grantRole(bytes32,address)": {
        "details": "Grants `role` to `account`. If `account` had not been already granted `role`, emits a {RoleGranted} event. Requirements: - the caller must have ``role``'s admin role."
      },
      "hasRole(bytes32,address)": {
        "details": "Returns `true` if `account` has been granted `role`."
      },
      "isFreezer(address)": {
        "params": {
          "_address": "Address for checking."
        }
      },
      "isLimiter(address)": {
        "params": {
          "_address": "Address for checking."
        }
      },
      "isSuperAdmin(address)": {
        "params": {
          "_address": "Address for checking."
        }
      },
      "isTransporter(address)": {
        "params": {
          "_address": "Address for checking."
        }
      },
      "isVoter(address)": {
        "params": {
          "_address": "Address for checking."
        }
      },
      "isWhitelister(address)": {
        "params": {
          "_address": "Address for checking."
        }
      },
      "owner()": {
        "details": "Returns the address of the current owner."
      },
      "removeFreezer(address)": {
        "params": {
          "_address": "Address for removing the freezer role."
        }
      },
      "removeLimiter(address)": {
        "params": {
          "_address": "Address for removing the limiter role."
        }
      },
      "removeTransporter(address)": {
        "params": {
          "_address": "Address for removing the transporter role."
        }
      },
      "removeVoter(address)": {
        "params": {
          "_address": "Address for removing the voter role."
        }
      },
      "removeWhitelister(address)": {
        "params": {
          "_address": "Address for removing the whitelister role."
        }
      },
      "renounceOwnership()": {
        "details": "Leaves the contract without owner. It will not be possible to call `onlyOwner` functions anymore. Can only be called by the current owner. NOTE: Renouncing ownership will leave the contract without an owner, thereby removing any functionality that is only available to the owner."
      },
      "renounceRole(bytes32,address)": {
        "details": "Revokes `role` from the calling account. Roles are often managed via {grantRole} and {revokeRole}: this function's purpose is to provide a mechanism for accounts to lose their privileges if they are compromised (such as when a trusted device is misplaced). If the calling account had been granted `role`, emits a {RoleRevoked} event. Requirements: - the caller must be `account`."
      },
      "revokeRole(bytes32,address)": {
        "details": "Revokes `role` from `account`. If `account` had been granted `role`, emits a {RoleRevoked} event. Requirements: - the caller must have ``role``'s admin role."
      },
      "transferOwnership(address)": {
        "details": "Transfers ownership of the contract to a new account (`newOwner`). Can only be called by the current owner."
      }
    },
    "version": 1
  },
  "userdoc": {
    "kind": "user",
    "methods": {
      "addFreezer(address)": {
        "notice": "Add the freezer role for the address."
      },
      "addLimiter(address)": {
        "notice": "Add the limiter role for the address."
      },
      "addSuperAdmin(address)": {
        "notice": "Add the super admin role for the address."
      },
      "addTransporter(address)": {
        "notice": "Add the transporter role for the address."
      },
      "addVoter(address)": {
        "notice": "Add the voter role for the address."
      },
      "addWhitelister(address)": {
        "notice": "Add the whitelister role for the address."
      },
      "constructor": "Add `_address` to the super admin role as a member.",
      "isFreezer(address)": {
        "notice": "Checks if the address is assigned the freezer role."
      },
      "isLimiter(address)": {
        "notice": "Checks if the address is assigned the limiter role."
      },
      "isSuperAdmin(address)": {
        "notice": "Checks if the address is assigned the super admin role."
      },
      "isTransporter(address)": {
        "notice": "Checks if the address is assigned the transporter role."
      },
      "isVoter(address)": {
        "notice": "Checks if the address is assigned the voter role."
      },
      "isWhitelister(address)": {
        "notice": "Checks if the address is assigned the whitelister role."
      },
      "removeFreezer(address)": {
        "notice": "Remove the freezer role for the address."
      },
      "removeLimiter(address)": {
        "notice": "Remove the limiter role for the address."
      },
      "removeTransporter(address)": {
        "notice": "Remove the transporter role for the address."
      },
      "removeVoter(address)": {
        "notice": "Remove the voter role for the address."
      },
      "removeWhitelister(address)": {
        "notice": "Remove the whitelister role for the address."
      },
      "renounceSuperAdmin()": {
        "notice": "Renouncement of supera dmin role."
      }
    },
    "version": 1
  }
}