{
  "contractName": "STBXToken",
  "abi": [
    {
      "inputs": [],
      "stateMutability": "nonpayable",
      "type": "constructor"
    },
    {
      "anonymous": false,
      "inputs": [
        {
          "indexed": true,
          "internalType": "address",
          "name": "owner",
          "type": "address"
        },
        {
          "indexed": true,
          "internalType": "address",
          "name": "spender",
          "type": "address"
        },
        {
          "indexed": false,
          "internalType": "uint256",
          "name": "value",
          "type": "uint256"
        }
      ],
      "name": "Approval",
      "type": "event"
    },
    {
      "anonymous": false,
      "inputs": [
        {
          "indexed": true,
          "internalType": "address",
          "name": "previousOwner",
          "type": "address"
        },
        {
          "indexed": true,
          "internalType": "address",
          "name": "newOwner",
          "type": "address"
        }
      ],
      "name": "OwnershipTransferred",
      "type": "event"
    },
    {
      "anonymous": false,
      "inputs": [
        {
          "indexed": true,
          "internalType": "bytes32",
          "name": "role",
          "type": "bytes32"
        },
        {
          "indexed": true,
          "internalType": "bytes32",
          "name": "previousAdminRole",
          "type": "bytes32"
        },
        {
          "indexed": true,
          "internalType": "bytes32",
          "name": "newAdminRole",
          "type": "bytes32"
        }
      ],
      "name": "RoleAdminChanged",
      "type": "event"
    },
    {
      "anonymous": false,
      "inputs": [
        {
          "indexed": true,
          "internalType": "bytes32",
          "name": "role",
          "type": "bytes32"
        },
        {
          "indexed": true,
          "internalType": "address",
          "name": "account",
          "type": "address"
        },
        {
          "indexed": true,
          "internalType": "address",
          "name": "sender",
          "type": "address"
        }
      ],
      "name": "RoleGranted",
      "type": "event"
    },
    {
      "anonymous": false,
      "inputs": [
        {
          "indexed": true,
          "internalType": "bytes32",
          "name": "role",
          "type": "bytes32"
        },
        {
          "indexed": true,
          "internalType": "address",
          "name": "account",
          "type": "address"
        },
        {
          "indexed": true,
          "internalType": "address",
          "name": "sender",
          "type": "address"
        }
      ],
      "name": "RoleRevoked",
      "type": "event"
    },
    {
      "anonymous": false,
      "inputs": [
        {
          "indexed": true,
          "internalType": "address",
          "name": "from",
          "type": "address"
        },
        {
          "indexed": true,
          "internalType": "address",
          "name": "to",
          "type": "address"
        },
        {
          "indexed": false,
          "internalType": "uint256",
          "name": "value",
          "type": "uint256"
        }
      ],
      "name": "Transfer",
      "type": "event"
    },
    {
      "inputs": [],
      "name": "DEFAULT_ADMIN_ROLE",
      "outputs": [
        {
          "internalType": "bytes32",
          "name": "",
          "type": "bytes32"
        }
      ],
      "stateMutability": "view",
      "type": "function",
      "constant": true
    },
    {
      "inputs": [],
      "name": "FREEZER_ROLE",
      "outputs": [
        {
          "internalType": "bytes32",
          "name": "",
          "type": "bytes32"
        }
      ],
      "stateMutability": "view",
      "type": "function",
      "constant": true
    },
    {
      "inputs": [],
      "name": "LIMITER_ROLE",
      "outputs": [
        {
          "internalType": "bytes32",
          "name": "",
          "type": "bytes32"
        }
      ],
      "stateMutability": "view",
      "type": "function",
      "constant": true
    },
    {
      "inputs": [],
      "name": "TRANSPORTER_ROLE",
      "outputs": [
        {
          "internalType": "bytes32",
          "name": "",
          "type": "bytes32"
        }
      ],
      "stateMutability": "view",
      "type": "function",
      "constant": true
    },
    {
      "inputs": [],
      "name": "VOTER_ROLE",
      "outputs": [
        {
          "internalType": "bytes32",
          "name": "",
          "type": "bytes32"
        }
      ],
      "stateMutability": "view",
      "type": "function",
      "constant": true
    },
    {
      "inputs": [],
      "name": "WHITELISTER_ROLE",
      "outputs": [
        {
          "internalType": "bytes32",
          "name": "",
          "type": "bytes32"
        }
      ],
      "stateMutability": "view",
      "type": "function",
      "constant": true
    },
    {
      "inputs": [
        {
          "internalType": "address",
          "name": "_address",
          "type": "address"
        }
      ],
      "name": "addFreezer",
      "outputs": [],
      "stateMutability": "nonpayable",
      "type": "function"
    },
    {
      "inputs": [
        {
          "internalType": "address",
          "name": "_address",
          "type": "address"
        }
      ],
      "name": "addLimiter",
      "outputs": [],
      "stateMutability": "nonpayable",
      "type": "function"
    },
    {
      "inputs": [
        {
          "internalType": "address",
          "name": "_address",
          "type": "address"
        }
      ],
      "name": "addSuperAdmin",
      "outputs": [],
      "stateMutability": "nonpayable",
      "type": "function"
    },
    {
      "inputs": [
        {
          "internalType": "address",
          "name": "_address",
          "type": "address"
        }
      ],
      "name": "addTransporter",
      "outputs": [],
      "stateMutability": "nonpayable",
      "type": "function"
    },
    {
      "inputs": [
        {
          "internalType": "address",
          "name": "_address",
          "type": "address"
        }
      ],
      "name": "addVoter",
      "outputs": [],
      "stateMutability": "nonpayable",
      "type": "function"
    },
    {
      "inputs": [
        {
          "internalType": "address",
          "name": "_address",
          "type": "address"
        }
      ],
      "name": "addWhitelister",
      "outputs": [],
      "stateMutability": "nonpayable",
      "type": "function"
    },
    {
      "inputs": [
        {
          "internalType": "bytes32",
          "name": "role",
          "type": "bytes32"
        }
      ],
      "name": "getRoleAdmin",
      "outputs": [
        {
          "internalType": "bytes32",
          "name": "",
          "type": "bytes32"
        }
      ],
      "stateMutability": "view",
      "type": "function",
      "constant": true
    },
    {
      "inputs": [
        {
          "internalType": "bytes32",
          "name": "role",
          "type": "bytes32"
        },
        {
          "internalType": "uint256",
          "name": "index",
          "type": "uint256"
        }
      ],
      "name": "getRoleMember",
      "outputs": [
        {
          "internalType": "address",
          "name": "",
          "type": "address"
        }
      ],
      "stateMutability": "view",
      "type": "function",
      "constant": true
    },
    {
      "inputs": [
        {
          "internalType": "bytes32",
          "name": "role",
          "type": "bytes32"
        }
      ],
      "name": "getRoleMemberCount",
      "outputs": [
        {
          "internalType": "uint256",
          "name": "",
          "type": "uint256"
        }
      ],
      "stateMutability": "view",
      "type": "function",
      "constant": true
    },
    {
      "inputs": [
        {
          "internalType": "bytes32",
          "name": "role",
          "type": "bytes32"
        },
        {
          "internalType": "address",
          "name": "account",
          "type": "address"
        }
      ],
      "name": "grantRole",
      "outputs": [],
      "stateMutability": "nonpayable",
      "type": "function"
    },
    {
      "inputs": [
        {
          "internalType": "bytes32",
          "name": "role",
          "type": "bytes32"
        },
        {
          "internalType": "address",
          "name": "account",
          "type": "address"
        }
      ],
      "name": "hasRole",
      "outputs": [
        {
          "internalType": "bool",
          "name": "",
          "type": "bool"
        }
      ],
      "stateMutability": "view",
      "type": "function",
      "constant": true
    },
    {
      "inputs": [
        {
          "internalType": "address",
          "name": "_address",
          "type": "address"
        }
      ],
      "name": "isFreezer",
      "outputs": [
        {
          "internalType": "bool",
          "name": "",
          "type": "bool"
        }
      ],
      "stateMutability": "view",
      "type": "function",
      "constant": true
    },
    {
      "inputs": [
        {
          "internalType": "address",
          "name": "_address",
          "type": "address"
        }
      ],
      "name": "isLimiter",
      "outputs": [
        {
          "internalType": "bool",
          "name": "",
          "type": "bool"
        }
      ],
      "stateMutability": "view",
      "type": "function",
      "constant": true
    },
    {
      "inputs": [
        {
          "internalType": "address",
          "name": "_address",
          "type": "address"
        }
      ],
      "name": "isSuperAdmin",
      "outputs": [
        {
          "internalType": "bool",
          "name": "",
          "type": "bool"
        }
      ],
      "stateMutability": "view",
      "type": "function",
      "constant": true
    },
    {
      "inputs": [
        {
          "internalType": "address",
          "name": "_address",
          "type": "address"
        }
      ],
      "name": "isTransporter",
      "outputs": [
        {
          "internalType": "bool",
          "name": "",
          "type": "bool"
        }
      ],
      "stateMutability": "view",
      "type": "function",
      "constant": true
    },
    {
      "inputs": [
        {
          "internalType": "address",
          "name": "_address",
          "type": "address"
        }
      ],
      "name": "isVoter",
      "outputs": [
        {
          "internalType": "bool",
          "name": "",
          "type": "bool"
        }
      ],
      "stateMutability": "view",
      "type": "function",
      "constant": true
    },
    {
      "inputs": [
        {
          "internalType": "address",
          "name": "_address",
          "type": "address"
        }
      ],
      "name": "isWhitelister",
      "outputs": [
        {
          "internalType": "bool",
          "name": "",
          "type": "bool"
        }
      ],
      "stateMutability": "view",
      "type": "function",
      "constant": true
    },
    {
      "inputs": [],
      "name": "owner",
      "outputs": [
        {
          "internalType": "address",
          "name": "",
          "type": "address"
        }
      ],
      "stateMutability": "view",
      "type": "function",
      "constant": true
    },
    {
      "inputs": [
        {
          "internalType": "address",
          "name": "_address",
          "type": "address"
        }
      ],
      "name": "removeFreezer",
      "outputs": [],
      "stateMutability": "nonpayable",
      "type": "function"
    },
    {
      "inputs": [
        {
          "internalType": "address",
          "name": "_address",
          "type": "address"
        }
      ],
      "name": "removeLimiter",
      "outputs": [],
      "stateMutability": "nonpayable",
      "type": "function"
    },
    {
      "inputs": [
        {
          "internalType": "address",
          "name": "_address",
          "type": "address"
        }
      ],
      "name": "removeTransporter",
      "outputs": [],
      "stateMutability": "nonpayable",
      "type": "function"
    },
    {
      "inputs": [
        {
          "internalType": "address",
          "name": "_address",
          "type": "address"
        }
      ],
      "name": "removeVoter",
      "outputs": [],
      "stateMutability": "nonpayable",
      "type": "function"
    },
    {
      "inputs": [
        {
          "internalType": "address",
          "name": "_address",
          "type": "address"
        }
      ],
      "name": "removeWhitelister",
      "outputs": [],
      "stateMutability": "nonpayable",
      "type": "function"
    },
    {
      "inputs": [],
      "name": "renounceOwnership",
      "outputs": [],
      "stateMutability": "nonpayable",
      "type": "function"
    },
    {
      "inputs": [
        {
          "internalType": "bytes32",
          "name": "role",
          "type": "bytes32"
        },
        {
          "internalType": "address",
          "name": "account",
          "type": "address"
        }
      ],
      "name": "renounceRole",
      "outputs": [],
      "stateMutability": "nonpayable",
      "type": "function"
    },
    {
      "inputs": [],
      "name": "renounceSuperAdmin",
      "outputs": [],
      "stateMutability": "nonpayable",
      "type": "function"
    },
    {
      "inputs": [
        {
          "internalType": "bytes32",
          "name": "role",
          "type": "bytes32"
        },
        {
          "internalType": "address",
          "name": "account",
          "type": "address"
        }
      ],
      "name": "revokeRole",
      "outputs": [],
      "stateMutability": "nonpayable",
      "type": "function"
    },
    {
      "inputs": [
        {
          "internalType": "address",
          "name": "newOwner",
          "type": "address"
        }
      ],
      "name": "transferOwnership",
      "outputs": [],
      "stateMutability": "nonpayable",
      "type": "function"
    },
    {
      "inputs": [
        {
          "internalType": "address",
          "name": "_address",
          "type": "address"
        }
      ],
      "name": "addAddressToWhitelist",
      "outputs": [],
      "stateMutability": "nonpayable",
      "type": "function"
    },
    {
      "inputs": [
        {
          "internalType": "address",
          "name": "_address",
          "type": "address"
        }
      ],
      "name": "removeAddressFromWhitelist",
      "outputs": [],
      "stateMutability": "nonpayable",
      "type": "function"
    },
    {
      "inputs": [
        {
          "internalType": "address",
          "name": "_account",
          "type": "address"
        }
      ],
      "name": "freezeFunds",
      "outputs": [],
      "stateMutability": "nonpayable",
      "type": "function"
    },
    {
      "inputs": [
        {
          "internalType": "address",
          "name": "_account",
          "type": "address"
        }
      ],
      "name": "unfreezeFunds",
      "outputs": [],
      "stateMutability": "nonpayable",
      "type": "function"
    },
    {
      "inputs": [
        {
          "internalType": "address",
          "name": "_account",
          "type": "address"
        },
        {
          "internalType": "uint256",
          "name": "_amount",
          "type": "uint256"
        }
      ],
      "name": "mint",
      "outputs": [],
      "stateMutability": "nonpayable",
      "type": "function"
    },
    {
      "inputs": [
        {
          "internalType": "address",
          "name": "_account",
          "type": "address"
        },
        {
          "internalType": "uint256",
          "name": "_amount",
          "type": "uint256"
        }
      ],
      "name": "burn",
      "outputs": [],
      "stateMutability": "nonpayable",
      "type": "function"
    },
    {
      "inputs": [
        {
          "internalType": "address",
          "name": "_from",
          "type": "address"
        },
        {
          "internalType": "address",
          "name": "_where",
          "type": "address"
        },
        {
          "internalType": "uint256",
          "name": "_amount",
          "type": "uint256"
        }
      ],
      "name": "transferFunds",
      "outputs": [
        {
          "internalType": "bool",
          "name": "",
          "type": "bool"
        }
      ],
      "stateMutability": "nonpayable",
      "type": "function"
    },
    {
      "inputs": [
        {
          "internalType": "uint256",
          "name": "_x",
          "type": "uint256"
        },
        {
          "internalType": "uint256",
          "name": "_y",
          "type": "uint256"
        }
      ],
      "name": "splitOrMerge",
      "outputs": [],
      "stateMutability": "nonpayable",
      "type": "function"
    },
    {
      "inputs": [
        {
          "internalType": "address",
          "name": "_account",
          "type": "address"
        },
        {
          "internalType": "uint256",
          "name": "_transferLimit",
          "type": "uint256"
        }
      ],
      "name": "setTransferLimit",
      "outputs": [],
      "stateMutability": "nonpayable",
      "type": "function"
    },
    {
      "inputs": [
        {
          "internalType": "address",
          "name": "_address",
          "type": "address"
        }
      ],
      "name": "isWhitelistedAddress",
      "outputs": [
        {
          "internalType": "bool",
          "name": "",
          "type": "bool"
        }
      ],
      "stateMutability": "view",
      "type": "function",
      "constant": true
    },
    {
      "inputs": [
        {
          "internalType": "address",
          "name": "_account",
          "type": "address"
        }
      ],
      "name": "isFrozenFunds",
      "outputs": [
        {
          "internalType": "bool",
          "name": "",
          "type": "bool"
        }
      ],
      "stateMutability": "view",
      "type": "function",
      "constant": true
    },
    {
      "inputs": [],
      "name": "name",
      "outputs": [
        {
          "internalType": "string",
          "name": "",
          "type": "string"
        }
      ],
      "stateMutability": "view",
      "type": "function",
      "constant": true
    },
    {
      "inputs": [],
      "name": "symbol",
      "outputs": [
        {
          "internalType": "string",
          "name": "",
          "type": "string"
        }
      ],
      "stateMutability": "view",
      "type": "function",
      "constant": true
    },
    {
      "inputs": [],
      "name": "decimals",
      "outputs": [
        {
          "internalType": "uint8",
          "name": "",
          "type": "uint8"
        }
      ],
      "stateMutability": "view",
      "type": "function",
      "constant": true
    },
    {
      "inputs": [],
      "name": "totalSupply",
      "outputs": [
        {
          "internalType": "uint256",
          "name": "",
          "type": "uint256"
        }
      ],
      "stateMutability": "view",
      "type": "function",
      "constant": true
    },
    {
      "inputs": [
        {
          "internalType": "address",
          "name": "_account",
          "type": "address"
        }
      ],
      "name": "balanceOf",
      "outputs": [
        {
          "internalType": "uint256",
          "name": "",
          "type": "uint256"
        }
      ],
      "stateMutability": "view",
      "type": "function",
      "constant": true
    },
    {
      "inputs": [
        {
          "internalType": "address",
          "name": "_account",
          "type": "address"
        }
      ],
      "name": "getTransferLimit",
      "outputs": [
        {
          "internalType": "uint256",
          "name": "",
          "type": "uint256"
        }
      ],
      "stateMutability": "view",
      "type": "function",
      "constant": true
    },
    {
      "inputs": [
        {
          "internalType": "address",
          "name": "_account",
          "type": "address"
        }
      ],
      "name": "getAllowedToTransfer",
      "outputs": [
        {
          "internalType": "uint256",
          "name": "",
          "type": "uint256"
        }
      ],
      "stateMutability": "view",
      "type": "function",
      "constant": true
    },
    {
      "inputs": [
        {
          "internalType": "address",
          "name": "_recipient",
          "type": "address"
        },
        {
          "internalType": "uint256",
          "name": "_amount",
          "type": "uint256"
        }
      ],
      "name": "transfer",
      "outputs": [
        {
          "internalType": "bool",
          "name": "",
          "type": "bool"
        }
      ],
      "stateMutability": "nonpayable",
      "type": "function"
    },
    {
      "inputs": [
        {
          "internalType": "address",
          "name": "_owner",
          "type": "address"
        },
        {
          "internalType": "address",
          "name": "_spender",
          "type": "address"
        }
      ],
      "name": "allowance",
      "outputs": [
        {
          "internalType": "uint256",
          "name": "",
          "type": "uint256"
        }
      ],
      "stateMutability": "view",
      "type": "function",
      "constant": true
    },
    {
      "inputs": [
        {
          "internalType": "address",
          "name": "_spender",
          "type": "address"
        },
        {
          "internalType": "uint256",
          "name": "_amount",
          "type": "uint256"
        }
      ],
      "name": "approve",
      "outputs": [
        {
          "internalType": "bool",
          "name": "",
          "type": "bool"
        }
      ],
      "stateMutability": "nonpayable",
      "type": "function"
    },
    {
      "inputs": [
        {
          "internalType": "address",
          "name": "_sender",
          "type": "address"
        },
        {
          "internalType": "address",
          "name": "_recipient",
          "type": "address"
        },
        {
          "internalType": "uint256",
          "name": "_amount",
          "type": "uint256"
        }
      ],
      "name": "transferFrom",
      "outputs": [
        {
          "internalType": "bool",
          "name": "",
          "type": "bool"
        }
      ],
      "stateMutability": "nonpayable",
      "type": "function"
    },
    {
      "inputs": [
        {
          "internalType": "address",
          "name": "_spender",
          "type": "address"
        },
        {
          "internalType": "uint256",
          "name": "_addedValue",
          "type": "uint256"
        }
      ],
      "name": "increaseAllowance",
      "outputs": [
        {
          "internalType": "bool",
          "name": "",
          "type": "bool"
        }
      ],
      "stateMutability": "nonpayable",
      "type": "function"
    },
    {
      "inputs": [
        {
          "internalType": "address",
          "name": "_spender",
          "type": "address"
        },
        {
          "internalType": "uint256",
          "name": "_subtractedValue",
          "type": "uint256"
        }
      ],
      "name": "decreaseAllowance",
      "outputs": [
        {
          "internalType": "bool",
          "name": "",
          "type": "bool"
        }
      ],
      "stateMutability": "nonpayable",
      "type": "function"
    }
  ],
  "bytecode": "0x60806040523480156200001157600080fd5b5033600062000025620002ee60201b60201c565b9050806000806101000a81548173ffffffffffffffffffffffffffffffffffffffff021916908373ffffffffffffffffffffffffffffffffffffffff1602179055508073ffffffffffffffffffffffffffffffffffffffff16600073ffffffffffffffffffffffffffffffffffffffff167f8be0079c531659141344cd1fd0a4f28419497f9722a3daafe3b4186f6b6457e060405160405180910390a350620000d86000801b82620002f660201b60201c565b6200010d7f8619cecd8b9e095ab43867f5b69d492180450fe862e6b50bfbfb24b75dd84c8a6000801b6200030c60201b60201c565b620001427f92de27771f92d6942691d73358b3a4673e4880de8356f8f2cf452be87e02d3636000801b6200030c60201b60201c565b620001777fddaa901e2fe3bda354fe0ede2785152d5c109282a613fe024a056a3e66c41bb36000801b6200030c60201b60201c565b620001ac7f72c3eec1760bf69946625c2d4fb8e44e2c806345041960b434674fb9ab3976cf6000801b6200030c60201b60201c565b620001e17ff7b34cf87af24ce01c1aff9f518b133989851466d994e0016fc14651fa02826c6000801b6200030c60201b60201c565b506040518060400160405280601881526020017f53746f626f782044656d6f20436f6d6d6f6e2053746f636b0000000000000000815250600990805190602001906200022f92919062000757565b506040518060400160405280600581526020017f5344435331000000000000000000000000000000000000000000000000000000815250600a90805190602001906200027d92919062000757565b506000600b60006101000a81548160ff021916908360ff1602179055506012600781905550600754600a0a6008819055506103e8600581905550620002cc33620f42406200037060201b60201c565b620002e733600c6200055060201b62003bd91790919060201c565b50620007fd565b600033905090565b6200030882826200058860201b60201c565b5050565b806001600084815260200190815260200160002060020154837fbd79b86ffe0ab8e8776151514217cd7cacd52c909f66475c3af44e129f0b00ff60405160405180910390a48060016000848152602001908152602001600020600201819055505050565b600073ffffffffffffffffffffffffffffffffffffffff168273ffffffffffffffffffffffffffffffffffffffff16141562000414576040517f08c379a000000000000000000000000000000000000000000000000000000000815260040180806020018281038252601e8152602001807f535442583a206d696e7420746f20746865207a65726f2061646472657373000081525060200191505060405180910390fd5b62000428600083836200062c60201b60201c565b62000444816006546200063160201b62003c091790919060201c565b600681905550620004a381600260008573ffffffffffffffffffffffffffffffffffffffff1673ffffffffffffffffffffffffffffffffffffffff168152602001908152602001600020546200063160201b62003c091790919060201c565b600260008473ffffffffffffffffffffffffffffffffffffffff1673ffffffffffffffffffffffffffffffffffffffff168152602001908152602001600020819055508173ffffffffffffffffffffffffffffffffffffffff16600073ffffffffffffffffffffffffffffffffffffffff167fddf252ad1be2c89b69c2b068fc378daa952ba7f163c4a11628f55a4df523b3ef836040518082815260200191505060405180910390a35050565b600062000580836000018373ffffffffffffffffffffffffffffffffffffffff1660001b620006ba60201b60201c565b905092915050565b620005b781600160008581526020019081526020016000206000016200055060201b62003bd91790919060201c565b156200062857620005cd620002ee60201b60201c565b73ffffffffffffffffffffffffffffffffffffffff168173ffffffffffffffffffffffffffffffffffffffff16837f2f8788117e7eff1d82e926ec794901d17c78024a50270940304540a733656f0d60405160405180910390a45b5050565b505050565b600080828401905083811015620006b0576040517f08c379a000000000000000000000000000000000000000000000000000000000815260040180806020018281038252601b8152602001807f536166654d6174683a206164646974696f6e206f766572666c6f77000000000081525060200191505060405180910390fd5b8091505092915050565b6000620006ce83836200073460201b60201c565b620007295782600001829080600181540180825580915050600190039060005260206000200160009091909190915055826000018054905083600101600084815260200190815260200160002081905550600190506200072e565b600090505b92915050565b600080836001016000848152602001908152602001600020541415905092915050565b828054600181600116156101000203166002900490600052602060002090601f016020900481019282601f106200079a57805160ff1916838001178555620007cb565b82800160010185558215620007cb579182015b82811115620007ca578251825591602001919060010190620007ad565b5b509050620007da9190620007de565b5090565b5b80821115620007f9576000816000905550600101620007df565b5090565b61510d806200080d6000396000f3fe608060405234801561001057600080fd5b506004361061038e5760003560e01c80637b9417c8116101de578063a7771ee31161010f578063ca15c873116100ad578063eaf9144a1161007c578063eaf9144a14611338578063f0b6e33f1461137c578063f2fde38b146113ca578063f4ab9adf1461140e5761038e565b8063ca15c873146111d6578063d547741f14611218578063dd62ed3e14611266578063df7f453b146112de5761038e565b8063b3292ff0116100e9578063b3292ff0146110ec578063b3de421414611130578063b70220491461114e578063c54467b3146111925761038e565b8063a7771ee314611010578063a9059cbb1461106a578063a94015c8146110ce5761038e565b806395d89b411161017c578063a10ba41711610156578063a10ba41714610ef0578063a217fddf14610f4a578063a2e92b6714610f68578063a457c2d714610fac5761038e565b806395d89b4114610ddb5780639dc29fac14610e5e5780639e4791b414610eac5761038e565b806386c1ff68116101b857806386c1ff6814610c9d5780638da5cb5b14610ce15780639010d07c14610d1557806391d1485414610d775761038e565b80637b9417c814610bbb5780637d0c269f14610bff57806382c3f79c14610c595761038e565b806334970179116102c3578063526606c9116102615780636c65fd6a116102305780636c65fd6a14610aa757806370a0823114610b01578063715018a614610b595780637359ae7614610b635761038e565b8063526606c914610993578063570618e1146109d75780635edf9e61146109f55780635fae057614610a4d5761038e565b80633dd489061161029d5780633dd48906146108d957806340c10f191461091d578063416edaa01461096b5780634eabbe77146109755761038e565b806334970179146107cd57806336568abe1461082757806339509351146108755761038e565b8063248a9ca3116103305780632b8109d51161030a5780632b8109d5146106c05780632f2ff15d1461071a57806330129e6014610768578063313ce567146107ac5761038e565b8063248a9ca3146105f6578063286dd3f5146106385780632acd20001461067c5761038e565b80631501bf031161036c5780631501bf031461049857806318160ddd1461051c5780631b3ddf811461053a57806323b872dd146105725761038e565b806306a85f0f1461039357806306fdde03146103b1578063095ea7b314610434575b600080fd5b61039b611452565b6040518082815260200191505060405180910390f35b6103b9611476565b6040518080602001828103825283818151815260200191508051906020019080838360005b838110156103f95780820151818401526020810190506103de565b50505050905090810190601f1680156104265780820380516001836020036101000a031916815260200191505b509250505060405180910390f35b6104806004803603604081101561044a57600080fd5b81019080803573ffffffffffffffffffffffffffffffffffffffff16906020019092919080359060200190929190505050611518565b60405180821515815260200191505060405180910390f35b610504600480360360608110156104ae57600080fd5b81019080803573ffffffffffffffffffffffffffffffffffffffff169060200190929190803573ffffffffffffffffffffffffffffffffffffffff169060200190929190803590602001909291905050506116d6565b60405180821515815260200191505060405180910390f35b610524611877565b6040518082815260200191505060405180910390f35b6105706004803603604081101561055057600080fd5b8101908080359060200190929190803590602001909291905050506118ac565b005b6105de6004803603606081101561058857600080fd5b81019080803573ffffffffffffffffffffffffffffffffffffffff169060200190929190803573ffffffffffffffffffffffffffffffffffffffff16906020019092919080359060200190929190505050611a97565b60405180821515815260200191505060405180910390f35b6106226004803603602081101561060c57600080fd5b8101908080359060200190929190505050611d1b565b6040518082815260200191505060405180910390f35b61067a6004803603602081101561064e57600080fd5b81019080803573ffffffffffffffffffffffffffffffffffffffff169060200190929190505050611d3b565b005b6106be6004803603602081101561069257600080fd5b81019080803573ffffffffffffffffffffffffffffffffffffffff169060200190929190505050611de3565b005b610702600480360360208110156106d657600080fd5b81019080803573ffffffffffffffffffffffffffffffffffffffff169060200190929190505050611e8b565b60405180821515815260200191505060405180910390f35b6107666004803603604081101561073057600080fd5b8101908080359060200190929190803573ffffffffffffffffffffffffffffffffffffffff169060200190929190505050611ebe565b005b6107aa6004803603602081101561077e57600080fd5b81019080803573ffffffffffffffffffffffffffffffffffffffff169060200190929190505050611f48565b005b6107b4611ff0565b604051808260ff16815260200191505060405180910390f35b61080f600480360360208110156107e357600080fd5b81019080803573ffffffffffffffffffffffffffffffffffffffff169060200190929190505050612007565b60405180821515815260200191505060405180910390f35b6108736004803603604081101561083d57600080fd5b8101908080359060200190929190803573ffffffffffffffffffffffffffffffffffffffff16906020019092919050505061203a565b005b6108c16004803603604081101561088b57600080fd5b81019080803573ffffffffffffffffffffffffffffffffffffffff169060200190929190803590602001909291905050506120d3565b60405180821515815260200191505060405180910390f35b61091b600480360360208110156108ef57600080fd5b81019080803573ffffffffffffffffffffffffffffffffffffffff16906020019092919050505061231f565b005b6109696004803603604081101561093357600080fd5b81019080803573ffffffffffffffffffffffffffffffffffffffff169060200190929190803590602001909291905050506123c7565b005b6109736124e0565b005b61097d61256a565b6040518082815260200191505060405180910390f35b6109d5600480360360208110156109a957600080fd5b81019080803573ffffffffffffffffffffffffffffffffffffffff16906020019092919050505061258e565b005b6109df612636565b6040518082815260200191505060405180910390f35b610a3760048036036020811015610a0b57600080fd5b81019080803573ffffffffffffffffffffffffffffffffffffffff16906020019092919050505061265a565b6040518082815260200191505060405180910390f35b610a8f60048036036020811015610a6357600080fd5b81019080803573ffffffffffffffffffffffffffffffffffffffff1690602001909291905050506126fb565b60405180821515815260200191505060405180910390f35b610ae960048036036020811015610abd57600080fd5b81019080803573ffffffffffffffffffffffffffffffffffffffff169060200190929190505050612718565b60405180821515815260200191505060405180910390f35b610b4360048036036020811015610b1757600080fd5b81019080803573ffffffffffffffffffffffffffffffffffffffff16906020019092919050505061274b565b6040518082815260200191505060405180910390f35b610b616127bf565b005b610ba560048036036020811015610b7957600080fd5b81019080803573ffffffffffffffffffffffffffffffffffffffff169060200190929190505050612945565b6040518082815260200191505060405180910390f35b610bfd60048036036020811015610bd157600080fd5b81019080803573ffffffffffffffffffffffffffffffffffffffff169060200190929190505050612991565b005b610c4160048036036020811015610c1557600080fd5b81019080803573ffffffffffffffffffffffffffffffffffffffff169060200190929190505050612a39565b60405180821515815260200191505060405180910390f35b610c9b60048036036020811015610c6f57600080fd5b81019080803573ffffffffffffffffffffffffffffffffffffffff169060200190929190505050612a6c565b005b610cdf60048036036020811015610cb357600080fd5b81019080803573ffffffffffffffffffffffffffffffffffffffff169060200190929190505050612b14565b005b610ce9612bbc565b604051808273ffffffffffffffffffffffffffffffffffffffff16815260200191505060405180910390f35b610d4b60048036036040811015610d2b57600080fd5b810190808035906020019092919080359060200190929190505050612be5565b604051808273ffffffffffffffffffffffffffffffffffffffff16815260200191505060405180910390f35b610dc360048036036040811015610d8d57600080fd5b8101908080359060200190929190803573ffffffffffffffffffffffffffffffffffffffff169060200190929190505050612c17565b60405180821515815260200191505060405180910390f35b610de3612c49565b6040518080602001828103825283818151815260200191508051906020019080838360005b83811015610e23578082015181840152602081019050610e08565b50505050905090810190601f168015610e505780820380516001836020036101000a031916815260200191505b509250505060405180910390f35b610eaa60048036036040811015610e7457600080fd5b81019080803573ffffffffffffffffffffffffffffffffffffffff16906020019092919080359060200190929190505050612ceb565b005b610eee60048036036020811015610ec257600080fd5b81019080803573ffffffffffffffffffffffffffffffffffffffff169060200190929190505050612dfa565b005b610f3260048036036020811015610f0657600080fd5b81019080803573ffffffffffffffffffffffffffffffffffffffff169060200190929190505050612e8d565b60405180821515815260200191505060405180910390f35b610f52612eaa565b6040518082815260200191505060405180910390f35b610faa60048036036020811015610f7e57600080fd5b81019080803573ffffffffffffffffffffffffffffffffffffffff169060200190929190505050612eb1565b005b610ff860048036036040811015610fc257600080fd5b81019080803573ffffffffffffffffffffffffffffffffffffffff16906020019092919080359060200190929190505050612f59565b60405180821515815260200191505060405180910390f35b6110526004803603602081101561102657600080fd5b81019080803573ffffffffffffffffffffffffffffffffffffffff1690602001909291905050506131bf565b60405180821515815260200191505060405180910390f35b6110b66004803603604081101561108057600080fd5b81019080803573ffffffffffffffffffffffffffffffffffffffff169060200190929190803590602001909291905050506131f2565b60405180821515815260200191505060405180910390f35b6110d66133ba565b6040518082815260200191505060405180910390f35b61112e6004803603602081101561110257600080fd5b81019080803573ffffffffffffffffffffffffffffffffffffffff1690602001909291905050506133de565b005b611138613469565b6040518082815260200191505060405180910390f35b6111906004803603602081101561116457600080fd5b81019080803573ffffffffffffffffffffffffffffffffffffffff16906020019092919050505061348d565b005b6111d4600480360360208110156111a857600080fd5b81019080803573ffffffffffffffffffffffffffffffffffffffff169060200190929190505050613535565b005b611202600480360360208110156111ec57600080fd5b81019080803590602001909291905050506135c8565b6040518082815260200191505060405180910390f35b6112646004803603604081101561122e57600080fd5b8101908080359060200190929190803573ffffffffffffffffffffffffffffffffffffffff1690602001909291905050506135ef565b005b6112c86004803603604081101561127c57600080fd5b81019080803573ffffffffffffffffffffffffffffffffffffffff169060200190929190803573ffffffffffffffffffffffffffffffffffffffff169060200190929190505050613679565b6040518082815260200191505060405180910390f35b611320600480360360208110156112f457600080fd5b81019080803573ffffffffffffffffffffffffffffffffffffffff169060200190929190505050613714565b60405180821515815260200191505060405180910390f35b61137a6004803603602081101561134e57600080fd5b81019080803573ffffffffffffffffffffffffffffffffffffffff16906020019092919050505061372a565b005b6113c86004803603604081101561139257600080fd5b81019080803573ffffffffffffffffffffffffffffffffffffffff169060200190929190803590602001909291905050506137d2565b005b61140c600480360360208110156113e057600080fd5b81019080803573ffffffffffffffffffffffffffffffffffffffff169060200190929190505050613926565b005b6114506004803603602081101561142457600080fd5b81019080803573ffffffffffffffffffffffffffffffffffffffff169060200190929190505050613b31565b005b7f92de27771f92d6942691d73358b3a4673e4880de8356f8f2cf452be87e02d36381565b606060098054600181600116156101000203166002900480601f01602080910402602001604051908101604052809291908181526020018280546001816001161561010002031660029004801561150e5780601f106114e35761010080835404028352916020019161150e565b820191906000526020600020905b8154815290600101906020018083116114f157829003601f168201915b5050505050905090565b60003361152f81600c613c9190919063ffffffff16565b6115a1576040517f08c379a000000000000000000000000000000000000000000000000000000000815260040180806020018281038252601e8152602001807f535442583a206e6f742077686974656c697374656420616464726573732e000081525060200191505060405180910390fd5b836115b681600c613c9190919063ffffffff16565b611628576040517f08c379a000000000000000000000000000000000000000000000000000000000815260040180806020018281038252601e8152602001807f535442583a206e6f742077686974656c697374656420616464726573732e000081525060200191505060405180910390fd5b336000151561164182600e613c9190919063ffffffff16565b1515146116b6576040517f08c379a00000000000000000000000000000000000000000000000000000000081526004018080602001828103825260178152602001807f535442583a2066756e6473206172652066726f7a656e2e00000000000000000081525060200191505060405180910390fd5b6116c933876116c488613cc1565b613cf6565b6001935050505092915050565b60006116e133611e8b565b611753576040517f08c379a000000000000000000000000000000000000000000000000000000000815260040180806020018281038252601b8152602001807f5265737472696374656420746f207472616e73706f72746572732e000000000081525060200191505060405180910390fd5b8261176881600c613c9190919063ffffffff16565b6117da576040517f08c379a000000000000000000000000000000000000000000000000000000000815260040180806020018281038252601e8152602001807f535442583a206e6f742077686974656c697374656420616464726573732e000081525060200191505060405180910390fd5b826117e48661274b565b1015611858576040517f08c379a00000000000000000000000000000000000000000000000000000000081526004018080602001828103825260178152602001807f535442583a206e6f7420656e6f75676820746f6b656e7300000000000000000081525060200191505060405180910390fd5b61186b858561186686613cc1565b613eed565b60019150509392505050565b60006118a7600754600a0a6118996008546006546141b290919063ffffffff16565b61423890919063ffffffff16565b905090565b6118b533613714565b611927576040517f08c379a000000000000000000000000000000000000000000000000000000000815260040180806020018281038252601b8152602001807f5265737472696374656420746f2073757065722061646d696e732e000000000081525060200191505060405180910390fd5b8082141561199d576040517f08c379a00000000000000000000000000000000000000000000000000000000081526004018080602001828103825260208152602001807f535442583a205f78206d757374206e6f7420626520657175616c20746f205f7981525060200191505060405180910390fd5b60008211611a13576040517f08c379a000000000000000000000000000000000000000000000000000000000815260040180806020018281038252601f8152602001807f535442583a205f78206d7573742062652067726561746572207468616e20300081525060200191505060405180910390fd5b60008111611a89576040517f08c379a000000000000000000000000000000000000000000000000000000000815260040180806020018281038252601f8152602001807f535442583a205f79206d7573742062652067726561746572207468616e20300081525060200191505060405180910390fd5b611a938282614282565b5050565b600083611aae81600c613c9190919063ffffffff16565b611b20576040517f08c379a000000000000000000000000000000000000000000000000000000000815260040180806020018281038252601e8152602001807f535442583a206e6f742077686974656c697374656420616464726573732e000081525060200191505060405180910390fd5b83611b3581600c613c9190919063ffffffff16565b611ba7576040517f08c379a000000000000000000000000000000000000000000000000000000000815260040180806020018281038252601e8152602001807f535442583a206e6f742077686974656c697374656420616464726573732e000081525060200191505060405180910390fd5b8560001515611bc082600e613c9190919063ffffffff16565b151514611c35576040517f08c379a00000000000000000000000000000000000000000000000000000000081526004018080602001828103825260178152602001807f535442583a2066756e6473206172652066726f7a656e2e00000000000000000081525060200191505060405180910390fd5b611c3f87866142ed565b611c528787611c4d88613cc1565b613eed565b611d0d8733611d08611c6389613cc1565b604051806060016040528060278152602001614ff560279139600360008e73ffffffffffffffffffffffffffffffffffffffff1673ffffffffffffffffffffffffffffffffffffffff16815260200190815260200160002060003373ffffffffffffffffffffffffffffffffffffffff1673ffffffffffffffffffffffffffffffffffffffff168152602001908152602001600020546145609092919063ffffffff16565b613cf6565b600193505050509392505050565b600060016000838152602001908152602001600020600201549050919050565b611d4433612a39565b611db6576040517f08c379a000000000000000000000000000000000000000000000000000000000815260040180806020018281038252601b8152602001807f5265737472696374656420746f2077686974656c6973746572732e000000000081525060200191505060405180910390fd5b611dca81600c61462090919063ffffffff16565b50611ddf81600e613bd990919063ffffffff16565b5050565b611dec33613714565b611e5e576040517f08c379a000000000000000000000000000000000000000000000000000000000815260040180806020018281038252601b8152602001807f5265737472696374656420746f2073757065722061646d696e732e000000000081525060200191505060405180910390fd5b611e88817f92de27771f92d6942691d73358b3a4673e4880de8356f8f2cf452be87e02d363614650565b50565b6000611eb77fddaa901e2fe3bda354fe0ede2785152d5c109282a613fe024a056a3e66c41bb383612c17565b9050919050565b611ee56001600084815260200190815260200160002060020154611ee061465e565b612c17565b611f3a576040517f08c379a000000000000000000000000000000000000000000000000000000000815260040180806020018281038252602f815260200180614ebe602f913960400191505060405180910390fd5b611f448282614666565b5050565b611f5133613714565b611fc3576040517f08c379a000000000000000000000000000000000000000000000000000000000815260040180806020018281038252601b8152602001807f5265737472696374656420746f2073757065722061646d696e732e000000000081525060200191505060405180910390fd5b611fed817ff7b34cf87af24ce01c1aff9f518b133989851466d994e0016fc14651fa02826c614650565b50565b6000600b60009054906101000a900460ff16905090565b60006120337ff7b34cf87af24ce01c1aff9f518b133989851466d994e0016fc14651fa02826c83612c17565b9050919050565b61204261465e565b73ffffffffffffffffffffffffffffffffffffffff168173ffffffffffffffffffffffffffffffffffffffff16146120c5576040517f08c379a000000000000000000000000000000000000000000000000000000000815260040180806020018281038252602f8152602001806150a9602f913960400191505060405180910390fd5b6120cf82826146fa565b5050565b6000336120ea81600c613c9190919063ffffffff16565b61215c576040517f08c379a000000000000000000000000000000000000000000000000000000000815260040180806020018281038252601e8152602001807f535442583a206e6f742077686974656c697374656420616464726573732e000081525060200191505060405180910390fd5b8361217181600c613c9190919063ffffffff16565b6121e3576040517f08c379a000000000000000000000000000000000000000000000000000000000815260040180806020018281038252601e8152602001807f535442583a206e6f742077686974656c697374656420616464726573732e000081525060200191505060405180910390fd5b33600015156121fc82600e613c9190919063ffffffff16565b151514612271576040517f08c379a00000000000000000000000000000000000000000000000000000000081526004018080602001828103825260178152602001807f535442583a2066756e6473206172652066726f7a656e2e00000000000000000081525060200191505060405180910390fd5b612312338761230d61228289613cc1565b600360003373ffffffffffffffffffffffffffffffffffffffff1673ffffffffffffffffffffffffffffffffffffffff16815260200190815260200160002060008c73ffffffffffffffffffffffffffffffffffffffff1673ffffffffffffffffffffffffffffffffffffffff16815260200190815260200160002054613c0990919063ffffffff16565b613cf6565b6001935050505092915050565b61232833613714565b61239a576040517f08c379a000000000000000000000000000000000000000000000000000000000815260040180806020018281038252601b8152602001807f5265737472696374656420746f2073757065722061646d696e732e000000000081525060200191505060405180910390fd5b6123c4817fddaa901e2fe3bda354fe0ede2785152d5c109282a613fe024a056a3e66c41bb3614650565b50565b6123d033613714565b612442576040517f08c379a000000000000000000000000000000000000000000000000000000000815260040180806020018281038252601b8152602001807f5265737472696374656420746f2073757065722061646d696e732e000000000081525060200191505060405180910390fd5b8161245781600c613c9190919063ffffffff16565b6124c9576040517f08c379a000000000000000000000000000000000000000000000000000000000815260040180806020018281038252601e8152602001807f535442583a206e6f742077686974656c697374656420616464726573732e000081525060200191505060405180910390fd5b6124db836124d684613cc1565b61478e565b505050565b6124e933613714565b61255b576040517f08c379a000000000000000000000000000000000000000000000000000000000815260040180806020018281038252601b8152602001807f5265737472696374656420746f2073757065722061646d696e732e000000000081525060200191505060405180910390fd5b6125686000801b3361203a565b565b7fddaa901e2fe3bda354fe0ede2785152d5c109282a613fe024a056a3e66c41bb381565b61259733613714565b612609576040517f08c379a000000000000000000000000000000000000000000000000000000000815260040180806020018281038252601b8152602001807f5265737472696374656420746f2073757065722061646d696e732e000000000081525060200191505060405180910390fd5b612633817f92de27771f92d6942691d73358b3a4673e4880de8356f8f2cf452be87e02d363614957565b50565b7f8619cecd8b9e095ab43867f5b69d492180450fe862e6b50bfbfb24b75dd84c8a81565b600080600460008473ffffffffffffffffffffffffffffffffffffffff1673ffffffffffffffffffffffffffffffffffffffff1681526020019081526020016000206000015411156126f057600460008373ffffffffffffffffffffffffffffffffffffffff1673ffffffffffffffffffffffffffffffffffffffff1681526020019081526020016000206000015490506126f6565b60055490505b919050565b600061271182600c613c9190919063ffffffff16565b9050919050565b60006127447f92de27771f92d6942691d73358b3a4673e4880de8356f8f2cf452be87e02d36383612c17565b9050919050565b60006127b8600754600a0a6127aa600854600260008773ffffffffffffffffffffffffffffffffffffffff1673ffffffffffffffffffffffffffffffffffffffff168152602001908152602001600020546141b290919063ffffffff16565b61423890919063ffffffff16565b9050919050565b6127c761465e565b73ffffffffffffffffffffffffffffffffffffffff1660008054906101000a900473ffffffffffffffffffffffffffffffffffffffff1673ffffffffffffffffffffffffffffffffffffffff1614612887576040517f08c379a00000000000000000000000000000000000000000000000000000000081526004018080602001828103825260208152602001807f4f776e61626c653a2063616c6c6572206973206e6f7420746865206f776e657281525060200191505060405180910390fd5b600073ffffffffffffffffffffffffffffffffffffffff1660008054906101000a900473ffffffffffffffffffffffffffffffffffffffff1673ffffffffffffffffffffffffffffffffffffffff167f8be0079c531659141344cd1fd0a4f28419497f9722a3daafe3b4186f6b6457e060405160405180910390a360008060006101000a81548173ffffffffffffffffffffffffffffffffffffffff021916908373ffffffffffffffffffffffffffffffffffffffff160217905550565b6000600460008373ffffffffffffffffffffffffffffffffffffffff1673ffffffffffffffffffffffffffffffffffffffff168152602001908152602001600020600201549050919050565b61299a33612a39565b612a0c576040517f08c379a000000000000000000000000000000000000000000000000000000000815260040180806020018281038252601b8152602001807f5265737472696374656420746f2077686974656c6973746572732e000000000081525060200191505060405180910390fd5b612a2081600c613bd990919063ffffffff16565b50612a3581600e61462090919063ffffffff16565b5050565b6000612a657f8619cecd8b9e095ab43867f5b69d492180450fe862e6b50bfbfb24b75dd84c8a83612c17565b9050919050565b612a7533613714565b612ae7576040517f08c379a000000000000000000000000000000000000000000000000000000000815260040180806020018281038252601b8152602001807f5265737472696374656420746f2073757065722061646d696e732e000000000081525060200191505060405180910390fd5b612b11817f8619cecd8b9e095ab43867f5b69d492180450fe862e6b50bfbfb24b75dd84c8a614650565b50565b612b1d33613714565b612b8f576040517f08c379a000000000000000000000000000000000000000000000000000000000815260040180806020018281038252601b8152602001807f5265737472696374656420746f2073757065722061646d696e732e000000000081525060200191505060405180910390fd5b612bb9817f72c3eec1760bf69946625c2d4fb8e44e2c806345041960b434674fb9ab3976cf614650565b50565b60008060009054906101000a900473ffffffffffffffffffffffffffffffffffffffff16905090565b6000612c0f826001600086815260200190815260200160002060000161496590919063ffffffff16565b905092915050565b6000612c418260016000868152602001908152602001600020600001613c9190919063ffffffff16565b905092915050565b6060600a8054600181600116156101000203166002900480601f016020809104026020016040519081016040528092919081815260200182805460018160011615610100020316600290048015612ce15780601f10612cb657610100808354040283529160200191612ce1565b820191906000526020600020905b815481529060010190602001808311612cc457829003601f168201915b5050505050905090565b612cf433613714565b612d66576040517f08c379a000000000000000000000000000000000000000000000000000000000815260040180806020018281038252601b8152602001807f5265737472696374656420746f2073757065722061646d696e732e000000000081525060200191505060405180910390fd5b80612d708361274b565b1015612de4576040517f08c379a00000000000000000000000000000000000000000000000000000000081526004018080602001828103825260158152602001807f535442583a2062616c616e636520746f6f206c6f77000000000000000000000081525060200191505060405180910390fd5b612df682612df183613cc1565b61497f565b5050565b612e0333612718565b612e75576040517f08c379a00000000000000000000000000000000000000000000000000000000081526004018080602001828103825260178152602001807f5265737472696374656420746f20667265657a6572732e00000000000000000081525060200191505060405180910390fd5b612e8981600e61462090919063ffffffff16565b5050565b6000612ea382600e613c9190919063ffffffff16565b9050919050565b6000801b81565b612eba33613714565b612f2c576040517f08c379a000000000000000000000000000000000000000000000000000000000815260040180806020018281038252601b8152602001807f5265737472696374656420746f2073757065722061646d696e732e000000000081525060200191505060405180910390fd5b612f56817ff7b34cf87af24ce01c1aff9f518b133989851466d994e0016fc14651fa02826c614957565b50565b600033612f7081600c613c9190919063ffffffff16565b612fe2576040517f08c379a000000000000000000000000000000000000000000000000000000000815260040180806020018281038252601e8152602001807f535442583a206e6f742077686974656c697374656420616464726573732e000081525060200191505060405180910390fd5b83612ff781600c613c9190919063ffffffff16565b613069576040517f08c379a000000000000000000000000000000000000000000000000000000000815260040180806020018281038252601e8152602001807f535442583a206e6f742077686974656c697374656420616464726573732e000081525060200191505060405180910390fd5b336000151561308282600e613c9190919063ffffffff16565b1515146130f7576040517f08c379a00000000000000000000000000000000000000000000000000000000081526004018080602001828103825260178152602001807f535442583a2066756e6473206172652066726f7a656e2e00000000000000000081525060200191505060405180910390fd5b6131b233876131ad61310889613cc1565b604051806060016040528060248152602001614faf60249139600360003373ffffffffffffffffffffffffffffffffffffffff1673ffffffffffffffffffffffffffffffffffffffff16815260200190815260200160002060008d73ffffffffffffffffffffffffffffffffffffffff1673ffffffffffffffffffffffffffffffffffffffff168152602001908152602001600020546145609092919063ffffffff16565b613cf6565b6001935050505092915050565b60006131eb7f72c3eec1760bf69946625c2d4fb8e44e2c806345041960b434674fb9ab3976cf83612c17565b9050919050565b60003361320981600c613c9190919063ffffffff16565b61327b576040517f08c379a000000000000000000000000000000000000000000000000000000000815260040180806020018281038252601e8152602001807f535442583a206e6f742077686974656c697374656420616464726573732e000081525060200191505060405180910390fd5b8361329081600c613c9190919063ffffffff16565b613302576040517f08c379a000000000000000000000000000000000000000000000000000000000815260040180806020018281038252601e8152602001807f535442583a206e6f742077686974656c697374656420616464726573732e000081525060200191505060405180910390fd5b336000151561331b82600e613c9190919063ffffffff16565b151514613390576040517f08c379a00000000000000000000000000000000000000000000000000000000081526004018080602001828103825260178152602001807f535442583a2066756e6473206172652066726f7a656e2e00000000000000000081525060200191505060405180910390fd5b61339a33866142ed565b6133ad33876133a888613cc1565b613eed565b6001935050505092915050565b7f72c3eec1760bf69946625c2d4fb8e44e2c806345041960b434674fb9ab3976cf81565b6133e733613714565b613459576040517f08c379a000000000000000000000000000000000000000000000000000000000815260040180806020018281038252601b8152602001807f5265737472696374656420746f2073757065722061646d696e732e000000000081525060200191505060405180910390fd5b613466816000801b614957565b50565b7ff7b34cf87af24ce01c1aff9f518b133989851466d994e0016fc14651fa02826c81565b61349633613714565b613508576040517f08c379a000000000000000000000000000000000000000000000000000000000815260040180806020018281038252601b8152602001807f5265737472696374656420746f2073757065722061646d696e732e000000000081525060200191505060405180910390fd5b613532817fddaa901e2fe3bda354fe0ede2785152d5c109282a613fe024a056a3e66c41bb3614957565b50565b61353e33612718565b6135b0576040517f08c379a00000000000000000000000000000000000000000000000000000000081526004018080602001828103825260178152602001807f5265737472696374656420746f20667265657a6572732e00000000000000000081525060200191505060405180910390fd5b6135c481600e613bd990919063ffffffff16565b5050565b60006135e860016000848152602001908152602001600020600001614b62565b9050919050565b613616600160008481526020019081526020016000206002015461361161465e565b612c17565b61366b576040517f08c379a0000000000000000000000000000000000000000000000000000000008152600401808060200182810382526030815260200180614f5e6030913960400191505060405180910390fd5b61367582826146fa565b5050565b600061370c600854600360008673ffffffffffffffffffffffffffffffffffffffff1673ffffffffffffffffffffffffffffffffffffffff16815260200190815260200160002060008573ffffffffffffffffffffffffffffffffffffffff1673ffffffffffffffffffffffffffffffffffffffff168152602001908152602001600020546141b290919063ffffffff16565b905092915050565b60006137236000801b83612c17565b9050919050565b61373333613714565b6137a5576040517f08c379a000000000000000000000000000000000000000000000000000000000815260040180806020018281038252601b8152602001807f5265737472696374656420746f2073757065722061646d696e732e000000000081525060200191505060405180910390fd5b6137cf817f8619cecd8b9e095ab43867f5b69d492180450fe862e6b50bfbfb24b75dd84c8a614957565b50565b6137db33612007565b61384d576040517f08c379a00000000000000000000000000000000000000000000000000000000081526004018080602001828103825260178152602001807f5265737472696374656420746f206c696d69746572732e00000000000000000081525060200191505060405180910390fd5b80600460008473ffffffffffffffffffffffffffffffffffffffff1673ffffffffffffffffffffffffffffffffffffffff1681526020019081526020016000206000018190555080600460008473ffffffffffffffffffffffffffffffffffffffff1673ffffffffffffffffffffffffffffffffffffffff1681526020019081526020016000206002018190555042600460008473ffffffffffffffffffffffffffffffffffffffff1673ffffffffffffffffffffffffffffffffffffffff168152602001908152602001600020600101819055505050565b61392e61465e565b73ffffffffffffffffffffffffffffffffffffffff1660008054906101000a900473ffffffffffffffffffffffffffffffffffffffff1673ffffffffffffffffffffffffffffffffffffffff16146139ee576040517f08c379a00000000000000000000000000000000000000000000000000000000081526004018080602001828103825260208152602001807f4f776e61626c653a2063616c6c6572206973206e6f7420746865206f776e657281525060200191505060405180910390fd5b600073ffffffffffffffffffffffffffffffffffffffff168173ffffffffffffffffffffffffffffffffffffffff161415613a74576040517f08c379a0000000000000000000000000000000000000000000000000000000008152600401808060200182810382526026815260200180614eed6026913960400191505060405180910390fd5b8073ffffffffffffffffffffffffffffffffffffffff1660008054906101000a900473ffffffffffffffffffffffffffffffffffffffff1673ffffffffffffffffffffffffffffffffffffffff167f8be0079c531659141344cd1fd0a4f28419497f9722a3daafe3b4186f6b6457e060405160405180910390a3806000806101000a81548173ffffffffffffffffffffffffffffffffffffffff021916908373ffffffffffffffffffffffffffffffffffffffff16021790555050565b613b3a33613714565b613bac576040517f08c379a000000000000000000000000000000000000000000000000000000000815260040180806020018281038252601b8152602001807f5265737472696374656420746f2073757065722061646d696e732e000000000081525060200191505060405180910390fd5b613bd6817f72c3eec1760bf69946625c2d4fb8e44e2c806345041960b434674fb9ab3976cf614957565b50565b6000613c01836000018373ffffffffffffffffffffffffffffffffffffffff1660001b614b77565b905092915050565b600080828401905083811015613c87576040517f08c379a000000000000000000000000000000000000000000000000000000000815260040180806020018281038252601b8152602001807f536166654d6174683a206164646974696f6e206f766572666c6f77000000000081525060200191505060405180910390fd5b8091505092915050565b6000613cb9836000018373ffffffffffffffffffffffffffffffffffffffff1660001b614be7565b905092915050565b6000613cef613ce0600754600a0a60085461423890919063ffffffff16565b8361423890919063ffffffff16565b9050919050565b600073ffffffffffffffffffffffffffffffffffffffff168373ffffffffffffffffffffffffffffffffffffffff161415613d7c576040517f08c379a00000000000000000000000000000000000000000000000000000000081526004018080602001828103825260238152602001806150626023913960400191505060405180910390fd5b600073ffffffffffffffffffffffffffffffffffffffff168273ffffffffffffffffffffffffffffffffffffffff161415613e02576040517f08c379a0000000000000000000000000000000000000000000000000000000008152600401808060200182810382526021815260200180614f136021913960400191505060405180910390fd5b80600360008573ffffffffffffffffffffffffffffffffffffffff1673ffffffffffffffffffffffffffffffffffffffff16815260200190815260200160002060008473ffffffffffffffffffffffffffffffffffffffff1673ffffffffffffffffffffffffffffffffffffffff168152602001908152602001600020819055508173ffffffffffffffffffffffffffffffffffffffff168373ffffffffffffffffffffffffffffffffffffffff167f8c5be1e5ebec7d5bd14f71427d1e84f3dd0314c0f7b2291e5b200ac8c7c3b925836040518082815260200191505060405180910390a3505050565b600073ffffffffffffffffffffffffffffffffffffffff168373ffffffffffffffffffffffffffffffffffffffff161415613f73576040517f08c379a00000000000000000000000000000000000000000000000000000000081526004018080602001828103825260248152602001806150856024913960400191505060405180910390fd5b600073ffffffffffffffffffffffffffffffffffffffff168273ffffffffffffffffffffffffffffffffffffffff161415613ff9576040517f08c379a0000000000000000000000000000000000000000000000000000000008152600401808060200182810382526022815260200180614fd36022913960400191505060405180910390fd5b614004838383614c0a565b6140708160405180606001604052806025815260200161503d60259139600260008773ffffffffffffffffffffffffffffffffffffffff1673ffffffffffffffffffffffffffffffffffffffff168152602001908152602001600020546145609092919063ffffffff16565b600260008573ffffffffffffffffffffffffffffffffffffffff1673ffffffffffffffffffffffffffffffffffffffff1681526020019081526020016000208190555061410581600260008573ffffffffffffffffffffffffffffffffffffffff1673ffffffffffffffffffffffffffffffffffffffff16815260200190815260200160002054613c0990919063ffffffff16565b600260008473ffffffffffffffffffffffffffffffffffffffff1673ffffffffffffffffffffffffffffffffffffffff168152602001908152602001600020819055508173ffffffffffffffffffffffffffffffffffffffff168373ffffffffffffffffffffffffffffffffffffffff167fddf252ad1be2c89b69c2b068fc378daa952ba7f163c4a11628f55a4df523b3ef836040518082815260200191505060405180910390a3505050565b6000808314156141c55760009050614232565b60008284029050828482816141d657fe5b041461422d576040517f08c379a000000000000000000000000000000000000000000000000000000000815260040180806020018281038252602181526020018061501c6021913960400191505060405180910390fd5b809150505b92915050565b600061427a83836040518060400160405280601a81526020017f536166654d6174683a206469766973696f6e206279207a65726f000000000000815250614c0f565b905092915050565b6142c06142af836142a1600754600a0a856141b290919063ffffffff16565b61423890919063ffffffff16565b6008546141b290919063ffffffff16565b6008819055506142e3670de0b6b3a764000060085461423890919063ffffffff16565b6008819055505050565b4262015180600460008573ffffffffffffffffffffffffffffffffffffffff1673ffffffffffffffffffffffffffffffffffffffff168152602001908152602001600020600101540110156144a75742600460008473ffffffffffffffffffffffffffffffffffffffff1673ffffffffffffffffffffffffffffffffffffffff168152602001908152602001600020600101819055506000600460008473ffffffffffffffffffffffffffffffffffffffff1673ffffffffffffffffffffffffffffffffffffffff16815260200190815260200160002060000154111561445c57600460008373ffffffffffffffffffffffffffffffffffffffff1673ffffffffffffffffffffffffffffffffffffffff16815260200190815260200160002060000154600460008473ffffffffffffffffffffffffffffffffffffffff1673ffffffffffffffffffffffffffffffffffffffff168152602001908152602001600020600201819055506144a6565b600554600460008473ffffffffffffffffffffffffffffffffffffffff1673ffffffffffffffffffffffffffffffffffffffff168152602001908152602001600020600201819055505b5b614516816040518060600160405280602a8152602001614f34602a9139600460008673ffffffffffffffffffffffffffffffffffffffff1673ffffffffffffffffffffffffffffffffffffffff168152602001908152602001600020600201546145609092919063ffffffff16565b600460008473ffffffffffffffffffffffffffffffffffffffff1673ffffffffffffffffffffffffffffffffffffffff168152602001908152602001600020600201819055505050565b600083831115829061460d576040517f08c379a00000000000000000000000000000000000000000000000000000000081526004018080602001828103825283818151815260200191508051906020019080838360005b838110156145d25780820151818401526020810190506145b7565b50505050905090810190601f1680156145ff5780820380516001836020036101000a031916815260200191505b509250505060405180910390fd5b5060008385039050809150509392505050565b6000614648836000018373ffffffffffffffffffffffffffffffffffffffff1660001b614cd5565b905092915050565b61465a81836135ef565b5050565b600033905090565b61468e8160016000858152602001908152602001600020600001613bd990919063ffffffff16565b156146f65761469b61465e565b73ffffffffffffffffffffffffffffffffffffffff168173ffffffffffffffffffffffffffffffffffffffff16837f2f8788117e7eff1d82e926ec794901d17c78024a50270940304540a733656f0d60405160405180910390a45b5050565b614722816001600085815260200190815260200160002060000161462090919063ffffffff16565b1561478a5761472f61465e565b73ffffffffffffffffffffffffffffffffffffffff168173ffffffffffffffffffffffffffffffffffffffff16837ff6391f5c32d9c69d2a47ea670b442974b53935d1edc7fd64eb21e047a839171b60405160405180910390a45b5050565b600073ffffffffffffffffffffffffffffffffffffffff168273ffffffffffffffffffffffffffffffffffffffff161415614831576040517f08c379a000000000000000000000000000000000000000000000000000000000815260040180806020018281038252601e8152602001807f535442583a206d696e7420746f20746865207a65726f2061646472657373000081525060200191505060405180910390fd5b61483d60008383614c0a565b61485281600654613c0990919063ffffffff16565b6006819055506148aa81600260008573ffffffffffffffffffffffffffffffffffffffff1673ffffffffffffffffffffffffffffffffffffffff16815260200190815260200160002054613c0990919063ffffffff16565b600260008473ffffffffffffffffffffffffffffffffffffffff1673ffffffffffffffffffffffffffffffffffffffff168152602001908152602001600020819055508173ffffffffffffffffffffffffffffffffffffffff16600073ffffffffffffffffffffffffffffffffffffffff167fddf252ad1be2c89b69c2b068fc378daa952ba7f163c4a11628f55a4df523b3ef836040518082815260200191505060405180910390a35050565b6149618183611ebe565b5050565b60006149748360000183614dbd565b60001c905092915050565b600073ffffffffffffffffffffffffffffffffffffffff168273ffffffffffffffffffffffffffffffffffffffff161415614a22576040517f08c379a00000000000000000000000000000000000000000000000000000000081526004018080602001828103825260208152602001807f535442583a206275726e2066726f6d20746865207a65726f206164647265737381525060200191505060405180910390fd5b614a2e82600083614c0a565b614a9a81604051806060016040528060218152602001614f8e60219139600260008673ffffffffffffffffffffffffffffffffffffffff1673ffffffffffffffffffffffffffffffffffffffff168152602001908152602001600020546145609092919063ffffffff16565b600260008473ffffffffffffffffffffffffffffffffffffffff1673ffffffffffffffffffffffffffffffffffffffff16815260200190815260200160002081905550614af281600654614e4090919063ffffffff16565b600681905550600073ffffffffffffffffffffffffffffffffffffffff168273ffffffffffffffffffffffffffffffffffffffff167fddf252ad1be2c89b69c2b068fc378daa952ba7f163c4a11628f55a4df523b3ef836040518082815260200191505060405180910390a35050565b6000614b7082600001614e8a565b9050919050565b6000614b838383614be7565b614bdc578260000182908060018154018082558091505060019003906000526020600020016000909190919091505582600001805490508360010160008481526020019081526020016000208190555060019050614be1565b600090505b92915050565b600080836001016000848152602001908152602001600020541415905092915050565b505050565b60008083118290614cbb576040517f08c379a00000000000000000000000000000000000000000000000000000000081526004018080602001828103825283818151815260200191508051906020019080838360005b83811015614c80578082015181840152602081019050614c65565b50505050905090810190601f168015614cad5780820380516001836020036101000a031916815260200191505b509250505060405180910390fd5b506000838581614cc757fe5b049050809150509392505050565b60008083600101600084815260200190815260200160002054905060008114614db15760006001820390506000600186600001805490500390506000866000018281548110614d2057fe5b9060005260206000200154905080876000018481548110614d3d57fe5b9060005260206000200181905550600183018760010160008381526020019081526020016000208190555086600001805480614d7557fe5b60019003818190600052602060002001600090559055866001016000878152602001908152602001600020600090556001945050505050614db7565b60009150505b92915050565b600081836000018054905011614e1e576040517f08c379a0000000000000000000000000000000000000000000000000000000008152600401808060200182810382526022815260200180614e9c6022913960400191505060405180910390fd5b826000018281548110614e2d57fe5b9060005260206000200154905092915050565b6000614e8283836040518060400160405280601e81526020017f536166654d6174683a207375627472616374696f6e206f766572666c6f770000815250614560565b905092915050565b60008160000180549050905091905056fe456e756d657261626c655365743a20696e646578206f7574206f6620626f756e6473416363657373436f6e74726f6c3a2073656e646572206d75737420626520616e2061646d696e20746f206772616e744f776e61626c653a206e6577206f776e657220697320746865207a65726f2061646472657373535442583a20617070726f766520746f20746865207a65726f2061646472657373535442583a207472616e73666572206578636565647320796f7572207472616e73666572206c696d6974416363657373436f6e74726f6c3a2073656e646572206d75737420626520616e2061646d696e20746f207265766f6b65535442583a206275726e20616d6f756e7420657863656564732062616c616e6365535442583a2064656372656173656420616c6c6f77616e63652062656c6f77207a65726f535442583a207472616e7366657220746f20746865207a65726f2061646472657373535442583a207472616e7366657220616d6f756e74206578636565647320616c6c6f77616e6365536166654d6174683a206d756c7469706c69636174696f6e206f766572666c6f77535442583a207472616e7366657220616d6f756e7420657863656564732062616c616e6365535442583a20617070726f76652066726f6d20746865207a65726f2061646472657373535442583a207472616e736665722066726f6d20746865207a65726f2061646472657373416363657373436f6e74726f6c3a2063616e206f6e6c792072656e6f756e636520726f6c657320666f722073656c66a2646970667358221220d95ce049e8648f5c969d5de771e9001ac4761e8a56fc7f02c0960e499ada7ebf64736f6c634300060c0033",
  "immutableReferences": {},
  "source": "// SPDX-License-Identifier: UNLICENSED\npragma solidity >=0.4.22 <0.8.0;\n\nimport \"openzeppelin-solidity/contracts/token/ERC20/IERC20.sol\";\nimport \"openzeppelin-solidity/contracts/math/SafeMath.sol\";\nimport \"openzeppelin-solidity/contracts/utils/EnumerableSet.sol\";\n\nimport \"./Roles.sol\";\n\n/**\n * @title STBXToken\n * @author Stobox Technologies Inc.\n * @dev STBX ERC20 Token\n */\ncontract STBXToken is IERC20, Roles {\n    using SafeMath for uint256;\n\n    using EnumerableSet for EnumerableSet.AddressSet;\n\n    struct TransferLimit {\n        uint256 transferLimit;\n        uint256 lastTransferLimitTimestamp;\n        uint256 allowedToTransfer;\n    }\n\n    mapping(address => uint256) private _balances;\n    mapping(address => mapping(address => uint256)) private _allowances;\n    mapping(address => TransferLimit) private _transferLimits;\n\n    uint256 private _defaultTransferLimit;\n    uint256 private _totalSupply;\n    uint256 private _kDecimals;\n    uint256 private _k;\n\n    string private _name;\n    string private _symbol;\n\n    uint8 private _decimals;\n\n    EnumerableSet.AddressSet private _whitelist;\n    EnumerableSet.AddressSet private _frozenlist;\n\n    // Modifiers\n\n    modifier onlyWhitelisted(address _account) {\n        require(\n            _whitelist.contains(_account),\n            \"STBX: not whitelisted address.\"\n        );\n        _;\n    }\n\n    modifier onlyWithUnfrozenFunds(address _account) {\n        require(\n            _frozenlist.contains(_account) == false,\n            \"STBX: funds are frozen.\"\n        );\n        _;\n    }\n\n    /**\n     * @notice STBXToken simply implements a ERC20 token.\n     */\n    constructor ()\n        Roles(msg.sender)\n        public\n    {\n        _name = \"Stobox Demo Common Stock\";\n        _symbol = \"SDCS1\";\n        _decimals = 0;\n        _kDecimals = 18;\n        _k = 10 ** _kDecimals;\n        _defaultTransferLimit = 1000;\n\n        _mint(msg.sender, 1000000);\n        _whitelist.add(msg.sender);\n    }\n\n    // External functions\n\n     /**\n     * @notice Add an address to the whitelist.\n     * @param _address Address to add to the whitelist.\n     */\n    function addAddressToWhitelist(address _address)\n        external\n        onlyWhitelister\n    {\n        _whitelist.add(_address);\n        _frozenlist.remove(_address);\n    }\n\n    /**\n     * @notice Remove an address from the whitelist.\n     * @param _address Address to remove from the whitelist.\n     */\n    function removeAddressFromWhitelist(address _address)\n        external\n        onlyWhitelister\n    {\n        _whitelist.remove(_address);\n        _frozenlist.add(_address);\n    }\n\n    /**\n     * @notice Freeze all funds at the address.\n     * @param _account Account at which to freeze funds.\n     */\n    function freezeFunds(address _account)\n        external\n        onlyFreezer\n    {\n        _frozenlist.add(_account);\n    }\n\n    /**\n     * @notice Unfreeze all funds at the address.\n     * @param _account Account at which to unfreeze funds.\n     */\n    function unfreezeFunds(address _account)\n        external\n        onlyFreezer\n    {\n        _frozenlist.remove(_account);\n    }\n\n    /**\n     * @notice Minting of new tokens to the address.\n     * @param _account Account where to mint tokens.\n     * @param _amount Amount of tokens to mint.\n     */\n    function mint(address _account, uint256 _amount)\n        external\n        onlySuperAdmin\n        onlyWhitelisted(_account)\n    {\n        _mint(_account, _getNormilizedValue(_amount));\n    }\n\n    /**\n     * @notice Burning of tokens from the address.\n     * @param _account Account where to burn tokens.\n     * @param _amount Amount of tokens to burn.\n     *\n     * Calling conditions:\n     *\n     * - balance of `_account` must be grater or equal than `_amount`.\n     */\n    function burn(address _account, uint256 _amount)\n        external\n        onlySuperAdmin\n    {\n        require(balanceOf(_account) >= _amount, \"STBX: balance too low\");\n        _burn(_account, _getNormilizedValue(_amount));\n    }\n\n    /**\n     * @notice Transfer funds from one address to another.\n     * @param _from Address from which to transfer funds.\n     * @param _where Address where to transfer funds.\n     * @param _amount Amount to transfer.\n     *\n     * Requirements:\n     *\n     * - balance of `_from` must be greater or equal to `_amount`.\n     */\n    function transferFunds(address _from, address _where, uint256 _amount)\n        external\n        onlyTransporter\n        onlyWhitelisted(_where)\n        returns (bool)\n    {\n        require(balanceOf(_from) >= _amount, \"STBX: not enough tokens\");\n\n        _transfer(_from, _where, _getNormilizedValue(_amount));\n\n        return true;\n    }\n\n    /**\n     * @notice Stock split or merge (consolidation).\n     * @param _x The count of shares before split.\n     * @param _y The count of shares after split.\n     * @dev 1-2: one share turns into two. 3-2: three shares turns into two.\n     *\n     * Requirements:\n     *\n     * - `_x` must not be equal to `_y`.\n     * - `_x` and `_y` must be greater than 0.\n     */\n    function splitOrMerge(uint256 _x, uint256 _y)\n        external\n        onlySuperAdmin\n    {\n        require(_x != _y, \"STBX: _x must not be equal to _y\");\n        require(_x > 0, \"STBX: _x must be greater than 0\");\n        require(_y > 0, \"STBX: _y must be greater than 0\");\n\n        _split(_x, _y);\n    }\n\n    /**\n     * @notice Set transfer limit for address.\n     * @param _account Address where to set transfer limit.\n     * @param _transferLimit Daily transfer limit for an `_account`.\n     */\n    function setTransferLimit(address _account, uint256 _transferLimit)\n        external\n        onlyLimiter\n    {\n        _transferLimits[_account].transferLimit = _transferLimit;\n        _transferLimits[_account].allowedToTransfer = _transferLimit;\n        _transferLimits[_account].lastTransferLimitTimestamp = now;\n    }\n\n    // External view functions\n\n    /**\n     * @notice Checking if the address is whitelisted.\n     * @param _address Address to check in the whitelist.\n     * @return Is the address in the whitelist.\n     */\n    function isWhitelistedAddress(address _address)\n        external\n        view\n        returns (bool)\n    {\n        return _whitelist.contains(_address);\n    }\n\n    /**\n     * @notice Checking if the funds are frozen.\n     * @param _account Address to check.\n     * @return Is the funds are frozen.\n     */\n    function isFrozenFunds(address _account)\n        external\n        view\n        returns (bool)\n    {\n        return _frozenlist.contains(_account);\n    }\n\n    // Public functions\n\n    /**\n     * @notice Returns the name of the token.\n     */\n    function name()\n        public\n        view\n        returns (string memory)\n    {\n        return _name;\n    }\n\n    /**\n     * @notice Returns the symbol of the token.\n     */\n    function symbol()\n        public\n        view\n        returns (string memory)\n    {\n        return _symbol;\n    }\n\n    /**\n     * @notice Returns the number of decimals used to get its user representation.\n     */\n    function decimals()\n        public\n        view\n        returns (uint8)\n    {\n        return _decimals;\n    }\n\n    /**\n     * @notice Returns the amount of tokens in existence.\n     */\n    function totalSupply()\n        public\n        view\n        override\n        returns (uint256)\n    {\n        return _totalSupply.mul(_k).div(10 ** _kDecimals);\n    }\n\n    /**\n     * @notice Returns the amount of tokens owned by `_account`.\n     * @param _account Account to check balance.\n     */\n    function balanceOf(address _account)\n        public\n        view\n        override\n        returns (uint256)\n    {\n        return _balances[_account].mul(_k).div(10 ** _kDecimals);\n    }\n\n    /**\n     * @notice Returns transfer limit for `_account`.\n     * Can be defaul value or personally assigned to the `_account` value.\n     * @param _account Account to get transfer limit.\n     */\n    function getTransferLimit(address _account)\n        public\n        view\n        returns (uint256)\n    {\n        if (_transferLimits[_account].transferLimit > 0) {\n            return _transferLimits[_account].transferLimit;\n        }\n\n        return _defaultTransferLimit;\n    }\n\n    /**\n     * @notice Get the number of tokens that can be transferred today\n     * by `_account`. Can be 0 in 2 cases:\n     * a) `_updateTransferLimit` function not called yet;\n     * b) transfer limit was set to 0 by limiter.\n     * @param _account Account to get amount allowed to transfer today.\n     */\n    function getAllowedToTransfer(address _account)\n        public\n        view\n        returns (uint256)\n    {\n        return _transferLimits[_account].allowedToTransfer;\n    }\n\n    /**\n     * @notice Moves `_amount` tokens from the caller's account to `_recipient`.\n     * Emits a {Transfer} event.\n     * @param _recipient Recipient of the tokens.\n     * @param _amount Amount tokens to move.\n     * @return A boolean value indicating whether the operation succeeded.\n     */\n    function transfer(address _recipient, uint256 _amount)\n        public\n        virtual\n        override\n        onlyWhitelisted(msg.sender)\n        onlyWhitelisted(_recipient)\n        onlyWithUnfrozenFunds(msg.sender)\n        returns (bool)\n    {\n        _updateTransferLimit(msg.sender, _amount);\n        _transfer(msg.sender, _recipient, _getNormilizedValue(_amount));\n\n        return true;\n    }\n\n    /**\n     * @notice the remaining number of tokens that `_spender` will be\n     * allowed to spend on behalf of `_owner` through {transferFrom}. This is\n     * zero by default.\n     * @param _owner Owner of tokens.\n     * @param _spender Spender of tokens.\n     */\n    function allowance(address _owner, address _spender)\n        public\n        view\n        virtual\n        override\n        returns (uint256)\n    {\n        return _allowances[_owner][_spender].mul(_k);\n    }\n\n    /**\n     * @notice Sets `_amount` as the allowance of `_spender` over the caller's tokens.\n     * Emits an {Approval} event.\n     * @param _spender Spender of the tokens.\n     * @param _amount Amount of tokens to set as the allowance.\n     * @return A boolean value indicating whether the operation succeeded.\n     */\n    function approve(address _spender, uint256 _amount)\n        public\n        virtual\n        override\n        onlyWhitelisted(msg.sender)\n        onlyWhitelisted(_spender)\n        onlyWithUnfrozenFunds(msg.sender)\n        returns (bool)\n    {\n        _approve(msg.sender, _spender, _getNormilizedValue(_amount));\n\n        return true;\n    }\n\n    /**\n     * @notice Moves `_amount` tokens from `_sender` to `_recipient` using the\n     * allowance mechanism. `_amount` is then deducted from the caller's\n     * allowance.\n     * Emits a {Transfer} event.\n     * @param _sender Spender of tokens.\n     * @param _recipient Recipient of tokens.\n     * @param _amount Amount of tokens to transfer.\n     * @return A boolean value indicating whether the operation succeeded.\n     *\n     * Requirements:\n     *\n     * - `_amount` must be less or equal allowance for the `_sender`.\n     */\n    function transferFrom(address _sender, address _recipient, uint256 _amount)\n        public\n        virtual\n        override\n        onlyWhitelisted(_sender)\n        onlyWhitelisted(_recipient)\n        onlyWithUnfrozenFunds(_sender)\n        returns (bool)\n    {\n        _updateTransferLimit(_sender, _amount);\n        _transfer(_sender, _recipient, _getNormilizedValue(_amount));\n        _approve(_sender, msg.sender, _allowances[_sender][msg.sender].sub(\n            _getNormilizedValue(_amount),\n            \"STBX: transfer amount exceeds allowance\"\n        ));\n\n        return true;\n    }\n\n    /**\n     * @notice Increase allowance for the `_spender`.\n     * @param _spender Spender of tokens.\n     * @param _addedValue Value to add to the allowance for the `_spender`.\n     * @return A boolean value indicating whether the operation succeeded.\n     */\n    function increaseAllowance(address _spender, uint256 _addedValue)\n        public\n        virtual\n        onlyWhitelisted(msg.sender)\n        onlyWhitelisted(_spender)\n        onlyWithUnfrozenFunds(msg.sender)\n        returns (bool)\n    {\n        _approve(msg.sender, _spender, _allowances[msg.sender][_spender].add(\n            _getNormilizedValue(_addedValue)\n        ));\n\n        return true;\n    }\n\n    /**\n     * @notice Decrease allowance for the `_spender`.\n     * @param _spender Spender of tokens.\n     * @param _subtractedValue Value to substruct from the allowance for the `_spender`.\n     * @return A boolean value indicating whether the operation succeeded.\n     *\n     * Requirements:\n     *\n     * - result of substruction must be greater or equal to 0.\n     */\n    function decreaseAllowance(address _spender, uint256 _subtractedValue)\n        public\n        virtual\n        onlyWhitelisted(msg.sender)\n        onlyWhitelisted(_spender)\n        onlyWithUnfrozenFunds(msg.sender)\n        returns (bool)\n    {\n        _approve(msg.sender, _spender, _allowances[msg.sender][_spender].sub(\n            _getNormilizedValue(_subtractedValue),\n            \"STBX: decreased allowance below zero\"\n        ));\n\n        return true;\n    }\n\n    // Internal functions\n\n     /**\n     * @notice Moves tokens `_amount` from `_sender` to `_recipient`.\n     * Emits a {Transfer} event.\n     * @param _sender Sender of tokens.\n     * @param _recipient Recipient of tokens.\n     * @param _amount Amount of tokens to transfer.\n     *\n     * Requirements:\n     *\n     * - `_sender` cannot be the zero address.\n     * - `_recipient` cannot be the zero address.\n     * - `_sender` must have a balance of at least `_amount`.\n     */\n    function _transfer(address _sender, address _recipient, uint256 _amount)\n        internal\n        virtual\n    {\n        require(_sender != address(0), \"STBX: transfer from the zero address\");\n        require(\n            _recipient != address(0),\n            \"STBX: transfer to the zero address\"\n        );\n\n        _beforeTokenTransfer(_sender, _recipient, _amount);\n\n        _balances[_sender] = _balances[_sender].sub(\n            _amount,\n            \"STBX: transfer amount exceeds balance\"\n        );\n        _balances[_recipient] = _balances[_recipient].add(_amount);\n\n        emit Transfer(_sender, _recipient, _amount);\n    }\n\n    /** @notice Creates `_amount` tokens and assigns them to `_account`, increasing\n     * the total supply.\n     * Emits a {Transfer} event with `_from` set to the zero address.\n     * @param _account Account where to mint tokens.\n     * @param _amount Amount of tokens to mint.\n     *\n     * Requirements:\n     *\n     * - `_account` cannot be the zero address.\n     */\n    function _mint(address _account, uint256 _amount)\n        internal\n        virtual\n    {\n        require(_account != address(0), \"STBX: mint to the zero address\");\n\n        _beforeTokenTransfer(address(0), _account, _amount);\n\n        _totalSupply = _totalSupply.add(_amount);\n        _balances[_account] = _balances[_account].add(_amount);\n\n        emit Transfer(address(0), _account, _amount);\n    }\n\n    /**\n     * @notice Destroys `_amount` tokens from `_account`, reducing the\n     * total supply.\n     * Emits a {Transfer} event with `_to` set to the zero address.\n     * @param _account Account where to burn tokens.\n     * @param _amount Amount of tokens to burn.\n     *\n     * Requirements:\n     *\n     * - `_account` cannot be the zero address.\n     * - `_amount` must have at least `amount` tokens.\n     */\n    function _burn(address _account, uint256 _amount)\n        internal\n        virtual\n    {\n        require(_account != address(0), \"STBX: burn from the zero address\");\n\n        _beforeTokenTransfer(_account, address(0), _amount);\n\n        _balances[_account] = _balances[_account].sub(\n            _amount,\n            \"STBX: burn amount exceeds balance\"\n        );\n        _totalSupply = _totalSupply.sub(_amount);\n\n        emit Transfer(_account, address(0), _amount);\n    }\n\n    /**\n     * @notice Sets `_amount` as the allowance of `_spender` over the `_owner` s tokens.\n     * Emits an {Approval} event.\n     * @param _owner Owner of the tokens.\n     * @param _spender Spender of the tokens.\n     * @param _amount Amount of tokens to set as the allowance.\n     *\n     * Requirements:\n     *\n     * - `_owner` cannot be the zero address.\n     * - `_spender` cannot be the zero address.\n     */\n    function _approve(address _owner, address _spender, uint256 _amount)\n        internal\n        virtual\n    {\n        require(_owner != address(0), \"STBX: approve from the zero address\");\n        require(_spender != address(0), \"STBX: approve to the zero address\");\n\n        _allowances[_owner][_spender] = _amount;\n\n        emit Approval(_owner, _spender, _amount);\n    }\n\n    /**\n     * @notice Hook that is called before any transfer of tokens. This includes\n     * minting and burning.\n     * @param _from The address from which tokens will be moved.\n     * @param _to The address where tokens will be moved.\n     * @param _amount Amount of tokens that will be moved.\n     *\n     * Calling conditions:\n     *\n     * - when `_from` and `_to` are both non-zero, `_amount` of ``_from``'s tokens\n     * will be to transferred to `_to`.\n     * - when `_from` is zero, `_amount` tokens will be minted for `_to`.\n     * - when `_to` is zero, `_amount` of ``_from``'s tokens will be burned.\n     * - `_from` and `_to` are never both zero.\n     */\n    function _beforeTokenTransfer(address _from, address _to, uint256 _amount)\n        internal\n        virtual\n    { }\n\n    // Private functions\n\n    /**\n     * @notice Changes the global multiplier during stock splits and consolidations.\n     * @param _x First coefficient.\n     * @param _y Second coefficient.\n     */\n    function _split(uint256 _x, uint256 _y)\n        private\n    {\n        _k = _k.mul(_y.mul(10 ** _kDecimals).div(_x));\n        _k = _k.div(10 ** 18);\n    }\n\n    /**\n     * @notice Getting normalized value depends on coefficient.\n     * @param _value Value to normilize.\n     * @return Normilized value.\n     */\n    function _getNormilizedValue(uint256 _value)\n        private\n        returns (uint256)\n    {\n        return _value.div(_k.div(10 ** _kDecimals));\n    }\n\n    /**\n     * @notice Update transfer limit for `_account` before each operation with\n     * tokens.\n     * @param _account Account to update transfer limit if needed.\n     * @param _amount Amount to substruct from transfer limit after updating.\n     */\n    function _updateTransferLimit(address _account, uint256 _amount)\n        private\n    {\n        if (_transferLimits[_account].lastTransferLimitTimestamp + 1 days < now) {\n            _transferLimits[_account].lastTransferLimitTimestamp = now;\n\n            if (_transferLimits[_account].transferLimit > 0) {\n                _transferLimits[_account].allowedToTransfer =\n                    _transferLimits[_account].transferLimit;\n            }\n            else {\n                _transferLimits[_account].allowedToTransfer = _defaultTransferLimit;\n            }\n        }\n\n        _transferLimits[_account].allowedToTransfer =\n            _transferLimits[_account].allowedToTransfer.sub(\n                _amount,\n                \"STBX: transfer exceeds your transfer limit\"\n            );\n    }\n\n}\n",
  "sourcePath": "/home/jenja/stobox-contract/contracts/STBX.sol",
  "compiler": {
    "name": "solc",
    "version": "0.6.12+commit.27d51765.Emscripten.clang"
  },
  "schemaVersion": "3.2.5",
  "updatedAt": "2020-11-11T16:19:39.833Z",
  "networkType": "ethereum",
  "devdoc": {
    "author": "Stobox Technologies Inc.",
    "details": "STBX ERC20 Token",
    "kind": "dev",
    "methods": {
      "addAddressToWhitelist(address)": {
        "params": {
          "_address": "Address to add to the whitelist."
        }
      },
      "addFreezer(address)": {
        "params": {
          "_address": "Address for assigning the freezer role."
        }
      },
      "addLimiter(address)": {
        "params": {
          "_address": "Address for assigning the limiter role."
        }
      },
      "addSuperAdmin(address)": {
        "params": {
          "_address": "Address for assigning the super admin role."
        }
      },
      "addTransporter(address)": {
        "params": {
          "_address": "Address for assigning the transporter role."
        }
      },
      "addVoter(address)": {
        "params": {
          "_address": "Address for assigning the voter role."
        }
      },
      "addWhitelister(address)": {
        "params": {
          "_address": "Address for assigning the whitelister role."
        }
      },
      "allowance(address,address)": {
        "params": {
          "_owner": "Owner of tokens.",
          "_spender": "Spender of tokens."
        }
      },
      "approve(address,uint256)": {
        "params": {
          "_amount": "Amount of tokens to set as the allowance.",
          "_spender": "Spender of the tokens."
        },
        "returns": {
          "_0": "A boolean value indicating whether the operation succeeded."
        }
      },
      "balanceOf(address)": {
        "params": {
          "_account": "Account to check balance."
        }
      },
      "burn(address,uint256)": {
        "params": {
          "_account": "Account where to burn tokens.",
          "_amount": "Amount of tokens to burn. Calling conditions: - balance of `_account` must be grater or equal than `_amount`."
        }
      },
      "decreaseAllowance(address,uint256)": {
        "params": {
          "_spender": "Spender of tokens.",
          "_subtractedValue": "Value to substruct from the allowance for the `_spender`."
        },
        "returns": {
          "_0": "A boolean value indicating whether the operation succeeded. Requirements: - result of substruction must be greater or equal to 0."
        }
      },
      "freezeFunds(address)": {
        "params": {
          "_account": "Account at which to freeze funds."
        }
      },
      "getAllowedToTransfer(address)": {
        "params": {
          "_account": "Account to get amount allowed to transfer today."
        }
      },
      "getRoleAdmin(bytes32)": {
        "details": "Returns the admin role that controls `role`. See {grantRole} and {revokeRole}. To change a role's admin, use {_setRoleAdmin}."
      },
      "getRoleMember(bytes32,uint256)": {
        "details": "Returns one of the accounts that have `role`. `index` must be a value between 0 and {getRoleMemberCount}, non-inclusive. Role bearers are not sorted in any particular way, and their ordering may change at any point. WARNING: When using {getRoleMember} and {getRoleMemberCount}, make sure you perform all queries on the same block. See the following https://forum.openzeppelin.com/t/iterating-over-elements-on-enumerableset-in-openzeppelin-contracts/2296[forum post] for more information."
      },
      "getRoleMemberCount(bytes32)": {
        "details": "Returns the number of accounts that have `role`. Can be used together with {getRoleMember} to enumerate all bearers of a role."
      },
      "getTransferLimit(address)": {
        "params": {
          "_account": "Account to get transfer limit."
        }
      },
      "grantRole(bytes32,address)": {
        "details": "Grants `role` to `account`. If `account` had not been already granted `role`, emits a {RoleGranted} event. Requirements: - the caller must have ``role``'s admin role."
      },
      "hasRole(bytes32,address)": {
        "details": "Returns `true` if `account` has been granted `role`."
      },
      "increaseAllowance(address,uint256)": {
        "params": {
          "_addedValue": "Value to add to the allowance for the `_spender`.",
          "_spender": "Spender of tokens."
        },
        "returns": {
          "_0": "A boolean value indicating whether the operation succeeded."
        }
      },
      "isFreezer(address)": {
        "params": {
          "_address": "Address for checking."
        }
      },
      "isFrozenFunds(address)": {
        "params": {
          "_account": "Address to check."
        },
        "returns": {
          "_0": "Is the funds are frozen."
        }
      },
      "isLimiter(address)": {
        "params": {
          "_address": "Address for checking."
        }
      },
      "isSuperAdmin(address)": {
        "params": {
          "_address": "Address for checking."
        }
      },
      "isTransporter(address)": {
        "params": {
          "_address": "Address for checking."
        }
      },
      "isVoter(address)": {
        "params": {
          "_address": "Address for checking."
        }
      },
      "isWhitelistedAddress(address)": {
        "params": {
          "_address": "Address to check in the whitelist."
        },
        "returns": {
          "_0": "Is the address in the whitelist."
        }
      },
      "isWhitelister(address)": {
        "params": {
          "_address": "Address for checking."
        }
      },
      "mint(address,uint256)": {
        "params": {
          "_account": "Account where to mint tokens.",
          "_amount": "Amount of tokens to mint."
        }
      },
      "owner()": {
        "details": "Returns the address of the current owner."
      },
      "removeAddressFromWhitelist(address)": {
        "params": {
          "_address": "Address to remove from the whitelist."
        }
      },
      "removeFreezer(address)": {
        "params": {
          "_address": "Address for removing the freezer role."
        }
      },
      "removeLimiter(address)": {
        "params": {
          "_address": "Address for removing the limiter role."
        }
      },
      "removeTransporter(address)": {
        "params": {
          "_address": "Address for removing the transporter role."
        }
      },
      "removeVoter(address)": {
        "params": {
          "_address": "Address for removing the voter role."
        }
      },
      "removeWhitelister(address)": {
        "params": {
          "_address": "Address for removing the whitelister role."
        }
      },
      "renounceOwnership()": {
        "details": "Leaves the contract without owner. It will not be possible to call `onlyOwner` functions anymore. Can only be called by the current owner. NOTE: Renouncing ownership will leave the contract without an owner, thereby removing any functionality that is only available to the owner."
      },
      "renounceRole(bytes32,address)": {
        "details": "Revokes `role` from the calling account. Roles are often managed via {grantRole} and {revokeRole}: this function's purpose is to provide a mechanism for accounts to lose their privileges if they are compromised (such as when a trusted device is misplaced). If the calling account had been granted `role`, emits a {RoleRevoked} event. Requirements: - the caller must be `account`."
      },
      "revokeRole(bytes32,address)": {
        "details": "Revokes `role` from `account`. If `account` had been granted `role`, emits a {RoleRevoked} event. Requirements: - the caller must have ``role``'s admin role."
      },
      "setTransferLimit(address,uint256)": {
        "params": {
          "_account": "Address where to set transfer limit.",
          "_transferLimit": "Daily transfer limit for an `_account`."
        }
      },
      "splitOrMerge(uint256,uint256)": {
        "details": "1-2: one share turns into two. 3-2: three shares turns into two. Requirements: - `_x` must not be equal to `_y`. - `_x` and `_y` must be greater than 0.",
        "params": {
          "_x": "The count of shares before split.",
          "_y": "The count of shares after split."
        }
      },
      "transfer(address,uint256)": {
        "params": {
          "_amount": "Amount tokens to move.",
          "_recipient": "Recipient of the tokens."
        },
        "returns": {
          "_0": "A boolean value indicating whether the operation succeeded."
        }
      },
      "transferFrom(address,address,uint256)": {
        "params": {
          "_amount": "Amount of tokens to transfer.",
          "_recipient": "Recipient of tokens.",
          "_sender": "Spender of tokens."
        },
        "returns": {
          "_0": "A boolean value indicating whether the operation succeeded. Requirements: - `_amount` must be less or equal allowance for the `_sender`."
        }
      },
      "transferFunds(address,address,uint256)": {
        "params": {
          "_amount": "Amount to transfer. Requirements: - balance of `_from` must be greater or equal to `_amount`.",
          "_from": "Address from which to transfer funds.",
          "_where": "Address where to transfer funds."
        }
      },
      "transferOwnership(address)": {
        "details": "Transfers ownership of the contract to a new account (`newOwner`). Can only be called by the current owner."
      },
      "unfreezeFunds(address)": {
        "params": {
          "_account": "Account at which to unfreeze funds."
        }
      }
    },
    "title": "STBXToken",
    "version": 1
  },
  "userdoc": {
    "kind": "user",
    "methods": {
      "addAddressToWhitelist(address)": {
        "notice": "Add an address to the whitelist."
      },
      "addFreezer(address)": {
        "notice": "Add the freezer role for the address."
      },
      "addLimiter(address)": {
        "notice": "Add the limiter role for the address."
      },
      "addSuperAdmin(address)": {
        "notice": "Add the super admin role for the address."
      },
      "addTransporter(address)": {
        "notice": "Add the transporter role for the address."
      },
      "addVoter(address)": {
        "notice": "Add the voter role for the address."
      },
      "addWhitelister(address)": {
        "notice": "Add the whitelister role for the address."
      },
      "allowance(address,address)": {
        "notice": "the remaining number of tokens that `_spender` will be allowed to spend on behalf of `_owner` through {transferFrom}. This is zero by default."
      },
      "approve(address,uint256)": {
        "notice": "Sets `_amount` as the allowance of `_spender` over the caller's tokens. Emits an {Approval} event."
      },
      "balanceOf(address)": {
        "notice": "Returns the amount of tokens owned by `_account`."
      },
      "burn(address,uint256)": {
        "notice": "Burning of tokens from the address."
      },
      "constructor": "STBXToken simply implements a ERC20 token.",
      "decimals()": {
        "notice": "Returns the number of decimals used to get its user representation."
      },
      "decreaseAllowance(address,uint256)": {
        "notice": "Decrease allowance for the `_spender`."
      },
      "freezeFunds(address)": {
        "notice": "Freeze all funds at the address."
      },
      "getAllowedToTransfer(address)": {
        "notice": "Get the number of tokens that can be transferred today by `_account`. Can be 0 in 2 cases: a) `_updateTransferLimit` function not called yet; b) transfer limit was set to 0 by limiter."
      },
      "getTransferLimit(address)": {
        "notice": "Returns transfer limit for `_account`. Can be defaul value or personally assigned to the `_account` value."
      },
      "increaseAllowance(address,uint256)": {
        "notice": "Increase allowance for the `_spender`."
      },
      "isFreezer(address)": {
        "notice": "Checks if the address is assigned the freezer role."
      },
      "isFrozenFunds(address)": {
        "notice": "Checking if the funds are frozen."
      },
      "isLimiter(address)": {
        "notice": "Checks if the address is assigned the limiter role."
      },
      "isSuperAdmin(address)": {
        "notice": "Checks if the address is assigned the super admin role."
      },
      "isTransporter(address)": {
        "notice": "Checks if the address is assigned the transporter role."
      },
      "isVoter(address)": {
        "notice": "Checks if the address is assigned the voter role."
      },
      "isWhitelistedAddress(address)": {
        "notice": "Checking if the address is whitelisted."
      },
      "isWhitelister(address)": {
        "notice": "Checks if the address is assigned the whitelister role."
      },
      "mint(address,uint256)": {
        "notice": "Minting of new tokens to the address."
      },
      "name()": {
        "notice": "Returns the name of the token."
      },
      "removeAddressFromWhitelist(address)": {
        "notice": "Remove an address from the whitelist."
      },
      "removeFreezer(address)": {
        "notice": "Remove the freezer role for the address."
      },
      "removeLimiter(address)": {
        "notice": "Remove the limiter role for the address."
      },
      "removeTransporter(address)": {
        "notice": "Remove the transporter role for the address."
      },
      "removeVoter(address)": {
        "notice": "Remove the voter role for the address."
      },
      "removeWhitelister(address)": {
        "notice": "Remove the whitelister role for the address."
      },
      "renounceSuperAdmin()": {
        "notice": "Renouncement of supera dmin role."
      },
      "setTransferLimit(address,uint256)": {
        "notice": "Set transfer limit for address."
      },
      "splitOrMerge(uint256,uint256)": {
        "notice": "Stock split or merge (consolidation)."
      },
      "symbol()": {
        "notice": "Returns the symbol of the token."
      },
      "totalSupply()": {
        "notice": "Returns the amount of tokens in existence."
      },
      "transfer(address,uint256)": {
        "notice": "Moves `_amount` tokens from the caller's account to `_recipient`. Emits a {Transfer} event."
      },
      "transferFrom(address,address,uint256)": {
        "notice": "Moves `_amount` tokens from `_sender` to `_recipient` using the allowance mechanism. `_amount` is then deducted from the caller's allowance. Emits a {Transfer} event."
      },
      "transferFunds(address,address,uint256)": {
        "notice": "Transfer funds from one address to another."
      },
      "unfreezeFunds(address)": {
        "notice": "Unfreeze all funds at the address."
      }
    },
    "version": 1
  }
}