{
  "contractName": "STBXToken",
  "abi": [
    {
      "inputs": [],
      "stateMutability": "nonpayable",
      "type": "constructor"
    },
    {
      "anonymous": false,
      "inputs": [
        {
          "indexed": true,
          "internalType": "address",
          "name": "owner",
          "type": "address"
        },
        {
          "indexed": true,
          "internalType": "address",
          "name": "spender",
          "type": "address"
        },
        {
          "indexed": false,
          "internalType": "uint256",
          "name": "value",
          "type": "uint256"
        }
      ],
      "name": "Approval",
      "type": "event"
    },
    {
      "anonymous": false,
      "inputs": [
        {
          "indexed": true,
          "internalType": "address",
          "name": "previousOwner",
          "type": "address"
        },
        {
          "indexed": true,
          "internalType": "address",
          "name": "newOwner",
          "type": "address"
        }
      ],
      "name": "OwnershipTransferred",
      "type": "event"
    },
    {
      "anonymous": false,
      "inputs": [
        {
          "indexed": true,
          "internalType": "bytes32",
          "name": "role",
          "type": "bytes32"
        },
        {
          "indexed": true,
          "internalType": "bytes32",
          "name": "previousAdminRole",
          "type": "bytes32"
        },
        {
          "indexed": true,
          "internalType": "bytes32",
          "name": "newAdminRole",
          "type": "bytes32"
        }
      ],
      "name": "RoleAdminChanged",
      "type": "event"
    },
    {
      "anonymous": false,
      "inputs": [
        {
          "indexed": true,
          "internalType": "bytes32",
          "name": "role",
          "type": "bytes32"
        },
        {
          "indexed": true,
          "internalType": "address",
          "name": "account",
          "type": "address"
        },
        {
          "indexed": true,
          "internalType": "address",
          "name": "sender",
          "type": "address"
        }
      ],
      "name": "RoleGranted",
      "type": "event"
    },
    {
      "anonymous": false,
      "inputs": [
        {
          "indexed": true,
          "internalType": "bytes32",
          "name": "role",
          "type": "bytes32"
        },
        {
          "indexed": true,
          "internalType": "address",
          "name": "account",
          "type": "address"
        },
        {
          "indexed": true,
          "internalType": "address",
          "name": "sender",
          "type": "address"
        }
      ],
      "name": "RoleRevoked",
      "type": "event"
    },
    {
      "anonymous": false,
      "inputs": [
        {
          "indexed": true,
          "internalType": "address",
          "name": "from",
          "type": "address"
        },
        {
          "indexed": true,
          "internalType": "address",
          "name": "to",
          "type": "address"
        },
        {
          "indexed": false,
          "internalType": "uint256",
          "name": "value",
          "type": "uint256"
        }
      ],
      "name": "Transfer",
      "type": "event"
    },
    {
      "inputs": [],
      "name": "DEFAULT_ADMIN_ROLE",
      "outputs": [
        {
          "internalType": "bytes32",
          "name": "",
          "type": "bytes32"
        }
      ],
      "stateMutability": "view",
      "type": "function",
      "constant": true
    },
    {
      "inputs": [],
      "name": "FREEZER_ROLE",
      "outputs": [
        {
          "internalType": "bytes32",
          "name": "",
          "type": "bytes32"
        }
      ],
      "stateMutability": "view",
      "type": "function",
      "constant": true
    },
    {
      "inputs": [],
      "name": "LIMITER_ROLE",
      "outputs": [
        {
          "internalType": "bytes32",
          "name": "",
          "type": "bytes32"
        }
      ],
      "stateMutability": "view",
      "type": "function",
      "constant": true
    },
    {
      "inputs": [],
      "name": "TRANSPORTER_ROLE",
      "outputs": [
        {
          "internalType": "bytes32",
          "name": "",
          "type": "bytes32"
        }
      ],
      "stateMutability": "view",
      "type": "function",
      "constant": true
    },
    {
      "inputs": [],
      "name": "VOTER_ROLE",
      "outputs": [
        {
          "internalType": "bytes32",
          "name": "",
          "type": "bytes32"
        }
      ],
      "stateMutability": "view",
      "type": "function",
      "constant": true
    },
    {
      "inputs": [],
      "name": "WHITELISTER_ROLE",
      "outputs": [
        {
          "internalType": "bytes32",
          "name": "",
          "type": "bytes32"
        }
      ],
      "stateMutability": "view",
      "type": "function",
      "constant": true
    },
    {
      "inputs": [],
      "name": "_isDisabledWitelist",
      "outputs": [
        {
          "internalType": "bool",
          "name": "",
          "type": "bool"
        }
      ],
      "stateMutability": "view",
      "type": "function",
      "constant": true
    },
    {
      "inputs": [
        {
          "internalType": "address",
          "name": "_address",
          "type": "address"
        }
      ],
      "name": "addFreezer",
      "outputs": [],
      "stateMutability": "nonpayable",
      "type": "function"
    },
    {
      "inputs": [
        {
          "internalType": "address",
          "name": "_address",
          "type": "address"
        }
      ],
      "name": "addLimiter",
      "outputs": [],
      "stateMutability": "nonpayable",
      "type": "function"
    },
    {
      "inputs": [
        {
          "internalType": "address",
          "name": "_address",
          "type": "address"
        }
      ],
      "name": "addSuperAdmin",
      "outputs": [],
      "stateMutability": "nonpayable",
      "type": "function"
    },
    {
      "inputs": [
        {
          "internalType": "address",
          "name": "_address",
          "type": "address"
        }
      ],
      "name": "addTransporter",
      "outputs": [],
      "stateMutability": "nonpayable",
      "type": "function"
    },
    {
      "inputs": [
        {
          "internalType": "address",
          "name": "_address",
          "type": "address"
        }
      ],
      "name": "addVoter",
      "outputs": [],
      "stateMutability": "nonpayable",
      "type": "function"
    },
    {
      "inputs": [
        {
          "internalType": "address",
          "name": "_address",
          "type": "address"
        }
      ],
      "name": "addWhitelister",
      "outputs": [],
      "stateMutability": "nonpayable",
      "type": "function"
    },
    {
      "inputs": [
        {
          "internalType": "bytes32",
          "name": "role",
          "type": "bytes32"
        }
      ],
      "name": "getRoleAdmin",
      "outputs": [
        {
          "internalType": "bytes32",
          "name": "",
          "type": "bytes32"
        }
      ],
      "stateMutability": "view",
      "type": "function",
      "constant": true
    },
    {
      "inputs": [
        {
          "internalType": "bytes32",
          "name": "role",
          "type": "bytes32"
        },
        {
          "internalType": "uint256",
          "name": "index",
          "type": "uint256"
        }
      ],
      "name": "getRoleMember",
      "outputs": [
        {
          "internalType": "address",
          "name": "",
          "type": "address"
        }
      ],
      "stateMutability": "view",
      "type": "function",
      "constant": true
    },
    {
      "inputs": [
        {
          "internalType": "bytes32",
          "name": "role",
          "type": "bytes32"
        }
      ],
      "name": "getRoleMemberCount",
      "outputs": [
        {
          "internalType": "uint256",
          "name": "",
          "type": "uint256"
        }
      ],
      "stateMutability": "view",
      "type": "function",
      "constant": true
    },
    {
      "inputs": [
        {
          "internalType": "bytes32",
          "name": "role",
          "type": "bytes32"
        },
        {
          "internalType": "address",
          "name": "account",
          "type": "address"
        }
      ],
      "name": "grantRole",
      "outputs": [],
      "stateMutability": "nonpayable",
      "type": "function"
    },
    {
      "inputs": [
        {
          "internalType": "bytes32",
          "name": "role",
          "type": "bytes32"
        },
        {
          "internalType": "address",
          "name": "account",
          "type": "address"
        }
      ],
      "name": "hasRole",
      "outputs": [
        {
          "internalType": "bool",
          "name": "",
          "type": "bool"
        }
      ],
      "stateMutability": "view",
      "type": "function",
      "constant": true
    },
    {
      "inputs": [
        {
          "internalType": "address",
          "name": "_address",
          "type": "address"
        }
      ],
      "name": "isFreezer",
      "outputs": [
        {
          "internalType": "bool",
          "name": "",
          "type": "bool"
        }
      ],
      "stateMutability": "view",
      "type": "function",
      "constant": true
    },
    {
      "inputs": [
        {
          "internalType": "address",
          "name": "_address",
          "type": "address"
        }
      ],
      "name": "isLimiter",
      "outputs": [
        {
          "internalType": "bool",
          "name": "",
          "type": "bool"
        }
      ],
      "stateMutability": "view",
      "type": "function",
      "constant": true
    },
    {
      "inputs": [
        {
          "internalType": "address",
          "name": "_address",
          "type": "address"
        }
      ],
      "name": "isSuperAdmin",
      "outputs": [
        {
          "internalType": "bool",
          "name": "",
          "type": "bool"
        }
      ],
      "stateMutability": "view",
      "type": "function",
      "constant": true
    },
    {
      "inputs": [
        {
          "internalType": "address",
          "name": "_address",
          "type": "address"
        }
      ],
      "name": "isTransporter",
      "outputs": [
        {
          "internalType": "bool",
          "name": "",
          "type": "bool"
        }
      ],
      "stateMutability": "view",
      "type": "function",
      "constant": true
    },
    {
      "inputs": [
        {
          "internalType": "address",
          "name": "_address",
          "type": "address"
        }
      ],
      "name": "isVoter",
      "outputs": [
        {
          "internalType": "bool",
          "name": "",
          "type": "bool"
        }
      ],
      "stateMutability": "view",
      "type": "function",
      "constant": true
    },
    {
      "inputs": [
        {
          "internalType": "address",
          "name": "_address",
          "type": "address"
        }
      ],
      "name": "isWhitelister",
      "outputs": [
        {
          "internalType": "bool",
          "name": "",
          "type": "bool"
        }
      ],
      "stateMutability": "view",
      "type": "function",
      "constant": true
    },
    {
      "inputs": [],
      "name": "owner",
      "outputs": [
        {
          "internalType": "address",
          "name": "",
          "type": "address"
        }
      ],
      "stateMutability": "view",
      "type": "function",
      "constant": true
    },
    {
      "inputs": [
        {
          "internalType": "address",
          "name": "_address",
          "type": "address"
        }
      ],
      "name": "removeFreezer",
      "outputs": [],
      "stateMutability": "nonpayable",
      "type": "function"
    },
    {
      "inputs": [
        {
          "internalType": "address",
          "name": "_address",
          "type": "address"
        }
      ],
      "name": "removeLimiter",
      "outputs": [],
      "stateMutability": "nonpayable",
      "type": "function"
    },
    {
      "inputs": [
        {
          "internalType": "address",
          "name": "_address",
          "type": "address"
        }
      ],
      "name": "removeTransporter",
      "outputs": [],
      "stateMutability": "nonpayable",
      "type": "function"
    },
    {
      "inputs": [
        {
          "internalType": "address",
          "name": "_address",
          "type": "address"
        }
      ],
      "name": "removeVoter",
      "outputs": [],
      "stateMutability": "nonpayable",
      "type": "function"
    },
    {
      "inputs": [
        {
          "internalType": "address",
          "name": "_address",
          "type": "address"
        }
      ],
      "name": "removeWhitelister",
      "outputs": [],
      "stateMutability": "nonpayable",
      "type": "function"
    },
    {
      "inputs": [],
      "name": "renounceOwnership",
      "outputs": [],
      "stateMutability": "nonpayable",
      "type": "function"
    },
    {
      "inputs": [
        {
          "internalType": "bytes32",
          "name": "role",
          "type": "bytes32"
        },
        {
          "internalType": "address",
          "name": "account",
          "type": "address"
        }
      ],
      "name": "renounceRole",
      "outputs": [],
      "stateMutability": "nonpayable",
      "type": "function"
    },
    {
      "inputs": [],
      "name": "renounceSuperAdmin",
      "outputs": [],
      "stateMutability": "nonpayable",
      "type": "function"
    },
    {
      "inputs": [
        {
          "internalType": "bytes32",
          "name": "role",
          "type": "bytes32"
        },
        {
          "internalType": "address",
          "name": "account",
          "type": "address"
        }
      ],
      "name": "revokeRole",
      "outputs": [],
      "stateMutability": "nonpayable",
      "type": "function"
    },
    {
      "inputs": [
        {
          "internalType": "address",
          "name": "newOwner",
          "type": "address"
        }
      ],
      "name": "transferOwnership",
      "outputs": [],
      "stateMutability": "nonpayable",
      "type": "function"
    },
    {
      "inputs": [
        {
          "internalType": "bool",
          "name": "_value",
          "type": "bool"
        }
      ],
      "name": "toggleOpenWhitelist",
      "outputs": [],
      "stateMutability": "nonpayable",
      "type": "function"
    },
    {
      "inputs": [
        {
          "internalType": "address",
          "name": "_address",
          "type": "address"
        }
      ],
      "name": "addAddressToWhitelist",
      "outputs": [],
      "stateMutability": "nonpayable",
      "type": "function"
    },
    {
      "inputs": [
        {
          "internalType": "address",
          "name": "_address",
          "type": "address"
        }
      ],
      "name": "removeAddressFromWhitelist",
      "outputs": [],
      "stateMutability": "nonpayable",
      "type": "function"
    },
    {
      "inputs": [
        {
          "internalType": "address",
          "name": "_account",
          "type": "address"
        }
      ],
      "name": "freezeFunds",
      "outputs": [],
      "stateMutability": "nonpayable",
      "type": "function"
    },
    {
      "inputs": [
        {
          "internalType": "address",
          "name": "_account",
          "type": "address"
        }
      ],
      "name": "unfreezeFunds",
      "outputs": [],
      "stateMutability": "nonpayable",
      "type": "function"
    },
    {
      "inputs": [
        {
          "internalType": "address",
          "name": "_account",
          "type": "address"
        },
        {
          "internalType": "uint256",
          "name": "_amount",
          "type": "uint256"
        }
      ],
      "name": "mint",
      "outputs": [],
      "stateMutability": "nonpayable",
      "type": "function"
    },
    {
      "inputs": [
        {
          "internalType": "address",
          "name": "_account",
          "type": "address"
        },
        {
          "internalType": "uint256",
          "name": "_amount",
          "type": "uint256"
        }
      ],
      "name": "burn",
      "outputs": [],
      "stateMutability": "nonpayable",
      "type": "function"
    },
    {
      "inputs": [
        {
          "internalType": "address",
          "name": "_from",
          "type": "address"
        },
        {
          "internalType": "address",
          "name": "_where",
          "type": "address"
        },
        {
          "internalType": "uint256",
          "name": "_amount",
          "type": "uint256"
        }
      ],
      "name": "transferFunds",
      "outputs": [
        {
          "internalType": "bool",
          "name": "",
          "type": "bool"
        }
      ],
      "stateMutability": "nonpayable",
      "type": "function"
    },
    {
      "inputs": [
        {
          "internalType": "uint256",
          "name": "_x",
          "type": "uint256"
        },
        {
          "internalType": "uint256",
          "name": "_y",
          "type": "uint256"
        }
      ],
      "name": "splitOrMerge",
      "outputs": [],
      "stateMutability": "nonpayable",
      "type": "function"
    },
    {
      "inputs": [
        {
          "internalType": "address",
          "name": "_account",
          "type": "address"
        },
        {
          "internalType": "uint256",
          "name": "_transferLimit",
          "type": "uint256"
        }
      ],
      "name": "setTransferLimit",
      "outputs": [],
      "stateMutability": "nonpayable",
      "type": "function"
    },
    {
      "inputs": [
        {
          "internalType": "address",
          "name": "_address",
          "type": "address"
        }
      ],
      "name": "isWhitelistedAddress",
      "outputs": [
        {
          "internalType": "bool",
          "name": "",
          "type": "bool"
        }
      ],
      "stateMutability": "view",
      "type": "function",
      "constant": true
    },
    {
      "inputs": [
        {
          "internalType": "address",
          "name": "_account",
          "type": "address"
        }
      ],
      "name": "isFrozenFunds",
      "outputs": [
        {
          "internalType": "bool",
          "name": "",
          "type": "bool"
        }
      ],
      "stateMutability": "view",
      "type": "function",
      "constant": true
    },
    {
      "inputs": [],
      "name": "getK",
      "outputs": [
        {
          "internalType": "uint256",
          "name": "",
          "type": "uint256"
        }
      ],
      "stateMutability": "view",
      "type": "function",
      "constant": true
    },
    {
      "inputs": [],
      "name": "name",
      "outputs": [
        {
          "internalType": "string",
          "name": "",
          "type": "string"
        }
      ],
      "stateMutability": "view",
      "type": "function",
      "constant": true
    },
    {
      "inputs": [],
      "name": "symbol",
      "outputs": [
        {
          "internalType": "string",
          "name": "",
          "type": "string"
        }
      ],
      "stateMutability": "view",
      "type": "function",
      "constant": true
    },
    {
      "inputs": [],
      "name": "decimals",
      "outputs": [
        {
          "internalType": "uint8",
          "name": "",
          "type": "uint8"
        }
      ],
      "stateMutability": "view",
      "type": "function",
      "constant": true
    },
    {
      "inputs": [],
      "name": "totalSupply",
      "outputs": [
        {
          "internalType": "uint256",
          "name": "",
          "type": "uint256"
        }
      ],
      "stateMutability": "view",
      "type": "function",
      "constant": true
    },
    {
      "inputs": [
        {
          "internalType": "address",
          "name": "_account",
          "type": "address"
        }
      ],
      "name": "balanceOf",
      "outputs": [
        {
          "internalType": "uint256",
          "name": "",
          "type": "uint256"
        }
      ],
      "stateMutability": "view",
      "type": "function",
      "constant": true
    },
    {
      "inputs": [
        {
          "internalType": "address",
          "name": "_account",
          "type": "address"
        }
      ],
      "name": "getTransferLimit",
      "outputs": [
        {
          "internalType": "uint256",
          "name": "",
          "type": "uint256"
        }
      ],
      "stateMutability": "view",
      "type": "function",
      "constant": true
    },
    {
      "inputs": [
        {
          "internalType": "address",
          "name": "_account",
          "type": "address"
        }
      ],
      "name": "getAllowedToTransfer",
      "outputs": [
        {
          "internalType": "uint256",
          "name": "",
          "type": "uint256"
        }
      ],
      "stateMutability": "view",
      "type": "function",
      "constant": true
    },
    {
      "inputs": [
        {
          "internalType": "address",
          "name": "_recipient",
          "type": "address"
        },
        {
          "internalType": "uint256",
          "name": "_amount",
          "type": "uint256"
        }
      ],
      "name": "transfer",
      "outputs": [
        {
          "internalType": "bool",
          "name": "",
          "type": "bool"
        }
      ],
      "stateMutability": "nonpayable",
      "type": "function"
    },
    {
      "inputs": [
        {
          "internalType": "address",
          "name": "_owner",
          "type": "address"
        },
        {
          "internalType": "address",
          "name": "_spender",
          "type": "address"
        }
      ],
      "name": "allowance",
      "outputs": [
        {
          "internalType": "uint256",
          "name": "",
          "type": "uint256"
        }
      ],
      "stateMutability": "view",
      "type": "function",
      "constant": true
    },
    {
      "inputs": [
        {
          "internalType": "address",
          "name": "_spender",
          "type": "address"
        },
        {
          "internalType": "uint256",
          "name": "_amount",
          "type": "uint256"
        }
      ],
      "name": "approve",
      "outputs": [
        {
          "internalType": "bool",
          "name": "",
          "type": "bool"
        }
      ],
      "stateMutability": "nonpayable",
      "type": "function"
    },
    {
      "inputs": [
        {
          "internalType": "address",
          "name": "_sender",
          "type": "address"
        },
        {
          "internalType": "address",
          "name": "_recipient",
          "type": "address"
        },
        {
          "internalType": "uint256",
          "name": "_amount",
          "type": "uint256"
        }
      ],
      "name": "transferFrom",
      "outputs": [
        {
          "internalType": "bool",
          "name": "",
          "type": "bool"
        }
      ],
      "stateMutability": "nonpayable",
      "type": "function"
    },
    {
      "inputs": [
        {
          "internalType": "address",
          "name": "_spender",
          "type": "address"
        },
        {
          "internalType": "uint256",
          "name": "_addedValue",
          "type": "uint256"
        }
      ],
      "name": "increaseAllowance",
      "outputs": [
        {
          "internalType": "bool",
          "name": "",
          "type": "bool"
        }
      ],
      "stateMutability": "nonpayable",
      "type": "function"
    },
    {
      "inputs": [
        {
          "internalType": "address",
          "name": "_spender",
          "type": "address"
        },
        {
          "internalType": "uint256",
          "name": "_subtractedValue",
          "type": "uint256"
        }
      ],
      "name": "decreaseAllowance",
      "outputs": [
        {
          "internalType": "bool",
          "name": "",
          "type": "bool"
        }
      ],
      "stateMutability": "nonpayable",
      "type": "function"
    }
  ],
  "bytecode": "0x60806040523480156200001157600080fd5b5033600062000025620002ed60201b60201c565b9050806000806101000a81548173ffffffffffffffffffffffffffffffffffffffff021916908373ffffffffffffffffffffffffffffffffffffffff1602179055508073ffffffffffffffffffffffffffffffffffffffff16600073ffffffffffffffffffffffffffffffffffffffff167f8be0079c531659141344cd1fd0a4f28419497f9722a3daafe3b4186f6b6457e060405160405180910390a350620000d86000801b82620002f560201b60201c565b6200010d7f8619cecd8b9e095ab43867f5b69d492180450fe862e6b50bfbfb24b75dd84c8a6000801b6200030b60201b60201c565b620001427f92de27771f92d6942691d73358b3a4673e4880de8356f8f2cf452be87e02d3636000801b6200030b60201b60201c565b620001777fddaa901e2fe3bda354fe0ede2785152d5c109282a613fe024a056a3e66c41bb36000801b6200030b60201b60201c565b620001ac7f72c3eec1760bf69946625c2d4fb8e44e2c806345041960b434674fb9ab3976cf6000801b6200030b60201b60201c565b620001e17ff7b34cf87af24ce01c1aff9f518b133989851466d994e0016fc14651fa02826c6000801b6200030b60201b60201c565b506040518060400160405280601181526020017f53746f626f782044656d6f20546f6b656e000000000000000000000000000000815250600990805190602001906200022f92919062000756565b506040518060400160405280600581526020017f5344435337000000000000000000000000000000000000000000000000000000815250600a90805190602001906200027d92919062000756565b506000600b60006101000a81548160ff021916908360ff1602179055506012600781905550600754600a0a6008819055506000600581905550620002cb33629896806200036f60201b60201c565b620002e633600c6200054f60201b62003e3c1790919060201c565b50620007fc565b600033905090565b6200030782826200058760201b60201c565b5050565b806001600084815260200190815260200160002060020154837fbd79b86ffe0ab8e8776151514217cd7cacd52c909f66475c3af44e129f0b00ff60405160405180910390a48060016000848152602001908152602001600020600201819055505050565b600073ffffffffffffffffffffffffffffffffffffffff168273ffffffffffffffffffffffffffffffffffffffff16141562000413576040517f08c379a000000000000000000000000000000000000000000000000000000000815260040180806020018281038252601e8152602001807f535442583a206d696e7420746f20746865207a65726f2061646472657373000081525060200191505060405180910390fd5b62000427600083836200062b60201b60201c565b62000443816006546200063060201b62003e6c1790919060201c565b600681905550620004a281600260008573ffffffffffffffffffffffffffffffffffffffff1673ffffffffffffffffffffffffffffffffffffffff168152602001908152602001600020546200063060201b62003e6c1790919060201c565b600260008473ffffffffffffffffffffffffffffffffffffffff1673ffffffffffffffffffffffffffffffffffffffff168152602001908152602001600020819055508173ffffffffffffffffffffffffffffffffffffffff16600073ffffffffffffffffffffffffffffffffffffffff167fddf252ad1be2c89b69c2b068fc378daa952ba7f163c4a11628f55a4df523b3ef836040518082815260200191505060405180910390a35050565b60006200057f836000018373ffffffffffffffffffffffffffffffffffffffff1660001b620006b960201b60201c565b905092915050565b620005b681600160008581526020019081526020016000206000016200054f60201b62003e3c1790919060201c565b156200062757620005cc620002ed60201b60201c565b73ffffffffffffffffffffffffffffffffffffffff168173ffffffffffffffffffffffffffffffffffffffff16837f2f8788117e7eff1d82e926ec794901d17c78024a50270940304540a733656f0d60405160405180910390a45b5050565b505050565b600080828401905083811015620006af576040517f08c379a000000000000000000000000000000000000000000000000000000000815260040180806020018281038252601b8152602001807f536166654d6174683a206164646974696f6e206f766572666c6f77000000000081525060200191505060405180910390fd5b8091505092915050565b6000620006cd83836200073360201b60201c565b620007285782600001829080600181540180825580915050600190039060005260206000200160009091909190915055826000018054905083600101600084815260200190815260200160002081905550600190506200072d565b600090505b92915050565b600080836001016000848152602001908152602001600020541415905092915050565b828054600181600116156101000203166002900490600052602060002090601f016020900481019282601f106200079957805160ff1916838001178555620007ca565b82800160010185558215620007ca579182015b82811115620007c9578251825591602001919060010190620007ac565b5b509050620007d99190620007dd565b5090565b5b80821115620007f8576000816000905550600101620007de565b5090565b615370806200080c6000396000f3fe608060405234801561001057600080fd5b50600436106103af5760003560e01c80637b9417c8116101f4578063a7771ee31161011a578063d547741f116100ad578063ee39e7a01161007c578063ee39e7a0146113ed578063f0b6e33f1461140b578063f2fde38b14611459578063f4ab9adf1461149d576103af565b8063d547741f14611289578063dd62ed3e146112d7578063df7f453b1461134f578063eaf9144a146113a9576103af565b8063b3de4214116100e9578063b3de4214146111a1578063b7022049146111bf578063c54467b314611203578063ca15c87314611247576103af565b8063a7771ee314611081578063a9059cbb146110db578063a94015c81461113f578063b3292ff01461115d576103af565b806391d1485411610192578063a10ba41711610161578063a10ba41714610f61578063a217fddf14610fbb578063a2e92b6714610fd9578063a457c2d71461101d576103af565b806391d1485414610de857806395d89b4114610e4c5780639dc29fac14610ecf5780639e4791b414610f1d576103af565b806382c3f79c116101ce57806382c3f79c14610cca57806386c1ff6814610d0e5780638da5cb5b14610d525780639010d07c14610d86576103af565b80637b9417c814610bfc5780637c51a57d14610c405780637d0c269f14610c70576103af565b806334970179116102d9578063526606c9116102775780636c65fd6a116102465780636c65fd6a14610ae857806370a0823114610b42578063715018a614610b9a5780637359ae7614610ba4576103af565b8063526606c9146109d4578063570618e114610a185780635edf9e6114610a365780635fae057614610a8e576103af565b80633dd48906116102b35780633dd489061461091a57806340c10f191461095e578063416edaa0146109ac5780634eabbe77146109b6576103af565b8063349701791461080e57806336568abe1461086857806339509351146108b6576103af565b806323fe66fb116103515780632b8109d5116103205780632b8109d5146107015780632f2ff15d1461075b57806330129e60146107a9578063313ce567146107ed576103af565b806323fe66fb14610617578063248a9ca314610637578063286dd3f5146106795780632acd2000146106bd576103af565b80631501bf031161038d5780631501bf03146104b957806318160ddd1461053d5780631b3ddf811461055b57806323b872dd14610593576103af565b806306a85f0f146103b457806306fdde03146103d2578063095ea7b314610455575b600080fd5b6103bc6114e1565b6040518082815260200191505060405180910390f35b6103da611505565b6040518080602001828103825283818151815260200191508051906020019080838360005b8381101561041a5780820151818401526020810190506103ff565b50505050905090810190601f1680156104475780820380516001836020036101000a031916815260200191505b509250505060405180910390f35b6104a16004803603604081101561046b57600080fd5b81019080803573ffffffffffffffffffffffffffffffffffffffff169060200190929190803590602001909291905050506115a7565b60405180821515815260200191505060405180910390f35b610525600480360360608110156104cf57600080fd5b81019080803573ffffffffffffffffffffffffffffffffffffffff169060200190929190803573ffffffffffffffffffffffffffffffffffffffff16906020019092919080359060200190929190505050611791565b60405180821515815260200191505060405180910390f35b610545611948565b6040518082815260200191505060405180910390f35b6105916004803603604081101561057157600080fd5b81019080803590602001909291908035906020019092919050505061197d565b005b6105ff600480360360608110156105a957600080fd5b81019080803573ffffffffffffffffffffffffffffffffffffffff169060200190929190803573ffffffffffffffffffffffffffffffffffffffff16906020019092919080359060200190929190505050611b68565b60405180821515815260200191505060405180910390f35b61061f611e18565b60405180821515815260200191505060405180910390f35b6106636004803603602081101561064d57600080fd5b8101908080359060200190929190505050611e2b565b6040518082815260200191505060405180910390f35b6106bb6004803603602081101561068f57600080fd5b81019080803573ffffffffffffffffffffffffffffffffffffffff169060200190929190505050611e4b565b005b6106ff600480360360208110156106d357600080fd5b81019080803573ffffffffffffffffffffffffffffffffffffffff169060200190929190505050611ef3565b005b6107436004803603602081101561071757600080fd5b81019080803573ffffffffffffffffffffffffffffffffffffffff169060200190929190505050611f9b565b60405180821515815260200191505060405180910390f35b6107a76004803603604081101561077157600080fd5b8101908080359060200190929190803573ffffffffffffffffffffffffffffffffffffffff169060200190929190505050611fce565b005b6107eb600480360360208110156107bf57600080fd5b81019080803573ffffffffffffffffffffffffffffffffffffffff169060200190929190505050612058565b005b6107f5612100565b604051808260ff16815260200191505060405180910390f35b6108506004803603602081101561082457600080fd5b81019080803573ffffffffffffffffffffffffffffffffffffffff169060200190929190505050612117565b60405180821515815260200191505060405180910390f35b6108b46004803603604081101561087e57600080fd5b8101908080359060200190929190803573ffffffffffffffffffffffffffffffffffffffff16906020019092919050505061214a565b005b610902600480360360408110156108cc57600080fd5b81019080803573ffffffffffffffffffffffffffffffffffffffff169060200190929190803590602001909291905050506121e3565b60405180821515815260200191505060405180910390f35b61095c6004803603602081101561093057600080fd5b81019080803573ffffffffffffffffffffffffffffffffffffffff16906020019092919050505061245b565b005b6109aa6004803603604081101561097457600080fd5b81019080803573ffffffffffffffffffffffffffffffffffffffff16906020019092919080359060200190929190505050612503565b005b6109b4612632565b005b6109be6126bc565b6040518082815260200191505060405180910390f35b610a16600480360360208110156109ea57600080fd5b81019080803573ffffffffffffffffffffffffffffffffffffffff1690602001909291905050506126e0565b005b610a20612788565b6040518082815260200191505060405180910390f35b610a7860048036036020811015610a4c57600080fd5b81019080803573ffffffffffffffffffffffffffffffffffffffff1690602001909291905050506127ac565b6040518082815260200191505060405180910390f35b610ad060048036036020811015610aa457600080fd5b81019080803573ffffffffffffffffffffffffffffffffffffffff16906020019092919050505061284d565b60405180821515815260200191505060405180910390f35b610b2a60048036036020811015610afe57600080fd5b81019080803573ffffffffffffffffffffffffffffffffffffffff16906020019092919050505061286a565b60405180821515815260200191505060405180910390f35b610b8460048036036020811015610b5857600080fd5b81019080803573ffffffffffffffffffffffffffffffffffffffff16906020019092919050505061289d565b6040518082815260200191505060405180910390f35b610ba2612911565b005b610be660048036036020811015610bba57600080fd5b81019080803573ffffffffffffffffffffffffffffffffffffffff169060200190929190505050612a97565b6040518082815260200191505060405180910390f35b610c3e60048036036020811015610c1257600080fd5b81019080803573ffffffffffffffffffffffffffffffffffffffff169060200190929190505050612ae3565b005b610c6e60048036036020811015610c5657600080fd5b81019080803515159060200190929190505050612b8b565b005b610cb260048036036020811015610c8657600080fd5b81019080803573ffffffffffffffffffffffffffffffffffffffff169060200190929190505050612c23565b60405180821515815260200191505060405180910390f35b610d0c60048036036020811015610ce057600080fd5b81019080803573ffffffffffffffffffffffffffffffffffffffff169060200190929190505050612c56565b005b610d5060048036036020811015610d2457600080fd5b81019080803573ffffffffffffffffffffffffffffffffffffffff169060200190929190505050612cfe565b005b610d5a612da6565b604051808273ffffffffffffffffffffffffffffffffffffffff16815260200191505060405180910390f35b610dbc60048036036040811015610d9c57600080fd5b810190808035906020019092919080359060200190929190505050612dcf565b604051808273ffffffffffffffffffffffffffffffffffffffff16815260200191505060405180910390f35b610e3460048036036040811015610dfe57600080fd5b8101908080359060200190929190803573ffffffffffffffffffffffffffffffffffffffff169060200190929190505050612e01565b60405180821515815260200191505060405180910390f35b610e54612e33565b6040518080602001828103825283818151815260200191508051906020019080838360005b83811015610e94578082015181840152602081019050610e79565b50505050905090810190601f168015610ec15780820380516001836020036101000a031916815260200191505b509250505060405180910390f35b610f1b60048036036040811015610ee557600080fd5b81019080803573ffffffffffffffffffffffffffffffffffffffff16906020019092919080359060200190929190505050612ed5565b005b610f5f60048036036020811015610f3357600080fd5b81019080803573ffffffffffffffffffffffffffffffffffffffff169060200190929190505050612fe4565b005b610fa360048036036020811015610f7757600080fd5b81019080803573ffffffffffffffffffffffffffffffffffffffff169060200190929190505050613077565b60405180821515815260200191505060405180910390f35b610fc3613094565b6040518082815260200191505060405180910390f35b61101b60048036036020811015610fef57600080fd5b81019080803573ffffffffffffffffffffffffffffffffffffffff16906020019092919050505061309b565b005b6110696004803603604081101561103357600080fd5b81019080803573ffffffffffffffffffffffffffffffffffffffff16906020019092919080359060200190929190505050613143565b60405180821515815260200191505060405180910390f35b6110c36004803603602081101561109757600080fd5b81019080803573ffffffffffffffffffffffffffffffffffffffff1690602001909291905050506133d5565b60405180821515815260200191505060405180910390f35b611127600480360360408110156110f157600080fd5b81019080803573ffffffffffffffffffffffffffffffffffffffff16906020019092919080359060200190929190505050613408565b60405180821515815260200191505060405180910390f35b6111476135fc565b6040518082815260200191505060405180910390f35b61119f6004803603602081101561117357600080fd5b81019080803573ffffffffffffffffffffffffffffffffffffffff169060200190929190505050613620565b005b6111a96136ab565b6040518082815260200191505060405180910390f35b611201600480360360208110156111d557600080fd5b81019080803573ffffffffffffffffffffffffffffffffffffffff1690602001909291905050506136cf565b005b6112456004803603602081101561121957600080fd5b81019080803573ffffffffffffffffffffffffffffffffffffffff169060200190929190505050613777565b005b6112736004803603602081101561125d57600080fd5b810190808035906020019092919050505061380a565b6040518082815260200191505060405180910390f35b6112d56004803603604081101561129f57600080fd5b8101908080359060200190929190803573ffffffffffffffffffffffffffffffffffffffff169060200190929190505050613831565b005b611339600480360360408110156112ed57600080fd5b81019080803573ffffffffffffffffffffffffffffffffffffffff169060200190929190803573ffffffffffffffffffffffffffffffffffffffff1690602001909291905050506138bb565b6040518082815260200191505060405180910390f35b6113916004803603602081101561136557600080fd5b81019080803573ffffffffffffffffffffffffffffffffffffffff16906020019092919050505061396d565b60405180821515815260200191505060405180910390f35b6113eb600480360360208110156113bf57600080fd5b81019080803573ffffffffffffffffffffffffffffffffffffffff169060200190929190505050613983565b005b6113f5613a2b565b6040518082815260200191505060405180910390f35b6114576004803603604081101561142157600080fd5b81019080803573ffffffffffffffffffffffffffffffffffffffff16906020019092919080359060200190929190505050613a35565b005b61149b6004803603602081101561146f57600080fd5b81019080803573ffffffffffffffffffffffffffffffffffffffff169060200190929190505050613b89565b005b6114df600480360360208110156114b357600080fd5b81019080803573ffffffffffffffffffffffffffffffffffffffff169060200190929190505050613d94565b005b7f92de27771f92d6942691d73358b3a4673e4880de8356f8f2cf452be87e02d36381565b606060098054600181600116156101000203166002900480601f01602080910402602001604051908101604052809291908181526020018280546001816001161561010002031660029004801561159d5780601f106115725761010080835404028352916020019161159d565b820191906000526020600020905b81548152906001019060200180831161158057829003601f168201915b5050505050905090565b600033600b60019054906101000a900460ff1615611646576115d381600c613ef490919063ffffffff16565b611645576040517f08c379a000000000000000000000000000000000000000000000000000000000815260040180806020018281038252601e8152602001807f535442583a206e6f742077686974656c697374656420616464726573732e000081525060200191505060405180910390fd5b5b83600b60019054906101000a900460ff16156116e35761167081600c613ef490919063ffffffff16565b6116e2576040517f08c379a000000000000000000000000000000000000000000000000000000000815260040180806020018281038252601e8152602001807f535442583a206e6f742077686974656c697374656420616464726573732e000081525060200191505060405180910390fd5b5b33600015156116fc82600e613ef490919063ffffffff16565b151514611771576040517f08c379a00000000000000000000000000000000000000000000000000000000081526004018080602001828103825260178152602001807f535442583a2066756e6473206172652066726f7a656e2e00000000000000000081525060200191505060405180910390fd5b611784338761177f88613f24565b613f59565b6001935050505092915050565b600061179c33611f9b565b61180e576040517f08c379a000000000000000000000000000000000000000000000000000000000815260040180806020018281038252601b8152602001807f5265737472696374656420746f207472616e73706f72746572732e000000000081525060200191505060405180910390fd5b82600b60019054906101000a900460ff16156118ab5761183881600c613ef490919063ffffffff16565b6118aa576040517f08c379a000000000000000000000000000000000000000000000000000000000815260040180806020018281038252601e8152602001807f535442583a206e6f742077686974656c697374656420616464726573732e000081525060200191505060405180910390fd5b5b826118b58661289d565b1015611929576040517f08c379a00000000000000000000000000000000000000000000000000000000081526004018080602001828103825260178152602001807f535442583a206e6f7420656e6f75676820746f6b656e7300000000000000000081525060200191505060405180910390fd5b61193c858561193786613f24565b614150565b60019150509392505050565b6000611978600754600a0a61196a60085460065461441590919063ffffffff16565b61449b90919063ffffffff16565b905090565b6119863361396d565b6119f8576040517f08c379a000000000000000000000000000000000000000000000000000000000815260040180806020018281038252601b8152602001807f5265737472696374656420746f2073757065722061646d696e732e000000000081525060200191505060405180910390fd5b80821415611a6e576040517f08c379a00000000000000000000000000000000000000000000000000000000081526004018080602001828103825260208152602001807f535442583a205f78206d757374206e6f7420626520657175616c20746f205f7981525060200191505060405180910390fd5b60008211611ae4576040517f08c379a000000000000000000000000000000000000000000000000000000000815260040180806020018281038252601f8152602001807f535442583a205f78206d7573742062652067726561746572207468616e20300081525060200191505060405180910390fd5b60008111611b5a576040517f08c379a000000000000000000000000000000000000000000000000000000000815260040180806020018281038252601f8152602001807f535442583a205f79206d7573742062652067726561746572207468616e20300081525060200191505060405180910390fd5b611b6482826144e5565b5050565b600083600b60019054906101000a900460ff1615611c0757611b9481600c613ef490919063ffffffff16565b611c06576040517f08c379a000000000000000000000000000000000000000000000000000000000815260040180806020018281038252601e8152602001807f535442583a206e6f742077686974656c697374656420616464726573732e000081525060200191505060405180910390fd5b5b83600b60019054906101000a900460ff1615611ca457611c3181600c613ef490919063ffffffff16565b611ca3576040517f08c379a000000000000000000000000000000000000000000000000000000000815260040180806020018281038252601e8152602001807f535442583a206e6f742077686974656c697374656420616464726573732e000081525060200191505060405180910390fd5b5b8560001515611cbd82600e613ef490919063ffffffff16565b151514611d32576040517f08c379a00000000000000000000000000000000000000000000000000000000081526004018080602001828103825260178152602001807f535442583a2066756e6473206172652066726f7a656e2e00000000000000000081525060200191505060405180910390fd5b611d3c8786614550565b611d4f8787611d4a88613f24565b614150565b611e0a8733611e05611d6089613f24565b60405180606001604052806027815260200161525860279139600360008e73ffffffffffffffffffffffffffffffffffffffff1673ffffffffffffffffffffffffffffffffffffffff16815260200190815260200160002060003373ffffffffffffffffffffffffffffffffffffffff1673ffffffffffffffffffffffffffffffffffffffff168152602001908152602001600020546147c39092919063ffffffff16565b613f59565b600193505050509392505050565b600b60019054906101000a900460ff1681565b600060016000838152602001908152602001600020600201549050919050565b611e5433612c23565b611ec6576040517f08c379a000000000000000000000000000000000000000000000000000000000815260040180806020018281038252601b8152602001807f5265737472696374656420746f2077686974656c6973746572732e000000000081525060200191505060405180910390fd5b611eda81600c61488390919063ffffffff16565b50611eef81600e613e3c90919063ffffffff16565b5050565b611efc3361396d565b611f6e576040517f08c379a000000000000000000000000000000000000000000000000000000000815260040180806020018281038252601b8152602001807f5265737472696374656420746f2073757065722061646d696e732e000000000081525060200191505060405180910390fd5b611f98817f92de27771f92d6942691d73358b3a4673e4880de8356f8f2cf452be87e02d3636148b3565b50565b6000611fc77fddaa901e2fe3bda354fe0ede2785152d5c109282a613fe024a056a3e66c41bb383612e01565b9050919050565b611ff56001600084815260200190815260200160002060020154611ff06148c1565b612e01565b61204a576040517f08c379a000000000000000000000000000000000000000000000000000000000815260040180806020018281038252602f815260200180615121602f913960400191505060405180910390fd5b61205482826148c9565b5050565b6120613361396d565b6120d3576040517f08c379a000000000000000000000000000000000000000000000000000000000815260040180806020018281038252601b8152602001807f5265737472696374656420746f2073757065722061646d696e732e000000000081525060200191505060405180910390fd5b6120fd817ff7b34cf87af24ce01c1aff9f518b133989851466d994e0016fc14651fa02826c6148b3565b50565b6000600b60009054906101000a900460ff16905090565b60006121437ff7b34cf87af24ce01c1aff9f518b133989851466d994e0016fc14651fa02826c83612e01565b9050919050565b6121526148c1565b73ffffffffffffffffffffffffffffffffffffffff168173ffffffffffffffffffffffffffffffffffffffff16146121d5576040517f08c379a000000000000000000000000000000000000000000000000000000000815260040180806020018281038252602f81526020018061530c602f913960400191505060405180910390fd5b6121df828261495d565b5050565b600033600b60019054906101000a900460ff16156122825761220f81600c613ef490919063ffffffff16565b612281576040517f08c379a000000000000000000000000000000000000000000000000000000000815260040180806020018281038252601e8152602001807f535442583a206e6f742077686974656c697374656420616464726573732e000081525060200191505060405180910390fd5b5b83600b60019054906101000a900460ff161561231f576122ac81600c613ef490919063ffffffff16565b61231e576040517f08c379a000000000000000000000000000000000000000000000000000000000815260040180806020018281038252601e8152602001807f535442583a206e6f742077686974656c697374656420616464726573732e000081525060200191505060405180910390fd5b5b336000151561233882600e613ef490919063ffffffff16565b1515146123ad576040517f08c379a00000000000000000000000000000000000000000000000000000000081526004018080602001828103825260178152602001807f535442583a2066756e6473206172652066726f7a656e2e00000000000000000081525060200191505060405180910390fd5b61244e33876124496123be89613f24565b600360003373ffffffffffffffffffffffffffffffffffffffff1673ffffffffffffffffffffffffffffffffffffffff16815260200190815260200160002060008c73ffffffffffffffffffffffffffffffffffffffff1673ffffffffffffffffffffffffffffffffffffffff16815260200190815260200160002054613e6c90919063ffffffff16565b613f59565b6001935050505092915050565b6124643361396d565b6124d6576040517f08c379a000000000000000000000000000000000000000000000000000000000815260040180806020018281038252601b8152602001807f5265737472696374656420746f2073757065722061646d696e732e000000000081525060200191505060405180910390fd5b612500817fddaa901e2fe3bda354fe0ede2785152d5c109282a613fe024a056a3e66c41bb36148b3565b50565b61250c3361396d565b61257e576040517f08c379a000000000000000000000000000000000000000000000000000000000815260040180806020018281038252601b8152602001807f5265737472696374656420746f2073757065722061646d696e732e000000000081525060200191505060405180910390fd5b81600b60019054906101000a900460ff161561261b576125a881600c613ef490919063ffffffff16565b61261a576040517f08c379a000000000000000000000000000000000000000000000000000000000815260040180806020018281038252601e8152602001807f535442583a206e6f742077686974656c697374656420616464726573732e000081525060200191505060405180910390fd5b5b61262d8361262884613f24565b6149f1565b505050565b61263b3361396d565b6126ad576040517f08c379a000000000000000000000000000000000000000000000000000000000815260040180806020018281038252601b8152602001807f5265737472696374656420746f2073757065722061646d696e732e000000000081525060200191505060405180910390fd5b6126ba6000801b3361214a565b565b7fddaa901e2fe3bda354fe0ede2785152d5c109282a613fe024a056a3e66c41bb381565b6126e93361396d565b61275b576040517f08c379a000000000000000000000000000000000000000000000000000000000815260040180806020018281038252601b8152602001807f5265737472696374656420746f2073757065722061646d696e732e000000000081525060200191505060405180910390fd5b612785817f92de27771f92d6942691d73358b3a4673e4880de8356f8f2cf452be87e02d363614bba565b50565b7f8619cecd8b9e095ab43867f5b69d492180450fe862e6b50bfbfb24b75dd84c8a81565b600080600460008473ffffffffffffffffffffffffffffffffffffffff1673ffffffffffffffffffffffffffffffffffffffff16815260200190815260200160002060000154111561284257600460008373ffffffffffffffffffffffffffffffffffffffff1673ffffffffffffffffffffffffffffffffffffffff168152602001908152602001600020600001549050612848565b60055490505b919050565b600061286382600c613ef490919063ffffffff16565b9050919050565b60006128967f92de27771f92d6942691d73358b3a4673e4880de8356f8f2cf452be87e02d36383612e01565b9050919050565b600061290a600754600a0a6128fc600854600260008773ffffffffffffffffffffffffffffffffffffffff1673ffffffffffffffffffffffffffffffffffffffff1681526020019081526020016000205461441590919063ffffffff16565b61449b90919063ffffffff16565b9050919050565b6129196148c1565b73ffffffffffffffffffffffffffffffffffffffff1660008054906101000a900473ffffffffffffffffffffffffffffffffffffffff1673ffffffffffffffffffffffffffffffffffffffff16146129d9576040517f08c379a00000000000000000000000000000000000000000000000000000000081526004018080602001828103825260208152602001807f4f776e61626c653a2063616c6c6572206973206e6f7420746865206f776e657281525060200191505060405180910390fd5b600073ffffffffffffffffffffffffffffffffffffffff1660008054906101000a900473ffffffffffffffffffffffffffffffffffffffff1673ffffffffffffffffffffffffffffffffffffffff167f8be0079c531659141344cd1fd0a4f28419497f9722a3daafe3b4186f6b6457e060405160405180910390a360008060006101000a81548173ffffffffffffffffffffffffffffffffffffffff021916908373ffffffffffffffffffffffffffffffffffffffff160217905550565b6000600460008373ffffffffffffffffffffffffffffffffffffffff1673ffffffffffffffffffffffffffffffffffffffff168152602001908152602001600020600201549050919050565b612aec33612c23565b612b5e576040517f08c379a000000000000000000000000000000000000000000000000000000000815260040180806020018281038252601b8152602001807f5265737472696374656420746f2077686974656c6973746572732e000000000081525060200191505060405180910390fd5b612b7281600c613e3c90919063ffffffff16565b50612b8781600e61488390919063ffffffff16565b5050565b612b943361396d565b612c06576040517f08c379a000000000000000000000000000000000000000000000000000000000815260040180806020018281038252601b8152602001807f5265737472696374656420746f2073757065722061646d696e732e000000000081525060200191505060405180910390fd5b80600b60016101000a81548160ff02191690831515021790555050565b6000612c4f7f8619cecd8b9e095ab43867f5b69d492180450fe862e6b50bfbfb24b75dd84c8a83612e01565b9050919050565b612c5f3361396d565b612cd1576040517f08c379a000000000000000000000000000000000000000000000000000000000815260040180806020018281038252601b8152602001807f5265737472696374656420746f2073757065722061646d696e732e000000000081525060200191505060405180910390fd5b612cfb817f8619cecd8b9e095ab43867f5b69d492180450fe862e6b50bfbfb24b75dd84c8a6148b3565b50565b612d073361396d565b612d79576040517f08c379a000000000000000000000000000000000000000000000000000000000815260040180806020018281038252601b8152602001807f5265737472696374656420746f2073757065722061646d696e732e000000000081525060200191505060405180910390fd5b612da3817f72c3eec1760bf69946625c2d4fb8e44e2c806345041960b434674fb9ab3976cf6148b3565b50565b60008060009054906101000a900473ffffffffffffffffffffffffffffffffffffffff16905090565b6000612df98260016000868152602001908152602001600020600001614bc890919063ffffffff16565b905092915050565b6000612e2b8260016000868152602001908152602001600020600001613ef490919063ffffffff16565b905092915050565b6060600a8054600181600116156101000203166002900480601f016020809104026020016040519081016040528092919081815260200182805460018160011615610100020316600290048015612ecb5780601f10612ea057610100808354040283529160200191612ecb565b820191906000526020600020905b815481529060010190602001808311612eae57829003601f168201915b5050505050905090565b612ede3361396d565b612f50576040517f08c379a000000000000000000000000000000000000000000000000000000000815260040180806020018281038252601b8152602001807f5265737472696374656420746f2073757065722061646d696e732e000000000081525060200191505060405180910390fd5b80612f5a8361289d565b1015612fce576040517f08c379a00000000000000000000000000000000000000000000000000000000081526004018080602001828103825260158152602001807f535442583a2062616c616e636520746f6f206c6f77000000000000000000000081525060200191505060405180910390fd5b612fe082612fdb83613f24565b614be2565b5050565b612fed3361286a565b61305f576040517f08c379a00000000000000000000000000000000000000000000000000000000081526004018080602001828103825260178152602001807f5265737472696374656420746f20667265657a6572732e00000000000000000081525060200191505060405180910390fd5b61307381600e61488390919063ffffffff16565b5050565b600061308d82600e613ef490919063ffffffff16565b9050919050565b6000801b81565b6130a43361396d565b613116576040517f08c379a000000000000000000000000000000000000000000000000000000000815260040180806020018281038252601b8152602001807f5265737472696374656420746f2073757065722061646d696e732e000000000081525060200191505060405180910390fd5b613140817ff7b34cf87af24ce01c1aff9f518b133989851466d994e0016fc14651fa02826c614bba565b50565b600033600b60019054906101000a900460ff16156131e25761316f81600c613ef490919063ffffffff16565b6131e1576040517f08c379a000000000000000000000000000000000000000000000000000000000815260040180806020018281038252601e8152602001807f535442583a206e6f742077686974656c697374656420616464726573732e000081525060200191505060405180910390fd5b5b83600b60019054906101000a900460ff161561327f5761320c81600c613ef490919063ffffffff16565b61327e576040517f08c379a000000000000000000000000000000000000000000000000000000000815260040180806020018281038252601e8152602001807f535442583a206e6f742077686974656c697374656420616464726573732e000081525060200191505060405180910390fd5b5b336000151561329882600e613ef490919063ffffffff16565b15151461330d576040517f08c379a00000000000000000000000000000000000000000000000000000000081526004018080602001828103825260178152602001807f535442583a2066756e6473206172652066726f7a656e2e00000000000000000081525060200191505060405180910390fd5b6133c833876133c361331e89613f24565b60405180606001604052806024815260200161521260249139600360003373ffffffffffffffffffffffffffffffffffffffff1673ffffffffffffffffffffffffffffffffffffffff16815260200190815260200160002060008d73ffffffffffffffffffffffffffffffffffffffff1673ffffffffffffffffffffffffffffffffffffffff168152602001908152602001600020546147c39092919063ffffffff16565b613f59565b6001935050505092915050565b60006134017f72c3eec1760bf69946625c2d4fb8e44e2c806345041960b434674fb9ab3976cf83612e01565b9050919050565b600033600b60019054906101000a900460ff16156134a75761343481600c613ef490919063ffffffff16565b6134a6576040517f08c379a000000000000000000000000000000000000000000000000000000000815260040180806020018281038252601e8152602001807f535442583a206e6f742077686974656c697374656420616464726573732e000081525060200191505060405180910390fd5b5b83600b60019054906101000a900460ff1615613544576134d181600c613ef490919063ffffffff16565b613543576040517f08c379a000000000000000000000000000000000000000000000000000000000815260040180806020018281038252601e8152602001807f535442583a206e6f742077686974656c697374656420616464726573732e000081525060200191505060405180910390fd5b5b336000151561355d82600e613ef490919063ffffffff16565b1515146135d2576040517f08c379a00000000000000000000000000000000000000000000000000000000081526004018080602001828103825260178152602001807f535442583a2066756e6473206172652066726f7a656e2e00000000000000000081525060200191505060405180910390fd5b6135dc3386614550565b6135ef33876135ea88613f24565b614150565b6001935050505092915050565b7f72c3eec1760bf69946625c2d4fb8e44e2c806345041960b434674fb9ab3976cf81565b6136293361396d565b61369b576040517f08c379a000000000000000000000000000000000000000000000000000000000815260040180806020018281038252601b8152602001807f5265737472696374656420746f2073757065722061646d696e732e000000000081525060200191505060405180910390fd5b6136a8816000801b614bba565b50565b7ff7b34cf87af24ce01c1aff9f518b133989851466d994e0016fc14651fa02826c81565b6136d83361396d565b61374a576040517f08c379a000000000000000000000000000000000000000000000000000000000815260040180806020018281038252601b8152602001807f5265737472696374656420746f2073757065722061646d696e732e000000000081525060200191505060405180910390fd5b613774817fddaa901e2fe3bda354fe0ede2785152d5c109282a613fe024a056a3e66c41bb3614bba565b50565b6137803361286a565b6137f2576040517f08c379a00000000000000000000000000000000000000000000000000000000081526004018080602001828103825260178152602001807f5265737472696374656420746f20667265657a6572732e00000000000000000081525060200191505060405180910390fd5b61380681600e613e3c90919063ffffffff16565b5050565b600061382a60016000848152602001908152602001600020600001614dc5565b9050919050565b61385860016000848152602001908152602001600020600201546138536148c1565b612e01565b6138ad576040517f08c379a00000000000000000000000000000000000000000000000000000000081526004018080602001828103825260308152602001806151c16030913960400191505060405180910390fd5b6138b7828261495d565b5050565b6000613965600754600a0a613957600854600360008873ffffffffffffffffffffffffffffffffffffffff1673ffffffffffffffffffffffffffffffffffffffff16815260200190815260200160002060008773ffffffffffffffffffffffffffffffffffffffff1673ffffffffffffffffffffffffffffffffffffffff1681526020019081526020016000205461441590919063ffffffff16565b61449b90919063ffffffff16565b905092915050565b600061397c6000801b83612e01565b9050919050565b61398c3361396d565b6139fe576040517f08c379a000000000000000000000000000000000000000000000000000000000815260040180806020018281038252601b8152602001807f5265737472696374656420746f2073757065722061646d696e732e000000000081525060200191505060405180910390fd5b613a28817f8619cecd8b9e095ab43867f5b69d492180450fe862e6b50bfbfb24b75dd84c8a614bba565b50565b6000600854905090565b613a3e33612117565b613ab0576040517f08c379a00000000000000000000000000000000000000000000000000000000081526004018080602001828103825260178152602001807f5265737472696374656420746f206c696d69746572732e00000000000000000081525060200191505060405180910390fd5b80600460008473ffffffffffffffffffffffffffffffffffffffff1673ffffffffffffffffffffffffffffffffffffffff1681526020019081526020016000206000018190555080600460008473ffffffffffffffffffffffffffffffffffffffff1673ffffffffffffffffffffffffffffffffffffffff1681526020019081526020016000206002018190555042600460008473ffffffffffffffffffffffffffffffffffffffff1673ffffffffffffffffffffffffffffffffffffffff168152602001908152602001600020600101819055505050565b613b916148c1565b73ffffffffffffffffffffffffffffffffffffffff1660008054906101000a900473ffffffffffffffffffffffffffffffffffffffff1673ffffffffffffffffffffffffffffffffffffffff1614613c51576040517f08c379a00000000000000000000000000000000000000000000000000000000081526004018080602001828103825260208152602001807f4f776e61626c653a2063616c6c6572206973206e6f7420746865206f776e657281525060200191505060405180910390fd5b600073ffffffffffffffffffffffffffffffffffffffff168173ffffffffffffffffffffffffffffffffffffffff161415613cd7576040517f08c379a00000000000000000000000000000000000000000000000000000000081526004018080602001828103825260268152602001806151506026913960400191505060405180910390fd5b8073ffffffffffffffffffffffffffffffffffffffff1660008054906101000a900473ffffffffffffffffffffffffffffffffffffffff1673ffffffffffffffffffffffffffffffffffffffff167f8be0079c531659141344cd1fd0a4f28419497f9722a3daafe3b4186f6b6457e060405160405180910390a3806000806101000a81548173ffffffffffffffffffffffffffffffffffffffff021916908373ffffffffffffffffffffffffffffffffffffffff16021790555050565b613d9d3361396d565b613e0f576040517f08c379a000000000000000000000000000000000000000000000000000000000815260040180806020018281038252601b8152602001807f5265737472696374656420746f2073757065722061646d696e732e000000000081525060200191505060405180910390fd5b613e39817f72c3eec1760bf69946625c2d4fb8e44e2c806345041960b434674fb9ab3976cf614bba565b50565b6000613e64836000018373ffffffffffffffffffffffffffffffffffffffff1660001b614dda565b905092915050565b600080828401905083811015613eea576040517f08c379a000000000000000000000000000000000000000000000000000000000815260040180806020018281038252601b8152602001807f536166654d6174683a206164646974696f6e206f766572666c6f77000000000081525060200191505060405180910390fd5b8091505092915050565b6000613f1c836000018373ffffffffffffffffffffffffffffffffffffffff1660001b614e4a565b905092915050565b6000613f52600854613f44600754600a0a8561441590919063ffffffff16565b61449b90919063ffffffff16565b9050919050565b600073ffffffffffffffffffffffffffffffffffffffff168373ffffffffffffffffffffffffffffffffffffffff161415613fdf576040517f08c379a00000000000000000000000000000000000000000000000000000000081526004018080602001828103825260238152602001806152c56023913960400191505060405180910390fd5b600073ffffffffffffffffffffffffffffffffffffffff168273ffffffffffffffffffffffffffffffffffffffff161415614065576040517f08c379a00000000000000000000000000000000000000000000000000000000081526004018080602001828103825260218152602001806151766021913960400191505060405180910390fd5b80600360008573ffffffffffffffffffffffffffffffffffffffff1673ffffffffffffffffffffffffffffffffffffffff16815260200190815260200160002060008473ffffffffffffffffffffffffffffffffffffffff1673ffffffffffffffffffffffffffffffffffffffff168152602001908152602001600020819055508173ffffffffffffffffffffffffffffffffffffffff168373ffffffffffffffffffffffffffffffffffffffff167f8c5be1e5ebec7d5bd14f71427d1e84f3dd0314c0f7b2291e5b200ac8c7c3b925836040518082815260200191505060405180910390a3505050565b600073ffffffffffffffffffffffffffffffffffffffff168373ffffffffffffffffffffffffffffffffffffffff1614156141d6576040517f08c379a00000000000000000000000000000000000000000000000000000000081526004018080602001828103825260248152602001806152e86024913960400191505060405180910390fd5b600073ffffffffffffffffffffffffffffffffffffffff168273ffffffffffffffffffffffffffffffffffffffff16141561425c576040517f08c379a00000000000000000000000000000000000000000000000000000000081526004018080602001828103825260228152602001806152366022913960400191505060405180910390fd5b614267838383614e6d565b6142d3816040518060600160405280602581526020016152a060259139600260008773ffffffffffffffffffffffffffffffffffffffff1673ffffffffffffffffffffffffffffffffffffffff168152602001908152602001600020546147c39092919063ffffffff16565b600260008573ffffffffffffffffffffffffffffffffffffffff1673ffffffffffffffffffffffffffffffffffffffff1681526020019081526020016000208190555061436881600260008573ffffffffffffffffffffffffffffffffffffffff1673ffffffffffffffffffffffffffffffffffffffff16815260200190815260200160002054613e6c90919063ffffffff16565b600260008473ffffffffffffffffffffffffffffffffffffffff1673ffffffffffffffffffffffffffffffffffffffff168152602001908152602001600020819055508173ffffffffffffffffffffffffffffffffffffffff168373ffffffffffffffffffffffffffffffffffffffff167fddf252ad1be2c89b69c2b068fc378daa952ba7f163c4a11628f55a4df523b3ef836040518082815260200191505060405180910390a3505050565b6000808314156144285760009050614495565b600082840290508284828161443957fe5b0414614490576040517f08c379a000000000000000000000000000000000000000000000000000000000815260040180806020018281038252602181526020018061527f6021913960400191505060405180910390fd5b809150505b92915050565b60006144dd83836040518060400160405280601a81526020017f536166654d6174683a206469766973696f6e206279207a65726f000000000000815250614e72565b905092915050565b61452361451283614504600754600a0a8561441590919063ffffffff16565b61449b90919063ffffffff16565b60085461441590919063ffffffff16565b600881905550614546670de0b6b3a764000060085461449b90919063ffffffff16565b6008819055505050565b4262015180600460008573ffffffffffffffffffffffffffffffffffffffff1673ffffffffffffffffffffffffffffffffffffffff1681526020019081526020016000206001015401101561470a5742600460008473ffffffffffffffffffffffffffffffffffffffff1673ffffffffffffffffffffffffffffffffffffffff168152602001908152602001600020600101819055506000600460008473ffffffffffffffffffffffffffffffffffffffff1673ffffffffffffffffffffffffffffffffffffffff1681526020019081526020016000206000015411156146bf57600460008373ffffffffffffffffffffffffffffffffffffffff1673ffffffffffffffffffffffffffffffffffffffff16815260200190815260200160002060000154600460008473ffffffffffffffffffffffffffffffffffffffff1673ffffffffffffffffffffffffffffffffffffffff16815260200190815260200160002060020181905550614709565b600554600460008473ffffffffffffffffffffffffffffffffffffffff1673ffffffffffffffffffffffffffffffffffffffff168152602001908152602001600020600201819055505b5b614779816040518060600160405280602a8152602001615197602a9139600460008673ffffffffffffffffffffffffffffffffffffffff1673ffffffffffffffffffffffffffffffffffffffff168152602001908152602001600020600201546147c39092919063ffffffff16565b600460008473ffffffffffffffffffffffffffffffffffffffff1673ffffffffffffffffffffffffffffffffffffffff168152602001908152602001600020600201819055505050565b6000838311158290614870576040517f08c379a00000000000000000000000000000000000000000000000000000000081526004018080602001828103825283818151815260200191508051906020019080838360005b8381101561483557808201518184015260208101905061481a565b50505050905090810190601f1680156148625780820380516001836020036101000a031916815260200191505b509250505060405180910390fd5b5060008385039050809150509392505050565b60006148ab836000018373ffffffffffffffffffffffffffffffffffffffff1660001b614f38565b905092915050565b6148bd8183613831565b5050565b600033905090565b6148f18160016000858152602001908152602001600020600001613e3c90919063ffffffff16565b15614959576148fe6148c1565b73ffffffffffffffffffffffffffffffffffffffff168173ffffffffffffffffffffffffffffffffffffffff16837f2f8788117e7eff1d82e926ec794901d17c78024a50270940304540a733656f0d60405160405180910390a45b5050565b614985816001600085815260200190815260200160002060000161488390919063ffffffff16565b156149ed576149926148c1565b73ffffffffffffffffffffffffffffffffffffffff168173ffffffffffffffffffffffffffffffffffffffff16837ff6391f5c32d9c69d2a47ea670b442974b53935d1edc7fd64eb21e047a839171b60405160405180910390a45b5050565b600073ffffffffffffffffffffffffffffffffffffffff168273ffffffffffffffffffffffffffffffffffffffff161415614a94576040517f08c379a000000000000000000000000000000000000000000000000000000000815260040180806020018281038252601e8152602001807f535442583a206d696e7420746f20746865207a65726f2061646472657373000081525060200191505060405180910390fd5b614aa060008383614e6d565b614ab581600654613e6c90919063ffffffff16565b600681905550614b0d81600260008573ffffffffffffffffffffffffffffffffffffffff1673ffffffffffffffffffffffffffffffffffffffff16815260200190815260200160002054613e6c90919063ffffffff16565b600260008473ffffffffffffffffffffffffffffffffffffffff1673ffffffffffffffffffffffffffffffffffffffff168152602001908152602001600020819055508173ffffffffffffffffffffffffffffffffffffffff16600073ffffffffffffffffffffffffffffffffffffffff167fddf252ad1be2c89b69c2b068fc378daa952ba7f163c4a11628f55a4df523b3ef836040518082815260200191505060405180910390a35050565b614bc48183611fce565b5050565b6000614bd78360000183615020565b60001c905092915050565b600073ffffffffffffffffffffffffffffffffffffffff168273ffffffffffffffffffffffffffffffffffffffff161415614c85576040517f08c379a00000000000000000000000000000000000000000000000000000000081526004018080602001828103825260208152602001807f535442583a206275726e2066726f6d20746865207a65726f206164647265737381525060200191505060405180910390fd5b614c9182600083614e6d565b614cfd816040518060600160405280602181526020016151f160219139600260008673ffffffffffffffffffffffffffffffffffffffff1673ffffffffffffffffffffffffffffffffffffffff168152602001908152602001600020546147c39092919063ffffffff16565b600260008473ffffffffffffffffffffffffffffffffffffffff1673ffffffffffffffffffffffffffffffffffffffff16815260200190815260200160002081905550614d55816006546150a390919063ffffffff16565b600681905550600073ffffffffffffffffffffffffffffffffffffffff168273ffffffffffffffffffffffffffffffffffffffff167fddf252ad1be2c89b69c2b068fc378daa952ba7f163c4a11628f55a4df523b3ef836040518082815260200191505060405180910390a35050565b6000614dd3826000016150ed565b9050919050565b6000614de68383614e4a565b614e3f578260000182908060018154018082558091505060019003906000526020600020016000909190919091505582600001805490508360010160008481526020019081526020016000208190555060019050614e44565b600090505b92915050565b600080836001016000848152602001908152602001600020541415905092915050565b505050565b60008083118290614f1e576040517f08c379a00000000000000000000000000000000000000000000000000000000081526004018080602001828103825283818151815260200191508051906020019080838360005b83811015614ee3578082015181840152602081019050614ec8565b50505050905090810190601f168015614f105780820380516001836020036101000a031916815260200191505b509250505060405180910390fd5b506000838581614f2a57fe5b049050809150509392505050565b600080836001016000848152602001908152602001600020549050600081146150145760006001820390506000600186600001805490500390506000866000018281548110614f8357fe5b9060005260206000200154905080876000018481548110614fa057fe5b9060005260206000200181905550600183018760010160008381526020019081526020016000208190555086600001805480614fd857fe5b6001900381819060005260206000200160009055905586600101600087815260200190815260200160002060009055600194505050505061501a565b60009150505b92915050565b600081836000018054905011615081576040517f08c379a00000000000000000000000000000000000000000000000000000000081526004018080602001828103825260228152602001806150ff6022913960400191505060405180910390fd5b82600001828154811061509057fe5b9060005260206000200154905092915050565b60006150e583836040518060400160405280601e81526020017f536166654d6174683a207375627472616374696f6e206f766572666c6f7700008152506147c3565b905092915050565b60008160000180549050905091905056fe456e756d657261626c655365743a20696e646578206f7574206f6620626f756e6473416363657373436f6e74726f6c3a2073656e646572206d75737420626520616e2061646d696e20746f206772616e744f776e61626c653a206e6577206f776e657220697320746865207a65726f2061646472657373535442583a20617070726f766520746f20746865207a65726f2061646472657373535442583a207472616e73666572206578636565647320796f7572207472616e73666572206c696d6974416363657373436f6e74726f6c3a2073656e646572206d75737420626520616e2061646d696e20746f207265766f6b65535442583a206275726e20616d6f756e7420657863656564732062616c616e6365535442583a2064656372656173656420616c6c6f77616e63652062656c6f77207a65726f535442583a207472616e7366657220746f20746865207a65726f2061646472657373535442583a207472616e7366657220616d6f756e74206578636565647320616c6c6f77616e6365536166654d6174683a206d756c7469706c69636174696f6e206f766572666c6f77535442583a207472616e7366657220616d6f756e7420657863656564732062616c616e6365535442583a20617070726f76652066726f6d20746865207a65726f2061646472657373535442583a207472616e736665722066726f6d20746865207a65726f2061646472657373416363657373436f6e74726f6c3a2063616e206f6e6c792072656e6f756e636520726f6c657320666f722073656c66a2646970667358221220025589de7a6adefc887c034116b22c41507fb90b1890b61b422520e8421f428b64736f6c634300060c0033",
  "immutableReferences": {},
  "source": "// SPDX-License-Identifier: UNLICENSED\npragma solidity >=0.4.22 <0.8.0;\n\nimport \"openzeppelin-solidity/contracts/token/ERC20/IERC20.sol\";\nimport \"openzeppelin-solidity/contracts/math/SafeMath.sol\";\nimport \"openzeppelin-solidity/contracts/utils/EnumerableSet.sol\";\n\nimport \"./Roles.sol\";\n\n/**\n * @title STBXToken\n * @author Stobox Technologies Inc.\n * @dev STBX ERC20 Token\n */\ncontract STBXToken is IERC20, Roles {\n    using SafeMath for uint256;\n\n    using EnumerableSet for EnumerableSet.AddressSet;\n\n    struct TransferLimit {\n        uint256 transferLimit;\n        uint256 lastTransferLimitTimestamp;\n        uint256 allowedToTransfer;\n    }\n\n    mapping(address => uint256) private _balances;\n    mapping(address => mapping(address => uint256)) private _allowances;\n    mapping(address => TransferLimit) private _transferLimits;\n\n    uint256 private _defaultTransferLimit;\n    uint256 private _totalSupply;\n    uint256 private _kDecimals;\n    uint256 private _k;\n\n    string private _name;\n    string private _symbol;\n\n    uint8 private _decimals;\n\n    bool public _isDisabledWitelist;\n\n    EnumerableSet.AddressSet private _whitelist;\n    EnumerableSet.AddressSet private _frozenlist;\n\n    // Modifiers\n\n    modifier onlyWhitelisted(address _account) {\n        if (_isDisabledWitelist) {\n            require(\n                _whitelist.contains(_account),\n                \"STBX: not whitelisted address.\"\n            );\n        }\n        _;\n    }\n\n    modifier onlyWithUnfrozenFunds(address _account) {\n        require(\n            _frozenlist.contains(_account) == false,\n            \"STBX: funds are frozen.\"\n        );\n        _;\n    }\n\n    /**\n     * @notice STBXToken simply implements a ERC20 token.\n     */\n    constructor() public Roles(msg.sender) {\n        _name = \"Stobox Demo Token\";\n        _symbol = \"SDCS7\";\n        _decimals = 0;\n        _kDecimals = 18;\n        _k = 10**_kDecimals;\n        _defaultTransferLimit = 0;\n\n        _mint(msg.sender, 10000000);\n        _whitelist.add(msg.sender);\n    }\n\n    // External functions\n\n    /**\n     * @notice Enable or disable the whitelist.\n     * @param _value Flag that enables or disables the whitelist.\n     */\n    function toggleOpenWhitelist(bool _value) external onlySuperAdmin {\n        _isDisabledWitelist = _value;\n    }\n\n    /**\n     * @notice Add an address to the whitelist.\n     * @param _address Address to add to the whitelist.\n     */\n    function addAddressToWhitelist(address _address) external onlyWhitelister {\n        _whitelist.add(_address);\n        _frozenlist.remove(_address);\n    }\n\n    /**\n     * @notice Remove an address from the whitelist.\n     * @param _address Address to remove from the whitelist.\n     */\n    function removeAddressFromWhitelist(address _address)\n        external\n        onlyWhitelister\n    {\n        _whitelist.remove(_address);\n        _frozenlist.add(_address);\n    }\n\n    /**\n     * @notice Freeze all funds at the address.\n     * @param _account Account at which to freeze funds.\n     */\n    function freezeFunds(address _account) external onlyFreezer {\n        _frozenlist.add(_account);\n    }\n\n    /**\n     * @notice Unfreeze all funds at the address.\n     * @param _account Account at which to unfreeze funds.\n     */\n    function unfreezeFunds(address _account) external onlyFreezer {\n        _frozenlist.remove(_account);\n    }\n\n    /**\n     * @notice Minting of new tokens to the address.\n     * @param _account Account where to mint tokens.\n     * @param _amount Amount of tokens to mint.\n     */\n    function mint(address _account, uint256 _amount)\n        external\n        onlySuperAdmin\n        onlyWhitelisted(_account)\n    {\n        _mint(_account, _getNormilizedValue(_amount));\n    }\n\n    /**\n     * @notice Burning of tokens from the address.\n     * @param _account Account where to burn tokens.\n     * @param _amount Amount of tokens to burn.\n     *\n     * Calling conditions:\n     *\n     * - balance of `_account` must be grater or equal than `_amount`.\n     */\n    function burn(address _account, uint256 _amount) external onlySuperAdmin {\n        require(balanceOf(_account) >= _amount, \"STBX: balance too low\");\n        _burn(_account, _getNormilizedValue(_amount));\n    }\n\n    /**\n     * @notice Transfer funds from one address to another.\n     * @param _from Address from which to transfer funds.\n     * @param _where Address where to transfer funds.\n     * @param _amount Amount to transfer.\n     *\n     * Requirements:\n     *\n     * - balance of `_from` must be greater or equal to `_amount`.\n     */\n    function transferFunds(\n        address _from,\n        address _where,\n        uint256 _amount\n    ) external onlyTransporter onlyWhitelisted(_where) returns (bool) {\n        require(balanceOf(_from) >= _amount, \"STBX: not enough tokens\");\n\n        _transfer(_from, _where, _getNormilizedValue(_amount));\n\n        return true;\n    }\n\n    /**\n     * @notice Stock split or merge (consolidation).\n     * @param _x The count of shares before split.\n     * @param _y The count of shares after split.\n     * @dev 1-2: one share turns into two. 3-2: three shares turns into two.\n     *\n     * Requirements:\n     *\n     * - `_x` must not be equal to `_y`.\n     * - `_x` and `_y` must be greater than 0.\n     */\n    function splitOrMerge(uint256 _x, uint256 _y) external onlySuperAdmin {\n        require(_x != _y, \"STBX: _x must not be equal to _y\");\n        require(_x > 0, \"STBX: _x must be greater than 0\");\n        require(_y > 0, \"STBX: _y must be greater than 0\");\n\n        _split(_x, _y);\n    }\n\n    /**\n     * @notice Set transfer limit for address.\n     * @param _account Address where to set transfer limit.\n     * @param _transferLimit Daily transfer limit for an `_account`.\n     */\n    function setTransferLimit(address _account, uint256 _transferLimit)\n        external\n        onlyLimiter\n    {\n        _transferLimits[_account].transferLimit = _transferLimit;\n        _transferLimits[_account].allowedToTransfer = _transferLimit;\n        _transferLimits[_account].lastTransferLimitTimestamp = block.timestamp;\n    }\n\n    // External view functions\n\n    /**\n     * @notice Checking if the address is whitelisted.\n     * @param _address Address to check in the whitelist.\n     * @return Is the address in the whitelist.\n     */\n    function isWhitelistedAddress(address _address)\n        external\n        view\n        returns (bool)\n    {\n        return _whitelist.contains(_address);\n    }\n\n    /**\n     * @notice Checking if the funds are frozen.\n     * @param _account Address to check.\n     * @return Is the funds are frozen.\n     */\n    function isFrozenFunds(address _account) external view returns (bool) {\n        return _frozenlist.contains(_account);\n    }\n\n    /**\n     * @notice Get main coefficient.\n     * @return Coefficient.\n     */\n    function getK() external view returns (uint256) {\n        return _k;\n    }\n\n    // Public functions\n\n    /**\n     * @notice Returns the name of the token.\n     */\n    function name() public view returns (string memory) {\n        return _name;\n    }\n\n    /**\n     * @notice Returns the symbol of the token.\n     */\n    function symbol() public view returns (string memory) {\n        return _symbol;\n    }\n\n    /**\n     * @notice Returns the number of decimals used to get its user representation.\n     */\n    function decimals() public view returns (uint8) {\n        return _decimals;\n    }\n\n    /**\n     * @notice Returns the amount of tokens in existence.\n     */\n    function totalSupply() public view override returns (uint256) {\n        return _totalSupply.mul(_k).div(10**_kDecimals);\n    }\n\n    /**\n     * @notice Returns the amount of tokens owned by `_account`.\n     * @param _account Account to check balance.\n     */\n    function balanceOf(address _account)\n        public\n        view\n        override\n        returns (uint256)\n    {\n        return _balances[_account].mul(_k).div(10**_kDecimals);\n    }\n\n    /**\n     * @notice Returns transfer limit for `_account`.\n     * Can be defaul value or personally assigned to the `_account` value.\n     * @param _account Account to get transfer limit.\n     */\n    function getTransferLimit(address _account) public view returns (uint256) {\n        if (_transferLimits[_account].transferLimit > 0) {\n            return _transferLimits[_account].transferLimit;\n        }\n\n        return _defaultTransferLimit;\n    }\n\n    /**\n     * @notice Get the number of tokens that can be transferred today\n     * by `_account`. Can be 0 in 2 cases:\n     * a) `_updateTransferLimit` function not called yet;\n     * b) transfer limit was set to 0 by limiter.\n     * @param _account Account to get amount allowed to transfer today.\n     */\n    function getAllowedToTransfer(address _account)\n        public\n        view\n        returns (uint256)\n    {\n        return _transferLimits[_account].allowedToTransfer;\n    }\n\n    /**\n     * @notice Moves `_amount` tokens from the caller's account to `_recipient`.\n     * Emits a {Transfer} event.\n     * @param _recipient Recipient of the tokens.\n     * @param _amount Amount tokens to move.\n     * @return A boolean value indicating whether the operation succeeded.\n     */\n    function transfer(address _recipient, uint256 _amount)\n        public\n        virtual\n        override\n        onlyWhitelisted(msg.sender)\n        onlyWhitelisted(_recipient)\n        onlyWithUnfrozenFunds(msg.sender)\n        returns (bool)\n    {\n        _updateTransferLimit(msg.sender, _amount);\n        _transfer(msg.sender, _recipient, _getNormilizedValue(_amount));\n\n        return true;\n    }\n\n    /**\n     * @notice the remaining number of tokens that `_spender` will be\n     * allowed to spend on behalf of `_owner` through {transferFrom}. This is\n     * zero by default.\n     * @param _owner Owner of tokens.\n     * @param _spender Spender of tokens.\n     */\n    function allowance(address _owner, address _spender)\n        public\n        view\n        virtual\n        override\n        returns (uint256)\n    {\n        return _allowances[_owner][_spender].mul(_k).div(10**_kDecimals);\n    }\n\n    /**\n     * @notice Sets `_amount` as the allowance of `_spender` over the caller's tokens.\n     * Emits an {Approval} event.\n     * @param _spender Spender of the tokens.\n     * @param _amount Amount of tokens to set as the allowance.\n     * @return A boolean value indicating whether the operation succeeded.\n     */\n    function approve(address _spender, uint256 _amount)\n        public\n        virtual\n        override\n        onlyWhitelisted(msg.sender)\n        onlyWhitelisted(_spender)\n        onlyWithUnfrozenFunds(msg.sender)\n        returns (bool)\n    {\n        _approve(msg.sender, _spender, _getNormilizedValue(_amount));\n\n        return true;\n    }\n\n    /**\n     * @notice Moves `_amount` tokens from `_sender` to `_recipient` using the\n     * allowance mechanism. `_amount` is then deducted from the caller's\n     * allowance.\n     * Emits a {Transfer} event.\n     * @param _sender Spender of tokens.\n     * @param _recipient Recipient of tokens.\n     * @param _amount Amount of tokens to transfer.\n     * @return A boolean value indicating whether the operation succeeded.\n     *\n     * Requirements:\n     *\n     * - `_amount` must be less or equal allowance for the `_sender`.\n     */\n    function transferFrom(\n        address _sender,\n        address _recipient,\n        uint256 _amount\n    )\n        public\n        virtual\n        override\n        onlyWhitelisted(_sender)\n        onlyWhitelisted(_recipient)\n        onlyWithUnfrozenFunds(_sender)\n        returns (bool)\n    {\n        _updateTransferLimit(_sender, _amount);\n        _transfer(_sender, _recipient, _getNormilizedValue(_amount));\n        _approve(\n            _sender,\n            msg.sender,\n            _allowances[_sender][msg.sender].sub(\n                _getNormilizedValue(_amount),\n                \"STBX: transfer amount exceeds allowance\"\n            )\n        );\n\n        return true;\n    }\n\n    /**\n     * @notice Increase allowance for the `_spender`.\n     * @param _spender Spender of tokens.\n     * @param _addedValue Value to add to the allowance for the `_spender`.\n     * @return A boolean value indicating whether the operation succeeded.\n     */\n    function increaseAllowance(address _spender, uint256 _addedValue)\n        public\n        virtual\n        onlyWhitelisted(msg.sender)\n        onlyWhitelisted(_spender)\n        onlyWithUnfrozenFunds(msg.sender)\n        returns (bool)\n    {\n        _approve(\n            msg.sender,\n            _spender,\n            _allowances[msg.sender][_spender].add(\n                _getNormilizedValue(_addedValue)\n            )\n        );\n\n        return true;\n    }\n\n    /**\n     * @notice Decrease allowance for the `_spender`.\n     * @param _spender Spender of tokens.\n     * @param _subtractedValue Value to substruct from the allowance for the `_spender`.\n     * @return A boolean value indicating whether the operation succeeded.\n     *\n     * Requirements:\n     *\n     * - result of substruction must be greater or equal to 0.\n     */\n    function decreaseAllowance(address _spender, uint256 _subtractedValue)\n        public\n        virtual\n        onlyWhitelisted(msg.sender)\n        onlyWhitelisted(_spender)\n        onlyWithUnfrozenFunds(msg.sender)\n        returns (bool)\n    {\n        _approve(\n            msg.sender,\n            _spender,\n            _allowances[msg.sender][_spender].sub(\n                _getNormilizedValue(_subtractedValue),\n                \"STBX: decreased allowance below zero\"\n            )\n        );\n\n        return true;\n    }\n\n    // Internal functions\n\n    /**\n     * @notice Moves tokens `_amount` from `_sender` to `_recipient`.\n     * Emits a {Transfer} event.\n     * @param _sender Sender of tokens.\n     * @param _recipient Recipient of tokens.\n     * @param _amount Amount of tokens to transfer.\n     *\n     * Requirements:\n     *\n     * - `_sender` cannot be the zero address.\n     * - `_recipient` cannot be the zero address.\n     * - `_sender` must have a balance of at least `_amount`.\n     */\n    function _transfer(\n        address _sender,\n        address _recipient,\n        uint256 _amount\n    ) internal virtual {\n        require(_sender != address(0), \"STBX: transfer from the zero address\");\n        require(_recipient != address(0), \"STBX: transfer to the zero address\");\n\n        _beforeTokenTransfer(_sender, _recipient, _amount);\n\n        _balances[_sender] = _balances[_sender].sub(\n            _amount,\n            \"STBX: transfer amount exceeds balance\"\n        );\n        _balances[_recipient] = _balances[_recipient].add(_amount);\n\n        emit Transfer(_sender, _recipient, _amount);\n    }\n\n    /** @notice Creates `_amount` tokens and assigns them to `_account`, increasing\n     * the total supply.\n     * Emits a {Transfer} event with `_from` set to the zero address.\n     * @param _account Account where to mint tokens.\n     * @param _amount Amount of tokens to mint.\n     *\n     * Requirements:\n     *\n     * - `_account` cannot be the zero address.\n     */\n    function _mint(address _account, uint256 _amount) internal virtual {\n        require(_account != address(0), \"STBX: mint to the zero address\");\n\n        _beforeTokenTransfer(address(0), _account, _amount);\n\n        _totalSupply = _totalSupply.add(_amount);\n        _balances[_account] = _balances[_account].add(_amount);\n\n        emit Transfer(address(0), _account, _amount);\n    }\n\n    /**\n     * @notice Destroys `_amount` tokens from `_account`, reducing the\n     * total supply.\n     * Emits a {Transfer} event with `_to` set to the zero address.\n     * @param _account Account where to burn tokens.\n     * @param _amount Amount of tokens to burn.\n     *\n     * Requirements:\n     *\n     * - `_account` cannot be the zero address.\n     * - `_amount` must have at least `amount` tokens.\n     */\n    function _burn(address _account, uint256 _amount) internal virtual {\n        require(_account != address(0), \"STBX: burn from the zero address\");\n\n        _beforeTokenTransfer(_account, address(0), _amount);\n\n        _balances[_account] = _balances[_account].sub(\n            _amount,\n            \"STBX: burn amount exceeds balance\"\n        );\n        _totalSupply = _totalSupply.sub(_amount);\n\n        emit Transfer(_account, address(0), _amount);\n    }\n\n    /**\n     * @notice Sets `_amount` as the allowance of `_spender` over the `_owner` s tokens.\n     * Emits an {Approval} event.\n     * @param _owner Owner of the tokens.\n     * @param _spender Spender of the tokens.\n     * @param _amount Amount of tokens to set as the allowance.\n     *\n     * Requirements:\n     *\n     * - `_owner` cannot be the zero address.\n     * - `_spender` cannot be the zero address.\n     */\n    function _approve(\n        address _owner,\n        address _spender,\n        uint256 _amount\n    ) internal virtual {\n        require(_owner != address(0), \"STBX: approve from the zero address\");\n        require(_spender != address(0), \"STBX: approve to the zero address\");\n\n        _allowances[_owner][_spender] = _amount;\n\n        emit Approval(_owner, _spender, _amount);\n    }\n\n    /**\n     * @notice Hook that is called before any transfer of tokens. This includes\n     * minting and burning.\n     * @param _from The address from which tokens will be moved.\n     * @param _to The address where tokens will be moved.\n     * @param _amount Amount of tokens that will be moved.\n     *\n     * Calling conditions:\n     *\n     * - when `_from` and `_to` are both non-zero, `_amount` of ``_from``'s tokens\n     * will be to transferred to `_to`.\n     * - when `_from` is zero, `_amount` tokens will be minted for `_to`.\n     * - when `_to` is zero, `_amount` of ``_from``'s tokens will be burned.\n     * - `_from` and `_to` are never both zero.\n     */\n    function _beforeTokenTransfer(\n        address _from,\n        address _to,\n        uint256 _amount\n    ) internal virtual {}\n\n    // Private functions\n\n    /**\n     * @notice Changes the global multiplier during stock splits and consolidations.\n     * @param _x First coefficient.\n     * @param _y Second coefficient.\n     */\n    function _split(uint256 _x, uint256 _y) private {\n        _k = _k.mul(_y.mul(10**_kDecimals).div(_x));\n        _k = _k.div(10**18);\n    }\n\n    /**\n     * @notice Getting normalized value depends on coefficient.\n     * @param _value Value to normilize.\n     * @return Normilized value.\n     */\n    function _getNormilizedValue(uint256 _value)\n        private\n        view\n        returns (uint256)\n    {\n        return _value.mul(10**_kDecimals).div(_k);\n    }\n\n    /**\n     * @notice Update transfer limit for `_account` before each operation with\n     * tokens.\n     * @param _account Account to update transfer limit if needed.\n     * @param _amount Amount to substruct from transfer limit after updating.\n     */\n    function _updateTransferLimit(address _account, uint256 _amount) private {\n        if (\n            _transferLimits[_account].lastTransferLimitTimestamp + 1 days <\n            block.timestamp\n        ) {\n            _transferLimits[_account].lastTransferLimitTimestamp = block\n                .timestamp;\n\n            if (_transferLimits[_account].transferLimit > 0) {\n                _transferLimits[_account].allowedToTransfer = _transferLimits[\n                    _account\n                ]\n                    .transferLimit;\n            } else {\n                _transferLimits[_account]\n                    .allowedToTransfer = _defaultTransferLimit;\n            }\n        }\n\n        _transferLimits[_account].allowedToTransfer = _transferLimits[_account]\n            .allowedToTransfer\n            .sub(_amount, \"STBX: transfer exceeds your transfer limit\");\n    }\n}\n",
  "sourcePath": "/home/jenja/DS_Dashboard_Securities_Smart_Contract_v.1.1/contracts/STBX.sol",
  "compiler": {
    "name": "solc",
    "version": "0.6.12+commit.27d51765.Emscripten.clang"
  },
  "schemaVersion": "3.2.5",
  "updatedAt": "2021-01-19T09:37:30.123Z",
  "networkType": "ethereum",
  "devdoc": {
    "author": "Stobox Technologies Inc.",
    "details": "STBX ERC20 Token",
    "kind": "dev",
    "methods": {
      "addAddressToWhitelist(address)": {
        "params": {
          "_address": "Address to add to the whitelist."
        }
      },
      "addFreezer(address)": {
        "params": {
          "_address": "Address for assigning the freezer role."
        }
      },
      "addLimiter(address)": {
        "params": {
          "_address": "Address for assigning the limiter role."
        }
      },
      "addSuperAdmin(address)": {
        "params": {
          "_address": "Address for assigning the super admin role."
        }
      },
      "addTransporter(address)": {
        "params": {
          "_address": "Address for assigning the transporter role."
        }
      },
      "addVoter(address)": {
        "params": {
          "_address": "Address for assigning the voter role."
        }
      },
      "addWhitelister(address)": {
        "params": {
          "_address": "Address for assigning the whitelister role."
        }
      },
      "allowance(address,address)": {
        "params": {
          "_owner": "Owner of tokens.",
          "_spender": "Spender of tokens."
        }
      },
      "approve(address,uint256)": {
        "params": {
          "_amount": "Amount of tokens to set as the allowance.",
          "_spender": "Spender of the tokens."
        },
        "returns": {
          "_0": "A boolean value indicating whether the operation succeeded."
        }
      },
      "balanceOf(address)": {
        "params": {
          "_account": "Account to check balance."
        }
      },
      "burn(address,uint256)": {
        "params": {
          "_account": "Account where to burn tokens.",
          "_amount": "Amount of tokens to burn. Calling conditions: - balance of `_account` must be grater or equal than `_amount`."
        }
      },
      "decreaseAllowance(address,uint256)": {
        "params": {
          "_spender": "Spender of tokens.",
          "_subtractedValue": "Value to substruct from the allowance for the `_spender`."
        },
        "returns": {
          "_0": "A boolean value indicating whether the operation succeeded. Requirements: - result of substruction must be greater or equal to 0."
        }
      },
      "freezeFunds(address)": {
        "params": {
          "_account": "Account at which to freeze funds."
        }
      },
      "getAllowedToTransfer(address)": {
        "params": {
          "_account": "Account to get amount allowed to transfer today."
        }
      },
      "getK()": {
        "returns": {
          "_0": "Coefficient."
        }
      },
      "getRoleAdmin(bytes32)": {
        "details": "Returns the admin role that controls `role`. See {grantRole} and {revokeRole}. To change a role's admin, use {_setRoleAdmin}."
      },
      "getRoleMember(bytes32,uint256)": {
        "details": "Returns one of the accounts that have `role`. `index` must be a value between 0 and {getRoleMemberCount}, non-inclusive. Role bearers are not sorted in any particular way, and their ordering may change at any point. WARNING: When using {getRoleMember} and {getRoleMemberCount}, make sure you perform all queries on the same block. See the following https://forum.openzeppelin.com/t/iterating-over-elements-on-enumerableset-in-openzeppelin-contracts/2296[forum post] for more information."
      },
      "getRoleMemberCount(bytes32)": {
        "details": "Returns the number of accounts that have `role`. Can be used together with {getRoleMember} to enumerate all bearers of a role."
      },
      "getTransferLimit(address)": {
        "params": {
          "_account": "Account to get transfer limit."
        }
      },
      "grantRole(bytes32,address)": {
        "details": "Grants `role` to `account`. If `account` had not been already granted `role`, emits a {RoleGranted} event. Requirements: - the caller must have ``role``'s admin role."
      },
      "hasRole(bytes32,address)": {
        "details": "Returns `true` if `account` has been granted `role`."
      },
      "increaseAllowance(address,uint256)": {
        "params": {
          "_addedValue": "Value to add to the allowance for the `_spender`.",
          "_spender": "Spender of tokens."
        },
        "returns": {
          "_0": "A boolean value indicating whether the operation succeeded."
        }
      },
      "isFreezer(address)": {
        "params": {
          "_address": "Address for checking."
        }
      },
      "isFrozenFunds(address)": {
        "params": {
          "_account": "Address to check."
        },
        "returns": {
          "_0": "Is the funds are frozen."
        }
      },
      "isLimiter(address)": {
        "params": {
          "_address": "Address for checking."
        }
      },
      "isSuperAdmin(address)": {
        "params": {
          "_address": "Address for checking."
        }
      },
      "isTransporter(address)": {
        "params": {
          "_address": "Address for checking."
        }
      },
      "isVoter(address)": {
        "params": {
          "_address": "Address for checking."
        }
      },
      "isWhitelistedAddress(address)": {
        "params": {
          "_address": "Address to check in the whitelist."
        },
        "returns": {
          "_0": "Is the address in the whitelist."
        }
      },
      "isWhitelister(address)": {
        "params": {
          "_address": "Address for checking."
        }
      },
      "mint(address,uint256)": {
        "params": {
          "_account": "Account where to mint tokens.",
          "_amount": "Amount of tokens to mint."
        }
      },
      "owner()": {
        "details": "Returns the address of the current owner."
      },
      "removeAddressFromWhitelist(address)": {
        "params": {
          "_address": "Address to remove from the whitelist."
        }
      },
      "removeFreezer(address)": {
        "params": {
          "_address": "Address for removing the freezer role."
        }
      },
      "removeLimiter(address)": {
        "params": {
          "_address": "Address for removing the limiter role."
        }
      },
      "removeTransporter(address)": {
        "params": {
          "_address": "Address for removing the transporter role."
        }
      },
      "removeVoter(address)": {
        "params": {
          "_address": "Address for removing the voter role."
        }
      },
      "removeWhitelister(address)": {
        "params": {
          "_address": "Address for removing the whitelister role."
        }
      },
      "renounceOwnership()": {
        "details": "Leaves the contract without owner. It will not be possible to call `onlyOwner` functions anymore. Can only be called by the current owner. NOTE: Renouncing ownership will leave the contract without an owner, thereby removing any functionality that is only available to the owner."
      },
      "renounceRole(bytes32,address)": {
        "details": "Revokes `role` from the calling account. Roles are often managed via {grantRole} and {revokeRole}: this function's purpose is to provide a mechanism for accounts to lose their privileges if they are compromised (such as when a trusted device is misplaced). If the calling account had been granted `role`, emits a {RoleRevoked} event. Requirements: - the caller must be `account`."
      },
      "revokeRole(bytes32,address)": {
        "details": "Revokes `role` from `account`. If `account` had been granted `role`, emits a {RoleRevoked} event. Requirements: - the caller must have ``role``'s admin role."
      },
      "setTransferLimit(address,uint256)": {
        "params": {
          "_account": "Address where to set transfer limit.",
          "_transferLimit": "Daily transfer limit for an `_account`."
        }
      },
      "splitOrMerge(uint256,uint256)": {
        "details": "1-2: one share turns into two. 3-2: three shares turns into two. Requirements: - `_x` must not be equal to `_y`. - `_x` and `_y` must be greater than 0.",
        "params": {
          "_x": "The count of shares before split.",
          "_y": "The count of shares after split."
        }
      },
      "toggleOpenWhitelist(bool)": {
        "params": {
          "_value": "Flag that enables or disables the whitelist."
        }
      },
      "transfer(address,uint256)": {
        "params": {
          "_amount": "Amount tokens to move.",
          "_recipient": "Recipient of the tokens."
        },
        "returns": {
          "_0": "A boolean value indicating whether the operation succeeded."
        }
      },
      "transferFrom(address,address,uint256)": {
        "params": {
          "_amount": "Amount of tokens to transfer.",
          "_recipient": "Recipient of tokens.",
          "_sender": "Spender of tokens."
        },
        "returns": {
          "_0": "A boolean value indicating whether the operation succeeded. Requirements: - `_amount` must be less or equal allowance for the `_sender`."
        }
      },
      "transferFunds(address,address,uint256)": {
        "params": {
          "_amount": "Amount to transfer. Requirements: - balance of `_from` must be greater or equal to `_amount`.",
          "_from": "Address from which to transfer funds.",
          "_where": "Address where to transfer funds."
        }
      },
      "transferOwnership(address)": {
        "details": "Transfers ownership of the contract to a new account (`newOwner`). Can only be called by the current owner."
      },
      "unfreezeFunds(address)": {
        "params": {
          "_account": "Account at which to unfreeze funds."
        }
      }
    },
    "title": "STBXToken",
    "version": 1
  },
  "userdoc": {
    "kind": "user",
    "methods": {
      "addAddressToWhitelist(address)": {
        "notice": "Add an address to the whitelist."
      },
      "addFreezer(address)": {
        "notice": "Add the freezer role for the address."
      },
      "addLimiter(address)": {
        "notice": "Add the limiter role for the address."
      },
      "addSuperAdmin(address)": {
        "notice": "Add the super admin role for the address."
      },
      "addTransporter(address)": {
        "notice": "Add the transporter role for the address."
      },
      "addVoter(address)": {
        "notice": "Add the voter role for the address."
      },
      "addWhitelister(address)": {
        "notice": "Add the whitelister role for the address."
      },
      "allowance(address,address)": {
        "notice": "the remaining number of tokens that `_spender` will be allowed to spend on behalf of `_owner` through {transferFrom}. This is zero by default."
      },
      "approve(address,uint256)": {
        "notice": "Sets `_amount` as the allowance of `_spender` over the caller's tokens. Emits an {Approval} event."
      },
      "balanceOf(address)": {
        "notice": "Returns the amount of tokens owned by `_account`."
      },
      "burn(address,uint256)": {
        "notice": "Burning of tokens from the address."
      },
      "constructor": "STBXToken simply implements a ERC20 token.",
      "decimals()": {
        "notice": "Returns the number of decimals used to get its user representation."
      },
      "decreaseAllowance(address,uint256)": {
        "notice": "Decrease allowance for the `_spender`."
      },
      "freezeFunds(address)": {
        "notice": "Freeze all funds at the address."
      },
      "getAllowedToTransfer(address)": {
        "notice": "Get the number of tokens that can be transferred today by `_account`. Can be 0 in 2 cases: a) `_updateTransferLimit` function not called yet; b) transfer limit was set to 0 by limiter."
      },
      "getK()": {
        "notice": "Get main coefficient."
      },
      "getTransferLimit(address)": {
        "notice": "Returns transfer limit for `_account`. Can be defaul value or personally assigned to the `_account` value."
      },
      "increaseAllowance(address,uint256)": {
        "notice": "Increase allowance for the `_spender`."
      },
      "isFreezer(address)": {
        "notice": "Checks if the address is assigned the freezer role."
      },
      "isFrozenFunds(address)": {
        "notice": "Checking if the funds are frozen."
      },
      "isLimiter(address)": {
        "notice": "Checks if the address is assigned the limiter role."
      },
      "isSuperAdmin(address)": {
        "notice": "Checks if the address is assigned the super admin role."
      },
      "isTransporter(address)": {
        "notice": "Checks if the address is assigned the transporter role."
      },
      "isVoter(address)": {
        "notice": "Checks if the address is assigned the voter role."
      },
      "isWhitelistedAddress(address)": {
        "notice": "Checking if the address is whitelisted."
      },
      "isWhitelister(address)": {
        "notice": "Checks if the address is assigned the whitelister role."
      },
      "mint(address,uint256)": {
        "notice": "Minting of new tokens to the address."
      },
      "name()": {
        "notice": "Returns the name of the token."
      },
      "removeAddressFromWhitelist(address)": {
        "notice": "Remove an address from the whitelist."
      },
      "removeFreezer(address)": {
        "notice": "Remove the freezer role for the address."
      },
      "removeLimiter(address)": {
        "notice": "Remove the limiter role for the address."
      },
      "removeTransporter(address)": {
        "notice": "Remove the transporter role for the address."
      },
      "removeVoter(address)": {
        "notice": "Remove the voter role for the address."
      },
      "removeWhitelister(address)": {
        "notice": "Remove the whitelister role for the address."
      },
      "renounceSuperAdmin()": {
        "notice": "Renouncement of supera dmin role."
      },
      "setTransferLimit(address,uint256)": {
        "notice": "Set transfer limit for address."
      },
      "splitOrMerge(uint256,uint256)": {
        "notice": "Stock split or merge (consolidation)."
      },
      "symbol()": {
        "notice": "Returns the symbol of the token."
      },
      "toggleOpenWhitelist(bool)": {
        "notice": "Enable or disable the whitelist."
      },
      "totalSupply()": {
        "notice": "Returns the amount of tokens in existence."
      },
      "transfer(address,uint256)": {
        "notice": "Moves `_amount` tokens from the caller's account to `_recipient`. Emits a {Transfer} event."
      },
      "transferFrom(address,address,uint256)": {
        "notice": "Moves `_amount` tokens from `_sender` to `_recipient` using the allowance mechanism. `_amount` is then deducted from the caller's allowance. Emits a {Transfer} event."
      },
      "transferFunds(address,address,uint256)": {
        "notice": "Transfer funds from one address to another."
      },
      "unfreezeFunds(address)": {
        "notice": "Unfreeze all funds at the address."
      }
    },
    "version": 1
  }
}