{
  "contractName": "STBXToken",
  "abi": [
    {
      "inputs": [],
      "stateMutability": "nonpayable",
      "type": "constructor"
    },
    {
      "anonymous": false,
      "inputs": [
        {
          "indexed": true,
          "internalType": "address",
          "name": "owner",
          "type": "address"
        },
        {
          "indexed": true,
          "internalType": "address",
          "name": "spender",
          "type": "address"
        },
        {
          "indexed": false,
          "internalType": "uint256",
          "name": "value",
          "type": "uint256"
        }
      ],
      "name": "Approval",
      "type": "event"
    },
    {
      "anonymous": false,
      "inputs": [
        {
          "indexed": true,
          "internalType": "address",
          "name": "previousOwner",
          "type": "address"
        },
        {
          "indexed": true,
          "internalType": "address",
          "name": "newOwner",
          "type": "address"
        }
      ],
      "name": "OwnershipTransferred",
      "type": "event"
    },
    {
      "anonymous": false,
      "inputs": [
        {
          "indexed": true,
          "internalType": "bytes32",
          "name": "role",
          "type": "bytes32"
        },
        {
          "indexed": true,
          "internalType": "bytes32",
          "name": "previousAdminRole",
          "type": "bytes32"
        },
        {
          "indexed": true,
          "internalType": "bytes32",
          "name": "newAdminRole",
          "type": "bytes32"
        }
      ],
      "name": "RoleAdminChanged",
      "type": "event"
    },
    {
      "anonymous": false,
      "inputs": [
        {
          "indexed": true,
          "internalType": "bytes32",
          "name": "role",
          "type": "bytes32"
        },
        {
          "indexed": true,
          "internalType": "address",
          "name": "account",
          "type": "address"
        },
        {
          "indexed": true,
          "internalType": "address",
          "name": "sender",
          "type": "address"
        }
      ],
      "name": "RoleGranted",
      "type": "event"
    },
    {
      "anonymous": false,
      "inputs": [
        {
          "indexed": true,
          "internalType": "bytes32",
          "name": "role",
          "type": "bytes32"
        },
        {
          "indexed": true,
          "internalType": "address",
          "name": "account",
          "type": "address"
        },
        {
          "indexed": true,
          "internalType": "address",
          "name": "sender",
          "type": "address"
        }
      ],
      "name": "RoleRevoked",
      "type": "event"
    },
    {
      "anonymous": false,
      "inputs": [
        {
          "indexed": true,
          "internalType": "address",
          "name": "from",
          "type": "address"
        },
        {
          "indexed": true,
          "internalType": "address",
          "name": "to",
          "type": "address"
        },
        {
          "indexed": false,
          "internalType": "uint256",
          "name": "value",
          "type": "uint256"
        }
      ],
      "name": "Transfer",
      "type": "event"
    },
    {
      "inputs": [],
      "name": "DEFAULT_ADMIN_ROLE",
      "outputs": [
        {
          "internalType": "bytes32",
          "name": "",
          "type": "bytes32"
        }
      ],
      "stateMutability": "view",
      "type": "function",
      "constant": true
    },
    {
      "inputs": [],
      "name": "FREEZER_ROLE",
      "outputs": [
        {
          "internalType": "bytes32",
          "name": "",
          "type": "bytes32"
        }
      ],
      "stateMutability": "view",
      "type": "function",
      "constant": true
    },
    {
      "inputs": [],
      "name": "LIMITER_ROLE",
      "outputs": [
        {
          "internalType": "bytes32",
          "name": "",
          "type": "bytes32"
        }
      ],
      "stateMutability": "view",
      "type": "function",
      "constant": true
    },
    {
      "inputs": [],
      "name": "TRANSPORTER_ROLE",
      "outputs": [
        {
          "internalType": "bytes32",
          "name": "",
          "type": "bytes32"
        }
      ],
      "stateMutability": "view",
      "type": "function",
      "constant": true
    },
    {
      "inputs": [],
      "name": "VOTER_ROLE",
      "outputs": [
        {
          "internalType": "bytes32",
          "name": "",
          "type": "bytes32"
        }
      ],
      "stateMutability": "view",
      "type": "function",
      "constant": true
    },
    {
      "inputs": [],
      "name": "WHITELISTER_ROLE",
      "outputs": [
        {
          "internalType": "bytes32",
          "name": "",
          "type": "bytes32"
        }
      ],
      "stateMutability": "view",
      "type": "function",
      "constant": true
    },
    {
      "inputs": [],
      "name": "_isDisabledWitelist",
      "outputs": [
        {
          "internalType": "bool",
          "name": "",
          "type": "bool"
        }
      ],
      "stateMutability": "view",
      "type": "function",
      "constant": true
    },
    {
      "inputs": [],
      "name": "_isEnabledTransactionCount",
      "outputs": [
        {
          "internalType": "bool",
          "name": "",
          "type": "bool"
        }
      ],
      "stateMutability": "view",
      "type": "function",
      "constant": true
    },
    {
      "inputs": [
        {
          "internalType": "address",
          "name": "_address",
          "type": "address"
        }
      ],
      "name": "addFreezer",
      "outputs": [],
      "stateMutability": "nonpayable",
      "type": "function"
    },
    {
      "inputs": [
        {
          "internalType": "address",
          "name": "_address",
          "type": "address"
        }
      ],
      "name": "addLimiter",
      "outputs": [],
      "stateMutability": "nonpayable",
      "type": "function"
    },
    {
      "inputs": [
        {
          "internalType": "address",
          "name": "_address",
          "type": "address"
        }
      ],
      "name": "addSuperAdmin",
      "outputs": [],
      "stateMutability": "nonpayable",
      "type": "function"
    },
    {
      "inputs": [
        {
          "internalType": "address",
          "name": "_address",
          "type": "address"
        }
      ],
      "name": "addTransporter",
      "outputs": [],
      "stateMutability": "nonpayable",
      "type": "function"
    },
    {
      "inputs": [
        {
          "internalType": "address",
          "name": "_address",
          "type": "address"
        }
      ],
      "name": "addVoter",
      "outputs": [],
      "stateMutability": "nonpayable",
      "type": "function"
    },
    {
      "inputs": [
        {
          "internalType": "address",
          "name": "_address",
          "type": "address"
        }
      ],
      "name": "addWhitelister",
      "outputs": [],
      "stateMutability": "nonpayable",
      "type": "function"
    },
    {
      "inputs": [
        {
          "internalType": "bytes32",
          "name": "role",
          "type": "bytes32"
        }
      ],
      "name": "getRoleAdmin",
      "outputs": [
        {
          "internalType": "bytes32",
          "name": "",
          "type": "bytes32"
        }
      ],
      "stateMutability": "view",
      "type": "function",
      "constant": true
    },
    {
      "inputs": [
        {
          "internalType": "bytes32",
          "name": "role",
          "type": "bytes32"
        },
        {
          "internalType": "uint256",
          "name": "index",
          "type": "uint256"
        }
      ],
      "name": "getRoleMember",
      "outputs": [
        {
          "internalType": "address",
          "name": "",
          "type": "address"
        }
      ],
      "stateMutability": "view",
      "type": "function",
      "constant": true
    },
    {
      "inputs": [
        {
          "internalType": "bytes32",
          "name": "role",
          "type": "bytes32"
        }
      ],
      "name": "getRoleMemberCount",
      "outputs": [
        {
          "internalType": "uint256",
          "name": "",
          "type": "uint256"
        }
      ],
      "stateMutability": "view",
      "type": "function",
      "constant": true
    },
    {
      "inputs": [
        {
          "internalType": "bytes32",
          "name": "role",
          "type": "bytes32"
        },
        {
          "internalType": "address",
          "name": "account",
          "type": "address"
        }
      ],
      "name": "grantRole",
      "outputs": [],
      "stateMutability": "nonpayable",
      "type": "function"
    },
    {
      "inputs": [
        {
          "internalType": "bytes32",
          "name": "role",
          "type": "bytes32"
        },
        {
          "internalType": "address",
          "name": "account",
          "type": "address"
        }
      ],
      "name": "hasRole",
      "outputs": [
        {
          "internalType": "bool",
          "name": "",
          "type": "bool"
        }
      ],
      "stateMutability": "view",
      "type": "function",
      "constant": true
    },
    {
      "inputs": [
        {
          "internalType": "address",
          "name": "_address",
          "type": "address"
        }
      ],
      "name": "isFreezer",
      "outputs": [
        {
          "internalType": "bool",
          "name": "",
          "type": "bool"
        }
      ],
      "stateMutability": "view",
      "type": "function",
      "constant": true
    },
    {
      "inputs": [
        {
          "internalType": "address",
          "name": "_address",
          "type": "address"
        }
      ],
      "name": "isLimiter",
      "outputs": [
        {
          "internalType": "bool",
          "name": "",
          "type": "bool"
        }
      ],
      "stateMutability": "view",
      "type": "function",
      "constant": true
    },
    {
      "inputs": [
        {
          "internalType": "address",
          "name": "_address",
          "type": "address"
        }
      ],
      "name": "isSuperAdmin",
      "outputs": [
        {
          "internalType": "bool",
          "name": "",
          "type": "bool"
        }
      ],
      "stateMutability": "view",
      "type": "function",
      "constant": true
    },
    {
      "inputs": [
        {
          "internalType": "address",
          "name": "_address",
          "type": "address"
        }
      ],
      "name": "isTransporter",
      "outputs": [
        {
          "internalType": "bool",
          "name": "",
          "type": "bool"
        }
      ],
      "stateMutability": "view",
      "type": "function",
      "constant": true
    },
    {
      "inputs": [
        {
          "internalType": "address",
          "name": "_address",
          "type": "address"
        }
      ],
      "name": "isVoter",
      "outputs": [
        {
          "internalType": "bool",
          "name": "",
          "type": "bool"
        }
      ],
      "stateMutability": "view",
      "type": "function",
      "constant": true
    },
    {
      "inputs": [
        {
          "internalType": "address",
          "name": "_address",
          "type": "address"
        }
      ],
      "name": "isWhitelister",
      "outputs": [
        {
          "internalType": "bool",
          "name": "",
          "type": "bool"
        }
      ],
      "stateMutability": "view",
      "type": "function",
      "constant": true
    },
    {
      "inputs": [],
      "name": "owner",
      "outputs": [
        {
          "internalType": "address",
          "name": "",
          "type": "address"
        }
      ],
      "stateMutability": "view",
      "type": "function",
      "constant": true
    },
    {
      "inputs": [
        {
          "internalType": "address",
          "name": "_address",
          "type": "address"
        }
      ],
      "name": "removeFreezer",
      "outputs": [],
      "stateMutability": "nonpayable",
      "type": "function"
    },
    {
      "inputs": [
        {
          "internalType": "address",
          "name": "_address",
          "type": "address"
        }
      ],
      "name": "removeLimiter",
      "outputs": [],
      "stateMutability": "nonpayable",
      "type": "function"
    },
    {
      "inputs": [
        {
          "internalType": "address",
          "name": "_address",
          "type": "address"
        }
      ],
      "name": "removeTransporter",
      "outputs": [],
      "stateMutability": "nonpayable",
      "type": "function"
    },
    {
      "inputs": [
        {
          "internalType": "address",
          "name": "_address",
          "type": "address"
        }
      ],
      "name": "removeVoter",
      "outputs": [],
      "stateMutability": "nonpayable",
      "type": "function"
    },
    {
      "inputs": [
        {
          "internalType": "address",
          "name": "_address",
          "type": "address"
        }
      ],
      "name": "removeWhitelister",
      "outputs": [],
      "stateMutability": "nonpayable",
      "type": "function"
    },
    {
      "inputs": [],
      "name": "renounceOwnership",
      "outputs": [],
      "stateMutability": "nonpayable",
      "type": "function"
    },
    {
      "inputs": [
        {
          "internalType": "bytes32",
          "name": "role",
          "type": "bytes32"
        },
        {
          "internalType": "address",
          "name": "account",
          "type": "address"
        }
      ],
      "name": "renounceRole",
      "outputs": [],
      "stateMutability": "nonpayable",
      "type": "function"
    },
    {
      "inputs": [],
      "name": "renounceSuperAdmin",
      "outputs": [],
      "stateMutability": "nonpayable",
      "type": "function"
    },
    {
      "inputs": [
        {
          "internalType": "bytes32",
          "name": "role",
          "type": "bytes32"
        },
        {
          "internalType": "address",
          "name": "account",
          "type": "address"
        }
      ],
      "name": "revokeRole",
      "outputs": [],
      "stateMutability": "nonpayable",
      "type": "function"
    },
    {
      "inputs": [
        {
          "internalType": "address",
          "name": "newOwner",
          "type": "address"
        }
      ],
      "name": "transferOwnership",
      "outputs": [],
      "stateMutability": "nonpayable",
      "type": "function"
    },
    {
      "inputs": [
        {
          "internalType": "bool",
          "name": "_value",
          "type": "bool"
        }
      ],
      "name": "toggleOpenWhitelist",
      "outputs": [],
      "stateMutability": "nonpayable",
      "type": "function"
    },
    {
      "inputs": [
        {
          "internalType": "bool",
          "name": "_value",
          "type": "bool"
        }
      ],
      "name": "toggleOpenTransactionCount",
      "outputs": [],
      "stateMutability": "nonpayable",
      "type": "function"
    },
    {
      "inputs": [
        {
          "internalType": "address",
          "name": "_address",
          "type": "address"
        }
      ],
      "name": "addAddressToWhitelist",
      "outputs": [],
      "stateMutability": "nonpayable",
      "type": "function"
    },
    {
      "inputs": [
        {
          "internalType": "address",
          "name": "_address",
          "type": "address"
        }
      ],
      "name": "removeAddressFromWhitelist",
      "outputs": [],
      "stateMutability": "nonpayable",
      "type": "function"
    },
    {
      "inputs": [
        {
          "internalType": "address",
          "name": "_account",
          "type": "address"
        }
      ],
      "name": "freezeFunds",
      "outputs": [],
      "stateMutability": "nonpayable",
      "type": "function"
    },
    {
      "inputs": [
        {
          "internalType": "address",
          "name": "_account",
          "type": "address"
        }
      ],
      "name": "unfreezeFunds",
      "outputs": [],
      "stateMutability": "nonpayable",
      "type": "function"
    },
    {
      "inputs": [
        {
          "internalType": "address",
          "name": "_account",
          "type": "address"
        },
        {
          "internalType": "uint256",
          "name": "_amount",
          "type": "uint256"
        }
      ],
      "name": "mint",
      "outputs": [],
      "stateMutability": "nonpayable",
      "type": "function"
    },
    {
      "inputs": [
        {
          "internalType": "address",
          "name": "_account",
          "type": "address"
        },
        {
          "internalType": "uint256",
          "name": "_amount",
          "type": "uint256"
        }
      ],
      "name": "burn",
      "outputs": [],
      "stateMutability": "nonpayable",
      "type": "function"
    },
    {
      "inputs": [
        {
          "internalType": "address",
          "name": "_from",
          "type": "address"
        },
        {
          "internalType": "address",
          "name": "_where",
          "type": "address"
        },
        {
          "internalType": "uint256",
          "name": "_amount",
          "type": "uint256"
        }
      ],
      "name": "transferFunds",
      "outputs": [
        {
          "internalType": "bool",
          "name": "",
          "type": "bool"
        }
      ],
      "stateMutability": "nonpayable",
      "type": "function"
    },
    {
      "inputs": [
        {
          "internalType": "address",
          "name": "_account",
          "type": "address"
        },
        {
          "internalType": "uint256",
          "name": "_transferLimit",
          "type": "uint256"
        }
      ],
      "name": "setTransferLimit",
      "outputs": [],
      "stateMutability": "nonpayable",
      "type": "function"
    },
    {
      "inputs": [
        {
          "internalType": "address",
          "name": "_account",
          "type": "address"
        },
        {
          "internalType": "uint256",
          "name": "_transactionCountLimit",
          "type": "uint256"
        }
      ],
      "name": "setTransactionCountLimit",
      "outputs": [],
      "stateMutability": "nonpayable",
      "type": "function"
    },
    {
      "inputs": [
        {
          "internalType": "address",
          "name": "_address",
          "type": "address"
        }
      ],
      "name": "isWhitelistedAddress",
      "outputs": [
        {
          "internalType": "bool",
          "name": "",
          "type": "bool"
        }
      ],
      "stateMutability": "view",
      "type": "function",
      "constant": true
    },
    {
      "inputs": [
        {
          "internalType": "address",
          "name": "_account",
          "type": "address"
        }
      ],
      "name": "isFrozenFunds",
      "outputs": [
        {
          "internalType": "bool",
          "name": "",
          "type": "bool"
        }
      ],
      "stateMutability": "view",
      "type": "function",
      "constant": true
    },
    {
      "inputs": [],
      "name": "getK",
      "outputs": [
        {
          "internalType": "uint256",
          "name": "",
          "type": "uint256"
        }
      ],
      "stateMutability": "view",
      "type": "function",
      "constant": true
    },
    {
      "inputs": [],
      "name": "name",
      "outputs": [
        {
          "internalType": "string",
          "name": "",
          "type": "string"
        }
      ],
      "stateMutability": "view",
      "type": "function",
      "constant": true
    },
    {
      "inputs": [],
      "name": "symbol",
      "outputs": [
        {
          "internalType": "string",
          "name": "",
          "type": "string"
        }
      ],
      "stateMutability": "view",
      "type": "function",
      "constant": true
    },
    {
      "inputs": [],
      "name": "decimals",
      "outputs": [
        {
          "internalType": "uint8",
          "name": "",
          "type": "uint8"
        }
      ],
      "stateMutability": "view",
      "type": "function",
      "constant": true
    },
    {
      "inputs": [],
      "name": "totalSupply",
      "outputs": [
        {
          "internalType": "uint256",
          "name": "",
          "type": "uint256"
        }
      ],
      "stateMutability": "view",
      "type": "function",
      "constant": true
    },
    {
      "inputs": [
        {
          "internalType": "address",
          "name": "_account",
          "type": "address"
        }
      ],
      "name": "balanceOf",
      "outputs": [
        {
          "internalType": "uint256",
          "name": "",
          "type": "uint256"
        }
      ],
      "stateMutability": "view",
      "type": "function",
      "constant": true
    },
    {
      "inputs": [
        {
          "internalType": "address",
          "name": "_account",
          "type": "address"
        }
      ],
      "name": "getTransferLimit",
      "outputs": [
        {
          "internalType": "uint256",
          "name": "",
          "type": "uint256"
        }
      ],
      "stateMutability": "view",
      "type": "function",
      "constant": true
    },
    {
      "inputs": [
        {
          "internalType": "address",
          "name": "_account",
          "type": "address"
        }
      ],
      "name": "getAllowedToTransfer",
      "outputs": [
        {
          "internalType": "uint256",
          "name": "",
          "type": "uint256"
        }
      ],
      "stateMutability": "view",
      "type": "function",
      "constant": true
    },
    {
      "inputs": [
        {
          "internalType": "address",
          "name": "_account",
          "type": "address"
        }
      ],
      "name": "getTransactionCountLimit",
      "outputs": [
        {
          "internalType": "uint256",
          "name": "",
          "type": "uint256"
        }
      ],
      "stateMutability": "view",
      "type": "function",
      "constant": true
    },
    {
      "inputs": [
        {
          "internalType": "address",
          "name": "_account",
          "type": "address"
        }
      ],
      "name": "getLeftTransactionCountLimit",
      "outputs": [
        {
          "internalType": "uint256",
          "name": "",
          "type": "uint256"
        }
      ],
      "stateMutability": "view",
      "type": "function",
      "constant": true
    },
    {
      "inputs": [
        {
          "internalType": "address",
          "name": "_recipient",
          "type": "address"
        },
        {
          "internalType": "uint256",
          "name": "_amount",
          "type": "uint256"
        }
      ],
      "name": "transfer",
      "outputs": [
        {
          "internalType": "bool",
          "name": "",
          "type": "bool"
        }
      ],
      "stateMutability": "nonpayable",
      "type": "function"
    },
    {
      "inputs": [
        {
          "internalType": "address",
          "name": "_owner",
          "type": "address"
        },
        {
          "internalType": "address",
          "name": "_spender",
          "type": "address"
        }
      ],
      "name": "allowance",
      "outputs": [
        {
          "internalType": "uint256",
          "name": "",
          "type": "uint256"
        }
      ],
      "stateMutability": "view",
      "type": "function",
      "constant": true
    },
    {
      "inputs": [
        {
          "internalType": "address",
          "name": "_spender",
          "type": "address"
        },
        {
          "internalType": "uint256",
          "name": "_amount",
          "type": "uint256"
        }
      ],
      "name": "approve",
      "outputs": [
        {
          "internalType": "bool",
          "name": "",
          "type": "bool"
        }
      ],
      "stateMutability": "nonpayable",
      "type": "function"
    },
    {
      "inputs": [
        {
          "internalType": "address",
          "name": "_sender",
          "type": "address"
        },
        {
          "internalType": "address",
          "name": "_recipient",
          "type": "address"
        },
        {
          "internalType": "uint256",
          "name": "_amount",
          "type": "uint256"
        }
      ],
      "name": "transferFrom",
      "outputs": [
        {
          "internalType": "bool",
          "name": "",
          "type": "bool"
        }
      ],
      "stateMutability": "nonpayable",
      "type": "function"
    },
    {
      "inputs": [
        {
          "internalType": "address",
          "name": "_spender",
          "type": "address"
        },
        {
          "internalType": "uint256",
          "name": "_addedValue",
          "type": "uint256"
        }
      ],
      "name": "increaseAllowance",
      "outputs": [
        {
          "internalType": "bool",
          "name": "",
          "type": "bool"
        }
      ],
      "stateMutability": "nonpayable",
      "type": "function"
    },
    {
      "inputs": [
        {
          "internalType": "address",
          "name": "_spender",
          "type": "address"
        },
        {
          "internalType": "uint256",
          "name": "_subtractedValue",
          "type": "uint256"
        }
      ],
      "name": "decreaseAllowance",
      "outputs": [
        {
          "internalType": "bool",
          "name": "",
          "type": "bool"
        }
      ],
      "stateMutability": "nonpayable",
      "type": "function"
    }
  ],
  "bytecode": "0x60806040523480156200001157600080fd5b5033600062000025620002f560201b60201c565b9050806000806101000a81548173ffffffffffffffffffffffffffffffffffffffff021916908373ffffffffffffffffffffffffffffffffffffffff1602179055508073ffffffffffffffffffffffffffffffffffffffff16600073ffffffffffffffffffffffffffffffffffffffff167f8be0079c531659141344cd1fd0a4f28419497f9722a3daafe3b4186f6b6457e060405160405180910390a350620000d86000801b82620002fd60201b60201c565b6200010d7f8619cecd8b9e095ab43867f5b69d492180450fe862e6b50bfbfb24b75dd84c8a6000801b6200031360201b60201c565b620001427f92de27771f92d6942691d73358b3a4673e4880de8356f8f2cf452be87e02d3636000801b6200031360201b60201c565b620001777fddaa901e2fe3bda354fe0ede2785152d5c109282a613fe024a056a3e66c41bb36000801b6200031360201b60201c565b620001ac7f72c3eec1760bf69946625c2d4fb8e44e2c806345041960b434674fb9ab3976cf6000801b6200031360201b60201c565b620001e17ff7b34cf87af24ce01c1aff9f518b133989851466d994e0016fc14651fa02826c6000801b6200031360201b60201c565b506040518060400160405280601181526020017f53746f626f782044656d6f20546f6b656e000000000000000000000000000000815250600b90805190602001906200022f9291906200075e565b506040518060400160405280600681526020017f5344435331300000000000000000000000000000000000000000000000000000815250600c90805190602001906200027d9291906200075e565b506000600d60006101000a81548160ff021916908360ff1602179055506012600981905550600954600a0a600a8190555060006006819055506000600781905550620002d333629896806200037760201b60201c565b620002ee33600e6200055760201b620040711790919060201c565b5062000804565b600033905090565b6200030f82826200058f60201b60201c565b5050565b806001600084815260200190815260200160002060020154837fbd79b86ffe0ab8e8776151514217cd7cacd52c909f66475c3af44e129f0b00ff60405160405180910390a48060016000848152602001908152602001600020600201819055505050565b600073ffffffffffffffffffffffffffffffffffffffff168273ffffffffffffffffffffffffffffffffffffffff1614156200041b576040517f08c379a000000000000000000000000000000000000000000000000000000000815260040180806020018281038252601e8152602001807f535442583a206d696e7420746f20746865207a65726f2061646472657373000081525060200191505060405180910390fd5b6200042f600083836200063360201b60201c565b6200044b816008546200063860201b620040a11790919060201c565b600881905550620004aa81600260008573ffffffffffffffffffffffffffffffffffffffff1673ffffffffffffffffffffffffffffffffffffffff168152602001908152602001600020546200063860201b620040a11790919060201c565b600260008473ffffffffffffffffffffffffffffffffffffffff1673ffffffffffffffffffffffffffffffffffffffff168152602001908152602001600020819055508173ffffffffffffffffffffffffffffffffffffffff16600073ffffffffffffffffffffffffffffffffffffffff167fddf252ad1be2c89b69c2b068fc378daa952ba7f163c4a11628f55a4df523b3ef836040518082815260200191505060405180910390a35050565b600062000587836000018373ffffffffffffffffffffffffffffffffffffffff1660001b620006c160201b60201c565b905092915050565b620005be81600160008581526020019081526020016000206000016200055760201b620040711790919060201c565b156200062f57620005d4620002f560201b60201c565b73ffffffffffffffffffffffffffffffffffffffff168173ffffffffffffffffffffffffffffffffffffffff16837f2f8788117e7eff1d82e926ec794901d17c78024a50270940304540a733656f0d60405160405180910390a45b5050565b505050565b600080828401905083811015620006b7576040517f08c379a000000000000000000000000000000000000000000000000000000000815260040180806020018281038252601b8152602001807f536166654d6174683a206164646974696f6e206f766572666c6f77000000000081525060200191505060405180910390fd5b8091505092915050565b6000620006d583836200073b60201b60201c565b6200073057826000018290806001815401808255809150506001900390600052602060002001600090919091909150558260000180549050836001016000848152602001908152602001600020819055506001905062000735565b600090505b92915050565b600080836001016000848152602001908152602001600020541415905092915050565b828054600181600116156101000203166002900490600052602060002090601f016020900481019282601f10620007a157805160ff1916838001178555620007d2565b82800160010185558215620007d2579182015b82811115620007d1578251825591602001919060010190620007b4565b5b509050620007e19190620007e5565b5090565b5b8082111562000800576000816000905550600101620007e6565b5090565b6157a280620008146000396000f3fe608060405234801561001057600080fd5b50600436106103db5760003560e01c80637359ae761161020a578063a7771ee311610125578063ca15c873116100b8578063eaf9144a11610087578063eaf9144a146114eb578063ee39e7a01461152f578063f0b6e33f1461154d578063f2fde38b1461159b578063f4ab9adf146115df576103db565b8063ca15c87314611389578063d547741f146113cb578063dd62ed3e14611419578063df7f453b14611491576103db565b8063b39755a0116100f4578063b39755a0146112b3578063b3de4214146112e3578063b702204914611301578063c54467b314611345576103db565b8063a7771ee314611193578063a9059cbb146111ed578063a94015c814611251578063b3292ff01461126f576103db565b806391d148541161019d578063a10ba4171161016c578063a10ba41714611073578063a217fddf146110cd578063a2e92b67146110eb578063a457c2d71461112f576103db565b806391d1485414610efa57806395d89b4114610f5e5780639dc29fac14610fe15780639e4791b41461102f576103db565b806382c3f79c116101d957806382c3f79c14610ddc57806386c1ff6814610e205780638da5cb5b14610e645780639010d07c14610e98576103db565b80637359ae7614610cb65780637b9417c814610d0e5780637c51a57d14610d525780637d0c269f14610d82576103db565b806336568abe116102fa578063540c68721161028d5780636c65fd6a1161025c5780636c65fd6a14610bac57806370a0823114610c06578063711444ea14610c5e578063715018a614610cac576103db565b8063540c687214610a84578063570618e114610adc5780635edf9e6114610afa5780635fae057614610b52576103db565b806340c10f19116102c957806340c10f19146109ca578063416edaa014610a185780634eabbe7714610a22578063526606c914610a40576103db565b806336568abe146108b4578063371ab45e1461090257806339509351146109225780633dd4890614610986576103db565b8063248a9ca3116103725780632f2ff15d116103415780632f2ff15d146107a757806330129e60146107f5578063313ce56714610839578063349701791461085a576103db565b8063248a9ca314610683578063286dd3f5146106c55780632acd2000146107095780632b8109d51461074d576103db565b806318160ddd116103ae57806318160ddd1461056957806318dd330b1461058757806323b872dd146105df57806323fe66fb14610663576103db565b806306a85f0f146103e057806306fdde03146103fe578063095ea7b3146104815780631501bf03146104e5575b600080fd5b6103e8611623565b6040518082815260200191505060405180910390f35b610406611647565b6040518080602001828103825283818151815260200191508051906020019080838360005b8381101561044657808201518184015260208101905061042b565b50505050905090810190601f1680156104735780820380516001836020036101000a031916815260200191505b509250505060405180910390f35b6104cd6004803603604081101561049757600080fd5b81019080803573ffffffffffffffffffffffffffffffffffffffff169060200190929190803590602001909291905050506116e9565b60405180821515815260200191505060405180910390f35b610551600480360360608110156104fb57600080fd5b81019080803573ffffffffffffffffffffffffffffffffffffffff169060200190929190803573ffffffffffffffffffffffffffffffffffffffff169060200190929190803590602001909291905050506118d3565b60405180821515815260200191505060405180910390f35b610571611a8a565b6040518082815260200191505060405180910390f35b6105c96004803603602081101561059d57600080fd5b81019080803573ffffffffffffffffffffffffffffffffffffffff169060200190929190505050611abf565b6040518082815260200191505060405180910390f35b61064b600480360360608110156105f557600080fd5b81019080803573ffffffffffffffffffffffffffffffffffffffff169060200190929190803573ffffffffffffffffffffffffffffffffffffffff16906020019092919080359060200190929190505050611b60565b60405180821515815260200191505060405180910390f35b61066b611e22565b60405180821515815260200191505060405180910390f35b6106af6004803603602081101561069957600080fd5b8101908080359060200190929190505050611e35565b6040518082815260200191505060405180910390f35b610707600480360360208110156106db57600080fd5b81019080803573ffffffffffffffffffffffffffffffffffffffff169060200190929190505050611e55565b005b61074b6004803603602081101561071f57600080fd5b81019080803573ffffffffffffffffffffffffffffffffffffffff169060200190929190505050611efd565b005b61078f6004803603602081101561076357600080fd5b81019080803573ffffffffffffffffffffffffffffffffffffffff169060200190929190505050611fa5565b60405180821515815260200191505060405180910390f35b6107f3600480360360408110156107bd57600080fd5b8101908080359060200190929190803573ffffffffffffffffffffffffffffffffffffffff169060200190929190505050611fd8565b005b6108376004803603602081101561080b57600080fd5b81019080803573ffffffffffffffffffffffffffffffffffffffff169060200190929190505050612062565b005b61084161210a565b604051808260ff16815260200191505060405180910390f35b61089c6004803603602081101561087057600080fd5b81019080803573ffffffffffffffffffffffffffffffffffffffff169060200190929190505050612121565b60405180821515815260200191505060405180910390f35b610900600480360360408110156108ca57600080fd5b8101908080359060200190929190803573ffffffffffffffffffffffffffffffffffffffff169060200190929190505050612154565b005b61090a6121ed565b60405180821515815260200191505060405180910390f35b61096e6004803603604081101561093857600080fd5b81019080803573ffffffffffffffffffffffffffffffffffffffff16906020019092919080359060200190929190505050612200565b60405180821515815260200191505060405180910390f35b6109c86004803603602081101561099c57600080fd5b81019080803573ffffffffffffffffffffffffffffffffffffffff169060200190929190505050612478565b005b610a16600480360360408110156109e057600080fd5b81019080803573ffffffffffffffffffffffffffffffffffffffff16906020019092919080359060200190929190505050612520565b005b610a2061264f565b005b610a2a6126d9565b6040518082815260200191505060405180910390f35b610a8260048036036020811015610a5657600080fd5b81019080803573ffffffffffffffffffffffffffffffffffffffff1690602001909291905050506126fd565b005b610ac660048036036020811015610a9a57600080fd5b81019080803573ffffffffffffffffffffffffffffffffffffffff1690602001909291905050506127a5565b6040518082815260200191505060405180910390f35b610ae46127f1565b6040518082815260200191505060405180910390f35b610b3c60048036036020811015610b1057600080fd5b81019080803573ffffffffffffffffffffffffffffffffffffffff169060200190929190505050612815565b6040518082815260200191505060405180910390f35b610b9460048036036020811015610b6857600080fd5b81019080803573ffffffffffffffffffffffffffffffffffffffff1690602001909291905050506128b6565b60405180821515815260200191505060405180910390f35b610bee60048036036020811015610bc257600080fd5b81019080803573ffffffffffffffffffffffffffffffffffffffff1690602001909291905050506128d3565b60405180821515815260200191505060405180910390f35b610c4860048036036020811015610c1c57600080fd5b81019080803573ffffffffffffffffffffffffffffffffffffffff169060200190929190505050612906565b6040518082815260200191505060405180910390f35b610caa60048036036040811015610c7457600080fd5b81019080803573ffffffffffffffffffffffffffffffffffffffff1690602001909291908035906020019092919050505061297a565b005b610cb4612ace565b005b610cf860048036036020811015610ccc57600080fd5b81019080803573ffffffffffffffffffffffffffffffffffffffff169060200190929190505050612c3b565b6040518082815260200191505060405180910390f35b610d5060048036036020811015610d2457600080fd5b81019080803573ffffffffffffffffffffffffffffffffffffffff169060200190929190505050612c87565b005b610d8060048036036020811015610d6857600080fd5b81019080803515159060200190929190505050612d2f565b005b610dc460048036036020811015610d9857600080fd5b81019080803573ffffffffffffffffffffffffffffffffffffffff169060200190929190505050612dc7565b60405180821515815260200191505060405180910390f35b610e1e60048036036020811015610df257600080fd5b81019080803573ffffffffffffffffffffffffffffffffffffffff169060200190929190505050612dfa565b005b610e6260048036036020811015610e3657600080fd5b81019080803573ffffffffffffffffffffffffffffffffffffffff169060200190929190505050612ea2565b005b610e6c612f4a565b604051808273ffffffffffffffffffffffffffffffffffffffff16815260200191505060405180910390f35b610ece60048036036040811015610eae57600080fd5b810190808035906020019092919080359060200190929190505050612f73565b604051808273ffffffffffffffffffffffffffffffffffffffff16815260200191505060405180910390f35b610f4660048036036040811015610f1057600080fd5b8101908080359060200190929190803573ffffffffffffffffffffffffffffffffffffffff169060200190929190505050612fa5565b60405180821515815260200191505060405180910390f35b610f66612fd7565b6040518080602001828103825283818151815260200191508051906020019080838360005b83811015610fa6578082015181840152602081019050610f8b565b50505050905090810190601f168015610fd35780820380516001836020036101000a031916815260200191505b509250505060405180910390f35b61102d60048036036040811015610ff757600080fd5b81019080803573ffffffffffffffffffffffffffffffffffffffff16906020019092919080359060200190929190505050613079565b005b6110716004803603602081101561104557600080fd5b81019080803573ffffffffffffffffffffffffffffffffffffffff169060200190929190505050613188565b005b6110b56004803603602081101561108957600080fd5b81019080803573ffffffffffffffffffffffffffffffffffffffff16906020019092919050505061321b565b60405180821515815260200191505060405180910390f35b6110d5613238565b6040518082815260200191505060405180910390f35b61112d6004803603602081101561110157600080fd5b81019080803573ffffffffffffffffffffffffffffffffffffffff16906020019092919050505061323f565b005b61117b6004803603604081101561114557600080fd5b81019080803573ffffffffffffffffffffffffffffffffffffffff169060200190929190803590602001909291905050506132e7565b60405180821515815260200191505060405180910390f35b6111d5600480360360208110156111a957600080fd5b81019080803573ffffffffffffffffffffffffffffffffffffffff169060200190929190505050613579565b60405180821515815260200191505060405180910390f35b6112396004803603604081101561120357600080fd5b81019080803573ffffffffffffffffffffffffffffffffffffffff169060200190929190803590602001909291905050506135ac565b60405180821515815260200191505060405180910390f35b6112596137b2565b6040518082815260200191505060405180910390f35b6112b16004803603602081101561128557600080fd5b81019080803573ffffffffffffffffffffffffffffffffffffffff1690602001909291905050506137d6565b005b6112e1600480360360208110156112c957600080fd5b81019080803515159060200190929190505050613861565b005b6112eb6138f9565b6040518082815260200191505060405180910390f35b6113436004803603602081101561131757600080fd5b81019080803573ffffffffffffffffffffffffffffffffffffffff16906020019092919050505061391d565b005b6113876004803603602081101561135b57600080fd5b81019080803573ffffffffffffffffffffffffffffffffffffffff1690602001909291905050506139c5565b005b6113b56004803603602081101561139f57600080fd5b8101908080359060200190929190505050613a58565b6040518082815260200191505060405180910390f35b611417600480360360408110156113e157600080fd5b8101908080359060200190929190803573ffffffffffffffffffffffffffffffffffffffff169060200190929190505050613a7f565b005b61147b6004803603604081101561142f57600080fd5b81019080803573ffffffffffffffffffffffffffffffffffffffff169060200190929190803573ffffffffffffffffffffffffffffffffffffffff169060200190929190505050613b09565b6040518082815260200191505060405180910390f35b6114d3600480360360208110156114a757600080fd5b81019080803573ffffffffffffffffffffffffffffffffffffffff169060200190929190505050613bbb565b60405180821515815260200191505060405180910390f35b61152d6004803603602081101561150157600080fd5b81019080803573ffffffffffffffffffffffffffffffffffffffff169060200190929190505050613bd1565b005b611537613c79565b6040518082815260200191505060405180910390f35b6115996004803603604081101561156357600080fd5b81019080803573ffffffffffffffffffffffffffffffffffffffff16906020019092919080359060200190929190505050613c83565b005b6115dd600480360360208110156115b157600080fd5b81019080803573ffffffffffffffffffffffffffffffffffffffff169060200190929190505050613dd7565b005b611621600480360360208110156115f557600080fd5b81019080803573ffffffffffffffffffffffffffffffffffffffff169060200190929190505050613fc9565b005b7f92de27771f92d6942691d73358b3a4673e4880de8356f8f2cf452be87e02d36381565b6060600b8054600181600116156101000203166002900480601f0160208091040260200160405190810160405280929190818152602001828054600181600116156101000203166002900480156116df5780601f106116b4576101008083540402835291602001916116df565b820191906000526020600020905b8154815290600101906020018083116116c257829003601f168201915b5050505050905090565b600033600d60019054906101000a900460ff16156117885761171581600e61412990919063ffffffff16565b611787576040517f08c379a000000000000000000000000000000000000000000000000000000000815260040180806020018281038252601e8152602001807f535442583a206e6f742077686974656c697374656420616464726573732e000081525060200191505060405180910390fd5b5b83600d60019054906101000a900460ff1615611825576117b281600e61412990919063ffffffff16565b611824576040517f08c379a000000000000000000000000000000000000000000000000000000000815260040180806020018281038252601e8152602001807f535442583a206e6f742077686974656c697374656420616464726573732e000081525060200191505060405180910390fd5b5b336000151561183e82601061412990919063ffffffff16565b1515146118b3576040517f08c379a00000000000000000000000000000000000000000000000000000000081526004018080602001828103825260178152602001807f535442583a2066756e6473206172652066726f7a656e2e00000000000000000081525060200191505060405180910390fd5b6118c633876118c188614159565b61418e565b6001935050505092915050565b60006118de33611fa5565b611950576040517f08c379a000000000000000000000000000000000000000000000000000000000815260040180806020018281038252601b8152602001807f5265737472696374656420746f207472616e73706f72746572732e000000000081525060200191505060405180910390fd5b82600d60019054906101000a900460ff16156119ed5761197a81600e61412990919063ffffffff16565b6119ec576040517f08c379a000000000000000000000000000000000000000000000000000000000815260040180806020018281038252601e8152602001807f535442583a206e6f742077686974656c697374656420616464726573732e000081525060200191505060405180910390fd5b5b826119f786612906565b1015611a6b576040517f08c379a00000000000000000000000000000000000000000000000000000000081526004018080602001828103825260178152602001807f535442583a206e6f7420656e6f75676820746f6b656e7300000000000000000081525060200191505060405180910390fd5b611a7e8585611a7986614159565b614385565b60019150509392505050565b6000611aba600954600a0a611aac600a5460085461464a90919063ffffffff16565b6146d090919063ffffffff16565b905090565b600080600560008473ffffffffffffffffffffffffffffffffffffffff1673ffffffffffffffffffffffffffffffffffffffff168152602001908152602001600020600001541115611b5557600560008373ffffffffffffffffffffffffffffffffffffffff1673ffffffffffffffffffffffffffffffffffffffff168152602001908152602001600020600001549050611b5b565b60075490505b919050565b600083600d60019054906101000a900460ff1615611bff57611b8c81600e61412990919063ffffffff16565b611bfe576040517f08c379a000000000000000000000000000000000000000000000000000000000815260040180806020018281038252601e8152602001807f535442583a206e6f742077686974656c697374656420616464726573732e000081525060200191505060405180910390fd5b5b83600d60019054906101000a900460ff1615611c9c57611c2981600e61412990919063ffffffff16565b611c9b576040517f08c379a000000000000000000000000000000000000000000000000000000000815260040180806020018281038252601e8152602001807f535442583a206e6f742077686974656c697374656420616464726573732e000081525060200191505060405180910390fd5b5b8560001515611cb582601061412990919063ffffffff16565b151514611d2a576040517f08c379a00000000000000000000000000000000000000000000000000000000081526004018080602001828103825260178152602001807f535442583a2066756e6473206172652066726f7a656e2e00000000000000000081525060200191505060405180910390fd5b611d348786614759565b611d3d876149cc565b611d46866149cc565b611d598787611d5488614159565b614385565b611e148733611e0f611d6a89614159565b60405180606001604052806027815260200161568a60279139600360008e73ffffffffffffffffffffffffffffffffffffffff1673ffffffffffffffffffffffffffffffffffffffff16815260200190815260200160002060003373ffffffffffffffffffffffffffffffffffffffff1673ffffffffffffffffffffffffffffffffffffffff16815260200190815260200160002054614c559092919063ffffffff16565b61418e565b600193505050509392505050565b600d60019054906101000a900460ff1681565b600060016000838152602001908152602001600020600201549050919050565b611e5e33612dc7565b611ed0576040517f08c379a000000000000000000000000000000000000000000000000000000000815260040180806020018281038252601b8152602001807f5265737472696374656420746f2077686974656c6973746572732e000000000081525060200191505060405180910390fd5b611ee481600e614d0f90919063ffffffff16565b50611ef981601061407190919063ffffffff16565b5050565b611f0633613bbb565b611f78576040517f08c379a000000000000000000000000000000000000000000000000000000000815260040180806020018281038252601b8152602001807f5265737472696374656420746f2073757065722061646d696e732e000000000081525060200191505060405180910390fd5b611fa2817f92de27771f92d6942691d73358b3a4673e4880de8356f8f2cf452be87e02d363614d3f565b50565b6000611fd17fddaa901e2fe3bda354fe0ede2785152d5c109282a613fe024a056a3e66c41bb383612fa5565b9050919050565b611fff6001600084815260200190815260200160002060020154611ffa614d4d565b612fa5565b612054576040517f08c379a000000000000000000000000000000000000000000000000000000000815260040180806020018281038252602f815260200180615520602f913960400191505060405180910390fd5b61205e8282614d55565b5050565b61206b33613bbb565b6120dd576040517f08c379a000000000000000000000000000000000000000000000000000000000815260040180806020018281038252601b8152602001807f5265737472696374656420746f2073757065722061646d696e732e000000000081525060200191505060405180910390fd5b612107817ff7b34cf87af24ce01c1aff9f518b133989851466d994e0016fc14651fa02826c614d3f565b50565b6000600d60009054906101000a900460ff16905090565b600061214d7ff7b34cf87af24ce01c1aff9f518b133989851466d994e0016fc14651fa02826c83612fa5565b9050919050565b61215c614d4d565b73ffffffffffffffffffffffffffffffffffffffff168173ffffffffffffffffffffffffffffffffffffffff16146121df576040517f08c379a000000000000000000000000000000000000000000000000000000000815260040180806020018281038252602f81526020018061573e602f913960400191505060405180910390fd5b6121e98282614de9565b5050565b600d60029054906101000a900460ff1681565b600033600d60019054906101000a900460ff161561229f5761222c81600e61412990919063ffffffff16565b61229e576040517f08c379a000000000000000000000000000000000000000000000000000000000815260040180806020018281038252601e8152602001807f535442583a206e6f742077686974656c697374656420616464726573732e000081525060200191505060405180910390fd5b5b83600d60019054906101000a900460ff161561233c576122c981600e61412990919063ffffffff16565b61233b576040517f08c379a000000000000000000000000000000000000000000000000000000000815260040180806020018281038252601e8152602001807f535442583a206e6f742077686974656c697374656420616464726573732e000081525060200191505060405180910390fd5b5b336000151561235582601061412990919063ffffffff16565b1515146123ca576040517f08c379a00000000000000000000000000000000000000000000000000000000081526004018080602001828103825260178152602001807f535442583a2066756e6473206172652066726f7a656e2e00000000000000000081525060200191505060405180910390fd5b61246b33876124666123db89614159565b600360003373ffffffffffffffffffffffffffffffffffffffff1673ffffffffffffffffffffffffffffffffffffffff16815260200190815260200160002060008c73ffffffffffffffffffffffffffffffffffffffff1673ffffffffffffffffffffffffffffffffffffffff168152602001908152602001600020546140a190919063ffffffff16565b61418e565b6001935050505092915050565b61248133613bbb565b6124f3576040517f08c379a000000000000000000000000000000000000000000000000000000000815260040180806020018281038252601b8152602001807f5265737472696374656420746f2073757065722061646d696e732e000000000081525060200191505060405180910390fd5b61251d817fddaa901e2fe3bda354fe0ede2785152d5c109282a613fe024a056a3e66c41bb3614d3f565b50565b61252933613bbb565b61259b576040517f08c379a000000000000000000000000000000000000000000000000000000000815260040180806020018281038252601b8152602001807f5265737472696374656420746f2073757065722061646d696e732e000000000081525060200191505060405180910390fd5b81600d60019054906101000a900460ff1615612638576125c581600e61412990919063ffffffff16565b612637576040517f08c379a000000000000000000000000000000000000000000000000000000000815260040180806020018281038252601e8152602001807f535442583a206e6f742077686974656c697374656420616464726573732e000081525060200191505060405180910390fd5b5b61264a8361264584614159565b614e7d565b505050565b61265833613bbb565b6126ca576040517f08c379a000000000000000000000000000000000000000000000000000000000815260040180806020018281038252601b8152602001807f5265737472696374656420746f2073757065722061646d696e732e000000000081525060200191505060405180910390fd5b6126d76000801b33612154565b565b7fddaa901e2fe3bda354fe0ede2785152d5c109282a613fe024a056a3e66c41bb381565b61270633613bbb565b612778576040517f08c379a000000000000000000000000000000000000000000000000000000000815260040180806020018281038252601b8152602001807f5265737472696374656420746f2073757065722061646d696e732e000000000081525060200191505060405180910390fd5b6127a2817f92de27771f92d6942691d73358b3a4673e4880de8356f8f2cf452be87e02d363615046565b50565b6000600560008373ffffffffffffffffffffffffffffffffffffffff1673ffffffffffffffffffffffffffffffffffffffff168152602001908152602001600020600201549050919050565b7f8619cecd8b9e095ab43867f5b69d492180450fe862e6b50bfbfb24b75dd84c8a81565b600080600460008473ffffffffffffffffffffffffffffffffffffffff1673ffffffffffffffffffffffffffffffffffffffff1681526020019081526020016000206000015411156128ab57600460008373ffffffffffffffffffffffffffffffffffffffff1673ffffffffffffffffffffffffffffffffffffffff1681526020019081526020016000206000015490506128b1565b60065490505b919050565b60006128cc82600e61412990919063ffffffff16565b9050919050565b60006128ff7f92de27771f92d6942691d73358b3a4673e4880de8356f8f2cf452be87e02d36383612fa5565b9050919050565b6000612973600954600a0a612965600a54600260008773ffffffffffffffffffffffffffffffffffffffff1673ffffffffffffffffffffffffffffffffffffffff1681526020019081526020016000205461464a90919063ffffffff16565b6146d090919063ffffffff16565b9050919050565b61298333612121565b6129f5576040517f08c379a00000000000000000000000000000000000000000000000000000000081526004018080602001828103825260178152602001807f5265737472696374656420746f206c696d69746572732e00000000000000000081525060200191505060405180910390fd5b80600560008473ffffffffffffffffffffffffffffffffffffffff1673ffffffffffffffffffffffffffffffffffffffff1681526020019081526020016000206000018190555080600560008473ffffffffffffffffffffffffffffffffffffffff1673ffffffffffffffffffffffffffffffffffffffff1681526020019081526020016000206002018190555042600560008473ffffffffffffffffffffffffffffffffffffffff1673ffffffffffffffffffffffffffffffffffffffff168152602001908152602001600020600101819055505050565b612ad6614d4d565b73ffffffffffffffffffffffffffffffffffffffff16612af4612f4a565b73ffffffffffffffffffffffffffffffffffffffff1614612b7d576040517f08c379a00000000000000000000000000000000000000000000000000000000081526004018080602001828103825260208152602001807f4f776e61626c653a2063616c6c6572206973206e6f7420746865206f776e657281525060200191505060405180910390fd5b600073ffffffffffffffffffffffffffffffffffffffff1660008054906101000a900473ffffffffffffffffffffffffffffffffffffffff1673ffffffffffffffffffffffffffffffffffffffff167f8be0079c531659141344cd1fd0a4f28419497f9722a3daafe3b4186f6b6457e060405160405180910390a360008060006101000a81548173ffffffffffffffffffffffffffffffffffffffff021916908373ffffffffffffffffffffffffffffffffffffffff160217905550565b6000600460008373ffffffffffffffffffffffffffffffffffffffff1673ffffffffffffffffffffffffffffffffffffffff168152602001908152602001600020600201549050919050565b612c9033612dc7565b612d02576040517f08c379a000000000000000000000000000000000000000000000000000000000815260040180806020018281038252601b8152602001807f5265737472696374656420746f2077686974656c6973746572732e000000000081525060200191505060405180910390fd5b612d1681600e61407190919063ffffffff16565b50612d2b816010614d0f90919063ffffffff16565b5050565b612d3833613bbb565b612daa576040517f08c379a000000000000000000000000000000000000000000000000000000000815260040180806020018281038252601b8152602001807f5265737472696374656420746f2073757065722061646d696e732e000000000081525060200191505060405180910390fd5b80600d60016101000a81548160ff02191690831515021790555050565b6000612df37f8619cecd8b9e095ab43867f5b69d492180450fe862e6b50bfbfb24b75dd84c8a83612fa5565b9050919050565b612e0333613bbb565b612e75576040517f08c379a000000000000000000000000000000000000000000000000000000000815260040180806020018281038252601b8152602001807f5265737472696374656420746f2073757065722061646d696e732e000000000081525060200191505060405180910390fd5b612e9f817f8619cecd8b9e095ab43867f5b69d492180450fe862e6b50bfbfb24b75dd84c8a614d3f565b50565b612eab33613bbb565b612f1d576040517f08c379a000000000000000000000000000000000000000000000000000000000815260040180806020018281038252601b8152602001807f5265737472696374656420746f2073757065722061646d696e732e000000000081525060200191505060405180910390fd5b612f47817f72c3eec1760bf69946625c2d4fb8e44e2c806345041960b434674fb9ab3976cf614d3f565b50565b60008060009054906101000a900473ffffffffffffffffffffffffffffffffffffffff16905090565b6000612f9d826001600086815260200190815260200160002060000161505490919063ffffffff16565b905092915050565b6000612fcf826001600086815260200190815260200160002060000161412990919063ffffffff16565b905092915050565b6060600c8054600181600116156101000203166002900480601f01602080910402602001604051908101604052809291908181526020018280546001816001161561010002031660029004801561306f5780601f106130445761010080835404028352916020019161306f565b820191906000526020600020905b81548152906001019060200180831161305257829003601f168201915b5050505050905090565b61308233613bbb565b6130f4576040517f08c379a000000000000000000000000000000000000000000000000000000000815260040180806020018281038252601b8152602001807f5265737472696374656420746f2073757065722061646d696e732e000000000081525060200191505060405180910390fd5b806130fe83612906565b1015613172576040517f08c379a00000000000000000000000000000000000000000000000000000000081526004018080602001828103825260158152602001807f535442583a2062616c616e636520746f6f206c6f77000000000000000000000081525060200191505060405180910390fd5b6131848261317f83614159565b61506e565b5050565b613191336128d3565b613203576040517f08c379a00000000000000000000000000000000000000000000000000000000081526004018080602001828103825260178152602001807f5265737472696374656420746f20667265657a6572732e00000000000000000081525060200191505060405180910390fd5b613217816010614d0f90919063ffffffff16565b5050565b600061323182601061412990919063ffffffff16565b9050919050565b6000801b81565b61324833613bbb565b6132ba576040517f08c379a000000000000000000000000000000000000000000000000000000000815260040180806020018281038252601b8152602001807f5265737472696374656420746f2073757065722061646d696e732e000000000081525060200191505060405180910390fd5b6132e4817ff7b34cf87af24ce01c1aff9f518b133989851466d994e0016fc14651fa02826c615046565b50565b600033600d60019054906101000a900460ff16156133865761331381600e61412990919063ffffffff16565b613385576040517f08c379a000000000000000000000000000000000000000000000000000000000815260040180806020018281038252601e8152602001807f535442583a206e6f742077686974656c697374656420616464726573732e000081525060200191505060405180910390fd5b5b83600d60019054906101000a900460ff1615613423576133b081600e61412990919063ffffffff16565b613422576040517f08c379a000000000000000000000000000000000000000000000000000000000815260040180806020018281038252601e8152602001807f535442583a206e6f742077686974656c697374656420616464726573732e000081525060200191505060405180910390fd5b5b336000151561343c82601061412990919063ffffffff16565b1515146134b1576040517f08c379a00000000000000000000000000000000000000000000000000000000081526004018080602001828103825260178152602001807f535442583a2066756e6473206172652066726f7a656e2e00000000000000000081525060200191505060405180910390fd5b61356c33876135676134c289614159565b60405180606001604052806024815260200161564460249139600360003373ffffffffffffffffffffffffffffffffffffffff1673ffffffffffffffffffffffffffffffffffffffff16815260200190815260200160002060008d73ffffffffffffffffffffffffffffffffffffffff1673ffffffffffffffffffffffffffffffffffffffff16815260200190815260200160002054614c559092919063ffffffff16565b61418e565b6001935050505092915050565b60006135a57f72c3eec1760bf69946625c2d4fb8e44e2c806345041960b434674fb9ab3976cf83612fa5565b9050919050565b600033600d60019054906101000a900460ff161561364b576135d881600e61412990919063ffffffff16565b61364a576040517f08c379a000000000000000000000000000000000000000000000000000000000815260040180806020018281038252601e8152602001807f535442583a206e6f742077686974656c697374656420616464726573732e000081525060200191505060405180910390fd5b5b83600d60019054906101000a900460ff16156136e85761367581600e61412990919063ffffffff16565b6136e7576040517f08c379a000000000000000000000000000000000000000000000000000000000815260040180806020018281038252601e8152602001807f535442583a206e6f742077686974656c697374656420616464726573732e000081525060200191505060405180910390fd5b5b336000151561370182601061412990919063ffffffff16565b151514613776576040517f08c379a00000000000000000000000000000000000000000000000000000000081526004018080602001828103825260178152602001807f535442583a2066756e6473206172652066726f7a656e2e00000000000000000081525060200191505060405180910390fd5b6137803386614759565b613789866149cc565b613792336149cc565b6137a533876137a088614159565b614385565b6001935050505092915050565b7f72c3eec1760bf69946625c2d4fb8e44e2c806345041960b434674fb9ab3976cf81565b6137df33613bbb565b613851576040517f08c379a000000000000000000000000000000000000000000000000000000000815260040180806020018281038252601b8152602001807f5265737472696374656420746f2073757065722061646d696e732e000000000081525060200191505060405180910390fd5b61385e816000801b615046565b50565b61386a33613bbb565b6138dc576040517f08c379a000000000000000000000000000000000000000000000000000000000815260040180806020018281038252601b8152602001807f5265737472696374656420746f2073757065722061646d696e732e000000000081525060200191505060405180910390fd5b80600d60026101000a81548160ff02191690831515021790555050565b7ff7b34cf87af24ce01c1aff9f518b133989851466d994e0016fc14651fa02826c81565b61392633613bbb565b613998576040517f08c379a000000000000000000000000000000000000000000000000000000000815260040180806020018281038252601b8152602001807f5265737472696374656420746f2073757065722061646d696e732e000000000081525060200191505060405180910390fd5b6139c2817fddaa901e2fe3bda354fe0ede2785152d5c109282a613fe024a056a3e66c41bb3615046565b50565b6139ce336128d3565b613a40576040517f08c379a00000000000000000000000000000000000000000000000000000000081526004018080602001828103825260178152602001807f5265737472696374656420746f20667265657a6572732e00000000000000000081525060200191505060405180910390fd5b613a5481601061407190919063ffffffff16565b5050565b6000613a7860016000848152602001908152602001600020600001615251565b9050919050565b613aa66001600084815260200190815260200160002060020154613aa1614d4d565b612fa5565b613afb576040517f08c379a00000000000000000000000000000000000000000000000000000000081526004018080602001828103825260308152602001806155f36030913960400191505060405180910390fd5b613b058282614de9565b5050565b6000613bb3600954600a0a613ba5600a54600360008873ffffffffffffffffffffffffffffffffffffffff1673ffffffffffffffffffffffffffffffffffffffff16815260200190815260200160002060008773ffffffffffffffffffffffffffffffffffffffff1673ffffffffffffffffffffffffffffffffffffffff1681526020019081526020016000205461464a90919063ffffffff16565b6146d090919063ffffffff16565b905092915050565b6000613bca6000801b83612fa5565b9050919050565b613bda33613bbb565b613c4c576040517f08c379a000000000000000000000000000000000000000000000000000000000815260040180806020018281038252601b8152602001807f5265737472696374656420746f2073757065722061646d696e732e000000000081525060200191505060405180910390fd5b613c76817f8619cecd8b9e095ab43867f5b69d492180450fe862e6b50bfbfb24b75dd84c8a615046565b50565b6000600a54905090565b613c8c33612121565b613cfe576040517f08c379a00000000000000000000000000000000000000000000000000000000081526004018080602001828103825260178152602001807f5265737472696374656420746f206c696d69746572732e00000000000000000081525060200191505060405180910390fd5b80600460008473ffffffffffffffffffffffffffffffffffffffff1673ffffffffffffffffffffffffffffffffffffffff1681526020019081526020016000206000018190555080600460008473ffffffffffffffffffffffffffffffffffffffff1673ffffffffffffffffffffffffffffffffffffffff1681526020019081526020016000206002018190555042600460008473ffffffffffffffffffffffffffffffffffffffff1673ffffffffffffffffffffffffffffffffffffffff168152602001908152602001600020600101819055505050565b613ddf614d4d565b73ffffffffffffffffffffffffffffffffffffffff16613dfd612f4a565b73ffffffffffffffffffffffffffffffffffffffff1614613e86576040517f08c379a00000000000000000000000000000000000000000000000000000000081526004018080602001828103825260208152602001807f4f776e61626c653a2063616c6c6572206973206e6f7420746865206f776e657281525060200191505060405180910390fd5b600073ffffffffffffffffffffffffffffffffffffffff168173ffffffffffffffffffffffffffffffffffffffff161415613f0c576040517f08c379a00000000000000000000000000000000000000000000000000000000081526004018080602001828103825260268152602001806155826026913960400191505060405180910390fd5b8073ffffffffffffffffffffffffffffffffffffffff1660008054906101000a900473ffffffffffffffffffffffffffffffffffffffff1673ffffffffffffffffffffffffffffffffffffffff167f8be0079c531659141344cd1fd0a4f28419497f9722a3daafe3b4186f6b6457e060405160405180910390a3806000806101000a81548173ffffffffffffffffffffffffffffffffffffffff021916908373ffffffffffffffffffffffffffffffffffffffff16021790555050565b613fd233613bbb565b614044576040517f08c379a000000000000000000000000000000000000000000000000000000000815260040180806020018281038252601b8152602001807f5265737472696374656420746f2073757065722061646d696e732e000000000081525060200191505060405180910390fd5b61406e817f72c3eec1760bf69946625c2d4fb8e44e2c806345041960b434674fb9ab3976cf615046565b50565b6000614099836000018373ffffffffffffffffffffffffffffffffffffffff1660001b615266565b905092915050565b60008082840190508381101561411f576040517f08c379a000000000000000000000000000000000000000000000000000000000815260040180806020018281038252601b8152602001807f536166654d6174683a206164646974696f6e206f766572666c6f77000000000081525060200191505060405180910390fd5b8091505092915050565b6000614151836000018373ffffffffffffffffffffffffffffffffffffffff1660001b6152d6565b905092915050565b6000614187600a54614179600954600a0a8561464a90919063ffffffff16565b6146d090919063ffffffff16565b9050919050565b600073ffffffffffffffffffffffffffffffffffffffff168373ffffffffffffffffffffffffffffffffffffffff161415614214576040517f08c379a00000000000000000000000000000000000000000000000000000000081526004018080602001828103825260238152602001806156f76023913960400191505060405180910390fd5b600073ffffffffffffffffffffffffffffffffffffffff168273ffffffffffffffffffffffffffffffffffffffff16141561429a576040517f08c379a00000000000000000000000000000000000000000000000000000000081526004018080602001828103825260218152602001806155a86021913960400191505060405180910390fd5b80600360008573ffffffffffffffffffffffffffffffffffffffff1673ffffffffffffffffffffffffffffffffffffffff16815260200190815260200160002060008473ffffffffffffffffffffffffffffffffffffffff1673ffffffffffffffffffffffffffffffffffffffff168152602001908152602001600020819055508173ffffffffffffffffffffffffffffffffffffffff168373ffffffffffffffffffffffffffffffffffffffff167f8c5be1e5ebec7d5bd14f71427d1e84f3dd0314c0f7b2291e5b200ac8c7c3b925836040518082815260200191505060405180910390a3505050565b600073ffffffffffffffffffffffffffffffffffffffff168373ffffffffffffffffffffffffffffffffffffffff16141561440b576040517f08c379a000000000000000000000000000000000000000000000000000000000815260040180806020018281038252602481526020018061571a6024913960400191505060405180910390fd5b600073ffffffffffffffffffffffffffffffffffffffff168273ffffffffffffffffffffffffffffffffffffffff161415614491576040517f08c379a00000000000000000000000000000000000000000000000000000000081526004018080602001828103825260228152602001806156686022913960400191505060405180910390fd5b61449c8383836152f9565b614508816040518060600160405280602581526020016156d260259139600260008773ffffffffffffffffffffffffffffffffffffffff1673ffffffffffffffffffffffffffffffffffffffff16815260200190815260200160002054614c559092919063ffffffff16565b600260008573ffffffffffffffffffffffffffffffffffffffff1673ffffffffffffffffffffffffffffffffffffffff1681526020019081526020016000208190555061459d81600260008573ffffffffffffffffffffffffffffffffffffffff1673ffffffffffffffffffffffffffffffffffffffff168152602001908152602001600020546140a190919063ffffffff16565b600260008473ffffffffffffffffffffffffffffffffffffffff1673ffffffffffffffffffffffffffffffffffffffff168152602001908152602001600020819055508173ffffffffffffffffffffffffffffffffffffffff168373ffffffffffffffffffffffffffffffffffffffff167fddf252ad1be2c89b69c2b068fc378daa952ba7f163c4a11628f55a4df523b3ef836040518082815260200191505060405180910390a3505050565b60008083141561465d57600090506146ca565b600082840290508284828161466e57fe5b04146146c5576040517f08c379a00000000000000000000000000000000000000000000000000000000081526004018080602001828103825260218152602001806156b16021913960400191505060405180910390fd5b809150505b92915050565b6000808211614747576040517f08c379a000000000000000000000000000000000000000000000000000000000815260040180806020018281038252601a8152602001807f536166654d6174683a206469766973696f6e206279207a65726f00000000000081525060200191505060405180910390fd5b81838161475057fe5b04905092915050565b4262015180600460008573ffffffffffffffffffffffffffffffffffffffff1673ffffffffffffffffffffffffffffffffffffffff168152602001908152602001600020600101540110156149135742600460008473ffffffffffffffffffffffffffffffffffffffff1673ffffffffffffffffffffffffffffffffffffffff168152602001908152602001600020600101819055506000600460008473ffffffffffffffffffffffffffffffffffffffff1673ffffffffffffffffffffffffffffffffffffffff1681526020019081526020016000206000015411156148c857600460008373ffffffffffffffffffffffffffffffffffffffff1673ffffffffffffffffffffffffffffffffffffffff16815260200190815260200160002060000154600460008473ffffffffffffffffffffffffffffffffffffffff1673ffffffffffffffffffffffffffffffffffffffff16815260200190815260200160002060020181905550614912565b600654600460008473ffffffffffffffffffffffffffffffffffffffff1673ffffffffffffffffffffffffffffffffffffffff168152602001908152602001600020600201819055505b5b614982816040518060600160405280602a81526020016155c9602a9139600460008673ffffffffffffffffffffffffffffffffffffffff1673ffffffffffffffffffffffffffffffffffffffff16815260200190815260200160002060020154614c559092919063ffffffff16565b600460008473ffffffffffffffffffffffffffffffffffffffff1673ffffffffffffffffffffffffffffffffffffffff168152602001908152602001600020600201819055505050565b600d60029054906101000a900460ff1615614c52574262015180600560008473ffffffffffffffffffffffffffffffffffffffff1673ffffffffffffffffffffffffffffffffffffffff16815260200190815260200160002060010154011015614b9b5742600560008373ffffffffffffffffffffffffffffffffffffffff1673ffffffffffffffffffffffffffffffffffffffff168152602001908152602001600020600101819055506000600560008373ffffffffffffffffffffffffffffffffffffffff1673ffffffffffffffffffffffffffffffffffffffff168152602001908152602001600020600001541115614b5057600560008273ffffffffffffffffffffffffffffffffffffffff1673ffffffffffffffffffffffffffffffffffffffff16815260200190815260200160002060000154600560008373ffffffffffffffffffffffffffffffffffffffff1673ffffffffffffffffffffffffffffffffffffffff16815260200190815260200160002060020181905550614b9a565b600754600560008373ffffffffffffffffffffffffffffffffffffffff1673ffffffffffffffffffffffffffffffffffffffff168152602001908152602001600020600201819055505b5b614c0b600160405180606001604052806033815260200161554f60339139600560008573ffffffffffffffffffffffffffffffffffffffff1673ffffffffffffffffffffffffffffffffffffffff16815260200190815260200160002060020154614c559092919063ffffffff16565b600560008373ffffffffffffffffffffffffffffffffffffffff1673ffffffffffffffffffffffffffffffffffffffff168152602001908152602001600020600201819055505b50565b6000838311158290614d02576040517f08c379a00000000000000000000000000000000000000000000000000000000081526004018080602001828103825283818151815260200191508051906020019080838360005b83811015614cc7578082015181840152602081019050614cac565b50505050905090810190601f168015614cf45780820380516001836020036101000a031916815260200191505b509250505060405180910390fd5b5082840390509392505050565b6000614d37836000018373ffffffffffffffffffffffffffffffffffffffff1660001b6152fe565b905092915050565b614d498183613a7f565b5050565b600033905090565b614d7d816001600085815260200190815260200160002060000161407190919063ffffffff16565b15614de557614d8a614d4d565b73ffffffffffffffffffffffffffffffffffffffff168173ffffffffffffffffffffffffffffffffffffffff16837f2f8788117e7eff1d82e926ec794901d17c78024a50270940304540a733656f0d60405160405180910390a45b5050565b614e118160016000858152602001908152602001600020600001614d0f90919063ffffffff16565b15614e7957614e1e614d4d565b73ffffffffffffffffffffffffffffffffffffffff168173ffffffffffffffffffffffffffffffffffffffff16837ff6391f5c32d9c69d2a47ea670b442974b53935d1edc7fd64eb21e047a839171b60405160405180910390a45b5050565b600073ffffffffffffffffffffffffffffffffffffffff168273ffffffffffffffffffffffffffffffffffffffff161415614f20576040517f08c379a000000000000000000000000000000000000000000000000000000000815260040180806020018281038252601e8152602001807f535442583a206d696e7420746f20746865207a65726f2061646472657373000081525060200191505060405180910390fd5b614f2c600083836152f9565b614f41816008546140a190919063ffffffff16565b600881905550614f9981600260008573ffffffffffffffffffffffffffffffffffffffff1673ffffffffffffffffffffffffffffffffffffffff168152602001908152602001600020546140a190919063ffffffff16565b600260008473ffffffffffffffffffffffffffffffffffffffff1673ffffffffffffffffffffffffffffffffffffffff168152602001908152602001600020819055508173ffffffffffffffffffffffffffffffffffffffff16600073ffffffffffffffffffffffffffffffffffffffff167fddf252ad1be2c89b69c2b068fc378daa952ba7f163c4a11628f55a4df523b3ef836040518082815260200191505060405180910390a35050565b6150508183611fd8565b5050565b600061506383600001836153e6565b60001c905092915050565b600073ffffffffffffffffffffffffffffffffffffffff168273ffffffffffffffffffffffffffffffffffffffff161415615111576040517f08c379a00000000000000000000000000000000000000000000000000000000081526004018080602001828103825260208152602001807f535442583a206275726e2066726f6d20746865207a65726f206164647265737381525060200191505060405180910390fd5b61511d826000836152f9565b6151898160405180606001604052806021815260200161562360219139600260008673ffffffffffffffffffffffffffffffffffffffff1673ffffffffffffffffffffffffffffffffffffffff16815260200190815260200160002054614c559092919063ffffffff16565b600260008473ffffffffffffffffffffffffffffffffffffffff1673ffffffffffffffffffffffffffffffffffffffff168152602001908152602001600020819055506151e18160085461546990919063ffffffff16565b600881905550600073ffffffffffffffffffffffffffffffffffffffff168273ffffffffffffffffffffffffffffffffffffffff167fddf252ad1be2c89b69c2b068fc378daa952ba7f163c4a11628f55a4df523b3ef836040518082815260200191505060405180910390a35050565b600061525f826000016154ec565b9050919050565b600061527283836152d6565b6152cb5782600001829080600181540180825580915050600190039060005260206000200160009091909190915055826000018054905083600101600084815260200190815260200160002081905550600190506152d0565b600090505b92915050565b600080836001016000848152602001908152602001600020541415905092915050565b505050565b600080836001016000848152602001908152602001600020549050600081146153da576000600182039050600060018660000180549050039050600086600001828154811061534957fe5b906000526020600020015490508087600001848154811061536657fe5b906000526020600020018190555060018301876001016000838152602001908152602001600020819055508660000180548061539e57fe5b600190038181906000526020600020016000905590558660010160008781526020019081526020016000206000905560019450505050506153e0565b60009150505b92915050565b600081836000018054905011615447576040517f08c379a00000000000000000000000000000000000000000000000000000000081526004018080602001828103825260228152602001806154fe6022913960400191505060405180910390fd5b82600001828154811061545657fe5b9060005260206000200154905092915050565b6000828211156154e1576040517f08c379a000000000000000000000000000000000000000000000000000000000815260040180806020018281038252601e8152602001807f536166654d6174683a207375627472616374696f6e206f766572666c6f77000081525060200191505060405180910390fd5b818303905092915050565b60008160000180549050905091905056fe456e756d657261626c655365743a20696e646578206f7574206f6620626f756e6473416363657373436f6e74726f6c3a2073656e646572206d75737420626520616e2061646d696e20746f206772616e74535442583a207472616e73666572206578636565647320796f7572207472616e73616374696f6e20636f756e74206c696d69744f776e61626c653a206e6577206f776e657220697320746865207a65726f2061646472657373535442583a20617070726f766520746f20746865207a65726f2061646472657373535442583a207472616e73666572206578636565647320796f7572207472616e73666572206c696d6974416363657373436f6e74726f6c3a2073656e646572206d75737420626520616e2061646d696e20746f207265766f6b65535442583a206275726e20616d6f756e7420657863656564732062616c616e6365535442583a2064656372656173656420616c6c6f77616e63652062656c6f77207a65726f535442583a207472616e7366657220746f20746865207a65726f2061646472657373535442583a207472616e7366657220616d6f756e74206578636565647320616c6c6f77616e6365536166654d6174683a206d756c7469706c69636174696f6e206f766572666c6f77535442583a207472616e7366657220616d6f756e7420657863656564732062616c616e6365535442583a20617070726f76652066726f6d20746865207a65726f2061646472657373535442583a207472616e736665722066726f6d20746865207a65726f2061646472657373416363657373436f6e74726f6c3a2063616e206f6e6c792072656e6f756e636520726f6c657320666f722073656c66a2646970667358221220854975678a7a233201d62bc045ffee50f794b7b4d6314d4fb47596791a82194e64736f6c634300060c0033",
  "immutableReferences": {},
  "source": "// SPDX-License-Identifier: UNLICENSED\npragma solidity >=0.4.22 <0.8.0;\n\nimport \"openzeppelin-solidity/contracts/token/ERC20/IERC20.sol\";\nimport \"openzeppelin-solidity/contracts/math/SafeMath.sol\";\nimport \"openzeppelin-solidity/contracts/utils/EnumerableSet.sol\";\n\nimport \"./Roles.sol\";\n\n/**\n * @title STBXToken\n * @author Stobox Technologies Inc.\n * @dev STBX ERC20 Token\n */\ncontract STBXToken is IERC20, Roles {\n    using SafeMath for uint256;\n\n    using EnumerableSet for EnumerableSet.AddressSet;\n\n    struct TransferLimit {\n        uint256 transferLimit;\n        uint256 lastTransferLimitTimestamp;\n        uint256 allowedToTransfer;\n    }\n\n    struct TransactionCountLimit {\n        uint256 transactionCountLimit;\n        uint256 lastTransactionCountLimitTimestamp;\n        uint256 leftTransactionCountLimit;\n    }\n\n    mapping(address => uint256) private _balances;\n    mapping(address => mapping(address => uint256)) private _allowances;\n    mapping(address => TransferLimit) private _transferLimits;\n    mapping(address => TransactionCountLimit) private _transactionCountLimits;\n\n    uint256 private _defaultTransferLimit;\n    uint256 private _defaultTransactionCountLimit;\n    uint256 private _totalSupply;\n    uint256 private _kDecimals;\n    uint256 private _k;\n\n    string private _name;\n    string private _symbol;\n\n    uint8 private _decimals;\n\n    bool public _isDisabledWitelist;\n    bool public _isEnabledTransactionCount;\n\n    EnumerableSet.AddressSet private _whitelist;\n    EnumerableSet.AddressSet private _frozenlist;\n\n    // Modifiers\n\n    modifier onlyWhitelisted(address _account) {\n        if (_isDisabledWitelist) {\n            require(\n                _whitelist.contains(_account),\n                \"STBX: not whitelisted address.\"\n            );\n        }\n        _;\n    }\n\n    modifier onlyWithUnfrozenFunds(address _account) {\n        require(\n            _frozenlist.contains(_account) == false,\n            \"STBX: funds are frozen.\"\n        );\n        _;\n    }\n\n    /**\n     * @notice STBXToken simply implements a ERC20 token.\n     */\n    constructor() public Roles(msg.sender) {\n        _name = \"Stobox Demo Token\";\n        _symbol = \"SDCS10\";\n        _decimals = 0;\n        _kDecimals = 18;\n        _k = 10**_kDecimals;\n        _defaultTransferLimit = 0;\n        _defaultTransactionCountLimit = 0;\n\n        _mint(msg.sender, 10000000);\n        _whitelist.add(msg.sender);\n    }\n\n    // External functions\n\n    /**\n     * @notice Enable or disable the whitelist.\n     * @param _value Flag that enables or disables the whitelist.\n     */\n    function toggleOpenWhitelist(bool _value) external onlySuperAdmin {\n        _isDisabledWitelist = _value;\n    }\n\n    /**\n     * @notice Enable or disable the transactions limit.\n     * @param _value Flag that enables or disables the transactions limit.\n     */\n    function toggleOpenTransactionCount(bool _value) external onlySuperAdmin {\n        _isEnabledTransactionCount = _value;\n    }\n\n    /**\n     * @notice Add an address to the whitelist.\n     * @param _address Address to add to the whitelist.\n     */\n    function addAddressToWhitelist(address _address) external onlyWhitelister {\n        _whitelist.add(_address);\n        _frozenlist.remove(_address);\n    }\n\n    /**\n     * @notice Remove an address from the whitelist.\n     * @param _address Address to remove from the whitelist.\n     */\n    function removeAddressFromWhitelist(address _address)\n        external\n        onlyWhitelister\n    {\n        _whitelist.remove(_address);\n        _frozenlist.add(_address);\n    }\n\n    /**\n     * @notice Freeze all funds at the address.\n     * @param _account Account at which to freeze funds.\n     */\n    function freezeFunds(address _account) external onlyFreezer {\n        _frozenlist.add(_account);\n    }\n\n    /**\n     * @notice Unfreeze all funds at the address.\n     * @param _account Account at which to unfreeze funds.\n     */\n    function unfreezeFunds(address _account) external onlyFreezer {\n        _frozenlist.remove(_account);\n    }\n\n    /**\n     * @notice Minting of new tokens to the address.\n     * @param _account Account where to mint tokens.\n     * @param _amount Amount of tokens to mint.\n     */\n    function mint(address _account, uint256 _amount)\n        external\n        onlySuperAdmin\n        onlyWhitelisted(_account)\n    {\n        _mint(_account, _getNormilizedValue(_amount));\n    }\n\n    /**\n     * @notice Burning of tokens from the address.\n     * @param _account Account where to burn tokens.\n     * @param _amount Amount of tokens to burn.\n     *\n     * Calling conditions:\n     *\n     * - balance of `_account` must be grater or equal than `_amount`.\n     */\n    function burn(address _account, uint256 _amount) external onlySuperAdmin {\n        require(balanceOf(_account) >= _amount, \"STBX: balance too low\");\n        _burn(_account, _getNormilizedValue(_amount));\n    }\n\n    /**\n     * @notice Transfer funds from one address to another.\n     * @param _from Address from which to transfer funds.\n     * @param _where Address where to transfer funds.\n     * @param _amount Amount to transfer.\n     *\n     * Requirements:\n     *\n     * - balance of `_from` must be greater or equal to `_amount`.\n     */\n    function transferFunds(\n        address _from,\n        address _where,\n        uint256 _amount\n    ) external onlyTransporter onlyWhitelisted(_where) returns (bool) {\n        require(balanceOf(_from) >= _amount, \"STBX: not enough tokens\");\n\n        _transfer(_from, _where, _getNormilizedValue(_amount));\n\n        return true;\n    }\n\n    /**\n     * @notice Stock split or merge (consolidation).\n     * @param _x The count of shares before split.\n     * @param _y The count of shares after split.\n     * @dev 1-2: one share turns into two. 3-2: three shares turns into two.\n     *\n     * Requirements:\n     *\n     * - `_x` must not be equal to `_y`.\n     * - `_x` and `_y` must be greater than 0.\n     */\n      /**\n    function splitOrMerge(uint256 _x, uint256 _y) external onlySuperAdmin {\n        require(_x != _y, \"STBX: _x must not be equal to _y\");\n        require(_x > 0, \"STBX: _x must be greater than 0\");\n        require(_y > 0, \"STBX: _y must be greater than 0\");\n\n        _split(_x, _y);\n    }\n    */\n\n    /**\n     * @notice Set transfer limit for address.\n     * @param _account Address where to set transfer limit.\n     * @param _transferLimit Daily transfer limit for an `_account`.\n     */\n    function setTransferLimit(address _account, uint256 _transferLimit)\n        external\n        onlyLimiter\n    {\n        _transferLimits[_account].transferLimit = _transferLimit;\n        _transferLimits[_account].allowedToTransfer = _transferLimit;\n        _transferLimits[_account].lastTransferLimitTimestamp = block.timestamp;\n    }\n\n    /**\n     * @notice Set transaction count limit for address.\n     * @param _account Address where to set transaction count limit.\n     * @param _transactionCountLimit Daily transfer limit for an `_account`.\n     */\n    function setTransactionCountLimit(\n        address _account,\n        uint256 _transactionCountLimit\n    ) external onlyLimiter {\n        _transactionCountLimits[_account]\n            .transactionCountLimit = _transactionCountLimit;\n        _transactionCountLimits[_account]\n            .leftTransactionCountLimit = _transactionCountLimit;\n        _transactionCountLimits[_account]\n            .lastTransactionCountLimitTimestamp = block.timestamp;\n    }\n\n    // External view functions\n\n    /**\n     * @notice Checking if the address is whitelisted.\n     * @param _address Address to check in the whitelist.\n     * @return Is the address in the whitelist.\n     */\n    function isWhitelistedAddress(address _address)\n        external\n        view\n        returns (bool)\n    {\n        return _whitelist.contains(_address);\n    }\n\n    /**\n     * @notice Checking if the funds are frozen.\n     * @param _account Address to check.\n     * @return Is the funds are frozen.\n     */\n    function isFrozenFunds(address _account) external view returns (bool) {\n        return _frozenlist.contains(_account);\n    }\n\n    /**\n     * @notice Get main coefficient.\n     * @return Coefficient.\n     */\n    function getK() external view returns (uint256) {\n        return _k;\n    }\n\n    // Public functions\n\n    /**\n     * @notice Returns the name of the token.\n     */\n    function name() public view returns (string memory) {\n        return _name;\n    }\n\n    /**\n     * @notice Returns the symbol of the token.\n     */\n    function symbol() public view returns (string memory) {\n        return _symbol;\n    }\n\n    /**\n     * @notice Returns the number of decimals used to get its user representation.\n     */\n    function decimals() public view returns (uint8) {\n        return _decimals;\n    }\n\n    /**\n     * @notice Returns the amount of tokens in existence.\n     */\n    function totalSupply() public view override returns (uint256) {\n        return _totalSupply.mul(_k).div(10**_kDecimals);\n    }\n\n    /**\n     * @notice Returns the amount of tokens owned by `_account`.\n     * @param _account Account to check balance.\n     */\n    function balanceOf(address _account)\n        public\n        view\n        override\n        returns (uint256)\n    {\n        return _balances[_account].mul(_k).div(10**_kDecimals);\n    }\n\n    /**\n     * @notice Returns transfer limit for `_account`.\n     * Can be defaul value or personally assigned to the `_account` value.\n     * @param _account Account to get transfer limit.\n     */\n    function getTransferLimit(address _account) public view returns (uint256) {\n        if (_transferLimits[_account].transferLimit > 0) {\n            return _transferLimits[_account].transferLimit;\n        }\n\n        return _defaultTransferLimit;\n    }\n\n    /**\n     * @notice Get the number of tokens that can be transferred today\n     * by `_account`. Can be 0 in 2 cases:\n     * a) `_updateTransferLimit` function not called yet;\n     * b) transfer limit was set to 0 by limiter.\n     * @param _account Account to get amount allowed to transfer today.\n     */\n    function getAllowedToTransfer(address _account)\n        public\n        view\n        returns (uint256)\n    {\n        return _transferLimits[_account].allowedToTransfer;\n    }\n\n    /**\n     * @notice Returns transaction count limit for `_account`.\n     * Can be default value or personally assigned to the `_account` value.\n     * @param _account Account to get transfer limit.\n     */\n    function getTransactionCountLimit(address _account)\n        public\n        view\n        returns (uint256)\n    {\n        if (_transactionCountLimits[_account].transactionCountLimit > 0) {\n            return _transactionCountLimits[_account].transactionCountLimit;\n        }\n\n        return _defaultTransactionCountLimit;\n    }\n\n    /**\n     * @notice Get the number of transactions that can be transferred today\n     * by `_account`. Can be 0 in 2 cases:\n     * a) `_updateTransferLimit` function not called yet;\n     * b) transfer limit was set to 0 by limiter.\n     * @param _account Account to get amount allowed to transfer today.\n     */\n    function getLeftTransactionCountLimit(address _account)\n        public\n        view\n        returns (uint256)\n    {\n        return _transactionCountLimits[_account].leftTransactionCountLimit;\n    }\n\n    /**\n     * @notice Moves `_amount` tokens from the caller's account to `_recipient`.\n     * Emits a {Transfer} event.\n     * @param _recipient Recipient of the tokens.\n     * @param _amount Amount tokens to move.\n     * @return A boolean value indicating whether the operation succeeded.\n     */\n    function transfer(address _recipient, uint256 _amount)\n        public\n        virtual\n        override\n        onlyWhitelisted(msg.sender)\n        onlyWhitelisted(_recipient)\n        onlyWithUnfrozenFunds(msg.sender)\n        returns (bool)\n    {\n        _updateTransferLimit(msg.sender, _amount);\n        _updateTransactionCountLimit(_recipient);\n        _updateTransactionCountLimit(msg.sender);\n        _transfer(msg.sender, _recipient, _getNormilizedValue(_amount));\n\n        return true;\n    }\n\n    /**\n     * @notice the remaining number of tokens that `_spender` will be\n     * allowed to spend on behalf of `_owner` through {transferFrom}. This is\n     * zero by default.\n     * @param _owner Owner of tokens.\n     * @param _spender Spender of tokens.\n     */\n    function allowance(address _owner, address _spender)\n        public\n        view\n        virtual\n        override\n        returns (uint256)\n    {\n        return _allowances[_owner][_spender].mul(_k).div(10**_kDecimals);\n    }\n\n    /**\n     * @notice Sets `_amount` as the allowance of `_spender` over the caller's tokens.\n     * Emits an {Approval} event.\n     * @param _spender Spender of the tokens.\n     * @param _amount Amount of tokens to set as the allowance.\n     * @return A boolean value indicating whether the operation succeeded.\n     */\n    function approve(address _spender, uint256 _amount)\n        public\n        virtual\n        override\n        onlyWhitelisted(msg.sender)\n        onlyWhitelisted(_spender)\n        onlyWithUnfrozenFunds(msg.sender)\n        returns (bool)\n    {\n        _approve(msg.sender, _spender, _getNormilizedValue(_amount));\n\n        return true;\n    }\n\n    /**\n     * @notice Moves `_amount` tokens from `_sender` to `_recipient` using the\n     * allowance mechanism. `_amount` is then deducted from the caller's\n     * allowance.\n     * Emits a {Transfer} event.\n     * @param _sender Spender of tokens.\n     * @param _recipient Recipient of tokens.\n     * @param _amount Amount of tokens to transfer.\n     * @return A boolean value indicating whether the operation succeeded.\n     *\n     * Requirements:\n     *\n     * - `_amount` must be less or equal allowance for the `_sender`.\n     */\n    function transferFrom(\n        address _sender,\n        address _recipient,\n        uint256 _amount\n    )\n        public\n        virtual\n        override\n        onlyWhitelisted(_sender)\n        onlyWhitelisted(_recipient)\n        onlyWithUnfrozenFunds(_sender)\n        returns (bool)\n    {\n        _updateTransferLimit(_sender, _amount);\n        _updateTransactionCountLimit(_sender);\n        _updateTransactionCountLimit(_recipient);\n        _transfer(_sender, _recipient, _getNormilizedValue(_amount));\n        _approve(\n            _sender,\n            msg.sender,\n            _allowances[_sender][msg.sender].sub(\n                _getNormilizedValue(_amount),\n                \"STBX: transfer amount exceeds allowance\"\n            )\n        );\n\n        return true;\n    }\n\n    /**\n     * @notice Increase allowance for the `_spender`.\n     * @param _spender Spender of tokens.\n     * @param _addedValue Value to add to the allowance for the `_spender`.\n     * @return A boolean value indicating whether the operation succeeded.\n     */\n    function increaseAllowance(address _spender, uint256 _addedValue)\n        public\n        virtual\n        onlyWhitelisted(msg.sender)\n        onlyWhitelisted(_spender)\n        onlyWithUnfrozenFunds(msg.sender)\n        returns (bool)\n    {\n        _approve(\n            msg.sender,\n            _spender,\n            _allowances[msg.sender][_spender].add(\n                _getNormilizedValue(_addedValue)\n            )\n        );\n\n        return true;\n    }\n\n    /**\n     * @notice Decrease allowance for the `_spender`.\n     * @param _spender Spender of tokens.\n     * @param _subtractedValue Value to substruct from the allowance for the `_spender`.\n     * @return A boolean value indicating whether the operation succeeded.\n     *\n     * Requirements:\n     *\n     * - result of substruction must be greater or equal to 0.\n     */\n    function decreaseAllowance(address _spender, uint256 _subtractedValue)\n        public\n        virtual\n        onlyWhitelisted(msg.sender)\n        onlyWhitelisted(_spender)\n        onlyWithUnfrozenFunds(msg.sender)\n        returns (bool)\n    {\n        _approve(\n            msg.sender,\n            _spender,\n            _allowances[msg.sender][_spender].sub(\n                _getNormilizedValue(_subtractedValue),\n                \"STBX: decreased allowance below zero\"\n            )\n        );\n\n        return true;\n    }\n\n    // Internal functions\n\n    /**\n     * @notice Moves tokens `_amount` from `_sender` to `_recipient`.\n     * Emits a {Transfer} event.\n     * @param _sender Sender of tokens.\n     * @param _recipient Recipient of tokens.\n     * @param _amount Amount of tokens to transfer.\n     *\n     * Requirements:\n     *\n     * - `_sender` cannot be the zero address.\n     * - `_recipient` cannot be the zero address.\n     * - `_sender` must have a balance of at least `_amount`.\n     */\n    function _transfer(\n        address _sender,\n        address _recipient,\n        uint256 _amount\n    ) internal virtual {\n        require(_sender != address(0), \"STBX: transfer from the zero address\");\n        require(_recipient != address(0), \"STBX: transfer to the zero address\");\n\n        _beforeTokenTransfer(_sender, _recipient, _amount);\n\n        _balances[_sender] = _balances[_sender].sub(\n            _amount,\n            \"STBX: transfer amount exceeds balance\"\n        );\n        _balances[_recipient] = _balances[_recipient].add(_amount);\n\n        emit Transfer(_sender, _recipient, _amount);\n    }\n\n    /** @notice Creates `_amount` tokens and assigns them to `_account`, increasing\n     * the total supply.\n     * Emits a {Transfer} event with `_from` set to the zero address.\n     * @param _account Account where to mint tokens.\n     * @param _amount Amount of tokens to mint.\n     *\n     * Requirements:\n     *\n     * - `_account` cannot be the zero address.\n     */\n    function _mint(address _account, uint256 _amount) internal virtual {\n        require(_account != address(0), \"STBX: mint to the zero address\");\n\n        _beforeTokenTransfer(address(0), _account, _amount);\n\n        _totalSupply = _totalSupply.add(_amount);\n        _balances[_account] = _balances[_account].add(_amount);\n\n        emit Transfer(address(0), _account, _amount);\n    }\n\n    /**\n     * @notice Destroys `_amount` tokens from `_account`, reducing the\n     * total supply.\n     * Emits a {Transfer} event with `_to` set to the zero address.\n     * @param _account Account where to burn tokens.\n     * @param _amount Amount of tokens to burn.\n     *\n     * Requirements:\n     *\n     * - `_account` cannot be the zero address.\n     * - `_amount` must have at least `amount` tokens.\n     */\n    function _burn(address _account, uint256 _amount) internal virtual {\n        require(_account != address(0), \"STBX: burn from the zero address\");\n\n        _beforeTokenTransfer(_account, address(0), _amount);\n\n        _balances[_account] = _balances[_account].sub(\n            _amount,\n            \"STBX: burn amount exceeds balance\"\n        );\n        _totalSupply = _totalSupply.sub(_amount);\n\n        emit Transfer(_account, address(0), _amount);\n    }\n\n    /**\n     * @notice Sets `_amount` as the allowance of `_spender` over the `_owner` s tokens.\n     * Emits an {Approval} event.\n     * @param _owner Owner of the tokens.\n     * @param _spender Spender of the tokens.\n     * @param _amount Amount of tokens to set as the allowance.\n     *\n     * Requirements:\n     *\n     * - `_owner` cannot be the zero address.\n     * - `_spender` cannot be the zero address.\n     */\n    function _approve(\n        address _owner,\n        address _spender,\n        uint256 _amount\n    ) internal virtual {\n        require(_owner != address(0), \"STBX: approve from the zero address\");\n        require(_spender != address(0), \"STBX: approve to the zero address\");\n\n        _allowances[_owner][_spender] = _amount;\n\n        emit Approval(_owner, _spender, _amount);\n    }\n\n    /**\n     * @notice Hook that is called before any transfer of tokens. This includes\n     * minting and burning.\n     * @param _from The address from which tokens will be moved.\n     * @param _to The address where tokens will be moved.\n     * @param _amount Amount of tokens that will be moved.\n     *\n     * Calling conditions:\n     *\n     * - when `_from` and `_to` are both non-zero, `_amount` of ``_from``'s tokens\n     * will be to transferred to `_to`.\n     * - when `_from` is zero, `_amount` tokens will be minted for `_to`.\n     * - when `_to` is zero, `_amount` of ``_from``'s tokens will be burned.\n     * - `_from` and `_to` are never both zero.\n     */\n    function _beforeTokenTransfer(\n        address _from,\n        address _to,\n        uint256 _amount\n    ) internal virtual {}\n\n    // Private functions\n\n    /**\n     * @notice Changes the global multiplier during stock splits and consolidations.\n     * @param _x First coefficient.\n     * @param _y Second coefficient.\n     */\n    function _split(uint256 _x, uint256 _y) private {\n        _k = _k.mul(_y.mul(10**_kDecimals).div(_x));\n        _k = _k.div(10**18);\n    }\n\n    /**\n     * @notice Getting normalized value depends on coefficient.\n     * @param _value Value to normilize.\n     * @return Normilized value.\n     */\n    function _getNormilizedValue(uint256 _value)\n        private\n        view\n        returns (uint256)\n    {\n        return _value.mul(10**_kDecimals).div(_k);\n    }\n\n    /**\n     * @notice Update transfer limit for `_account` before each operation with\n     * tokens.\n     * @param _account Account to update transfer limit if needed.\n     * @param _amount Amount to substruct from transfer limit after updating.\n     */\n    function _updateTransferLimit(address _account, uint256 _amount) private {\n        if (\n            _transferLimits[_account].lastTransferLimitTimestamp + 1 days <\n            block.timestamp\n        ) {\n            _transferLimits[_account].lastTransferLimitTimestamp = block\n                .timestamp;\n\n            if (_transferLimits[_account].transferLimit > 0) {\n                _transferLimits[_account].allowedToTransfer = _transferLimits[\n                    _account\n                ]\n                    .transferLimit;\n            } else {\n                _transferLimits[_account]\n                    .allowedToTransfer = _defaultTransferLimit;\n            }\n        }\n\n        _transferLimits[_account].allowedToTransfer = _transferLimits[_account]\n            .allowedToTransfer\n            .sub(_amount, \"STBX: transfer exceeds your transfer limit\");\n    }\n\n    /**\n     * @notice Update transaction count limit for `_account` before each operation with\n     * tokens.\n     * @param _account Account to update transaction count limit if needed.\n     */\n    function _updateTransactionCountLimit(address _account) private {\n        if (_isEnabledTransactionCount) {\n            if (\n                _transactionCountLimits[_account]\n                    .lastTransactionCountLimitTimestamp +\n                    1 days <\n                block.timestamp\n            ) {\n                _transactionCountLimits[_account]\n                    .lastTransactionCountLimitTimestamp = block.timestamp;\n\n                if (\n                    _transactionCountLimits[_account].transactionCountLimit > 0\n                ) {\n                    _transactionCountLimits[_account]\n                        .leftTransactionCountLimit = _transactionCountLimits[\n                        _account\n                    ]\n                        .transactionCountLimit;\n                } else {\n                    _transactionCountLimits[_account]\n                        .leftTransactionCountLimit = _defaultTransactionCountLimit;\n                }\n            }\n\n            _transactionCountLimits[_account]\n                .leftTransactionCountLimit = _transactionCountLimits[_account]\n                .leftTransactionCountLimit\n                .sub(1, \"STBX: transfer exceeds your transaction count limit\");\n        }\n    }\n}\n",
  "sourcePath": "/home/jenja/DS_Dashboard_Securities_Smart_Contract_v.1.1/contracts/STBX.sol",
  "compiler": {
    "name": "solc",
    "version": "0.6.12+commit.27d51765.Emscripten.clang"
  },
  "schemaVersion": "3.3.3",
  "updatedAt": "2021-02-10T15:03:12.620Z",
  "networkType": "ethereum",
  "devdoc": {
    "author": "Stobox Technologies Inc.",
    "details": "STBX ERC20 Token",
    "kind": "dev",
    "methods": {
      "addAddressToWhitelist(address)": {
        "params": {
          "_address": "Address to add to the whitelist."
        }
      },
      "addFreezer(address)": {
        "params": {
          "_address": "Address for assigning the freezer role."
        }
      },
      "addLimiter(address)": {
        "params": {
          "_address": "Address for assigning the limiter role."
        }
      },
      "addSuperAdmin(address)": {
        "params": {
          "_address": "Address for assigning the super admin role."
        }
      },
      "addTransporter(address)": {
        "params": {
          "_address": "Address for assigning the transporter role."
        }
      },
      "addVoter(address)": {
        "params": {
          "_address": "Address for assigning the voter role."
        }
      },
      "addWhitelister(address)": {
        "params": {
          "_address": "Address for assigning the whitelister role."
        }
      },
      "allowance(address,address)": {
        "params": {
          "_owner": "Owner of tokens.",
          "_spender": "Spender of tokens."
        }
      },
      "approve(address,uint256)": {
        "params": {
          "_amount": "Amount of tokens to set as the allowance.",
          "_spender": "Spender of the tokens."
        },
        "returns": {
          "_0": "A boolean value indicating whether the operation succeeded."
        }
      },
      "balanceOf(address)": {
        "params": {
          "_account": "Account to check balance."
        }
      },
      "burn(address,uint256)": {
        "params": {
          "_account": "Account where to burn tokens.",
          "_amount": "Amount of tokens to burn. Calling conditions: - balance of `_account` must be grater or equal than `_amount`."
        }
      },
      "decreaseAllowance(address,uint256)": {
        "params": {
          "_spender": "Spender of tokens.",
          "_subtractedValue": "Value to substruct from the allowance for the `_spender`."
        },
        "returns": {
          "_0": "A boolean value indicating whether the operation succeeded. Requirements: - result of substruction must be greater or equal to 0."
        }
      },
      "freezeFunds(address)": {
        "params": {
          "_account": "Account at which to freeze funds."
        }
      },
      "getAllowedToTransfer(address)": {
        "params": {
          "_account": "Account to get amount allowed to transfer today."
        }
      },
      "getK()": {
        "returns": {
          "_0": "Coefficient."
        }
      },
      "getLeftTransactionCountLimit(address)": {
        "params": {
          "_account": "Account to get amount allowed to transfer today."
        }
      },
      "getRoleAdmin(bytes32)": {
        "details": "Returns the admin role that controls `role`. See {grantRole} and {revokeRole}. To change a role's admin, use {_setRoleAdmin}."
      },
      "getRoleMember(bytes32,uint256)": {
        "details": "Returns one of the accounts that have `role`. `index` must be a value between 0 and {getRoleMemberCount}, non-inclusive. Role bearers are not sorted in any particular way, and their ordering may change at any point. WARNING: When using {getRoleMember} and {getRoleMemberCount}, make sure you perform all queries on the same block. See the following https://forum.openzeppelin.com/t/iterating-over-elements-on-enumerableset-in-openzeppelin-contracts/2296[forum post] for more information."
      },
      "getRoleMemberCount(bytes32)": {
        "details": "Returns the number of accounts that have `role`. Can be used together with {getRoleMember} to enumerate all bearers of a role."
      },
      "getTransactionCountLimit(address)": {
        "params": {
          "_account": "Account to get transfer limit."
        }
      },
      "getTransferLimit(address)": {
        "params": {
          "_account": "Account to get transfer limit."
        }
      },
      "grantRole(bytes32,address)": {
        "details": "Grants `role` to `account`. If `account` had not been already granted `role`, emits a {RoleGranted} event. Requirements: - the caller must have ``role``'s admin role."
      },
      "hasRole(bytes32,address)": {
        "details": "Returns `true` if `account` has been granted `role`."
      },
      "increaseAllowance(address,uint256)": {
        "params": {
          "_addedValue": "Value to add to the allowance for the `_spender`.",
          "_spender": "Spender of tokens."
        },
        "returns": {
          "_0": "A boolean value indicating whether the operation succeeded."
        }
      },
      "isFreezer(address)": {
        "params": {
          "_address": "Address for checking."
        }
      },
      "isFrozenFunds(address)": {
        "params": {
          "_account": "Address to check."
        },
        "returns": {
          "_0": "Is the funds are frozen."
        }
      },
      "isLimiter(address)": {
        "params": {
          "_address": "Address for checking."
        }
      },
      "isSuperAdmin(address)": {
        "params": {
          "_address": "Address for checking."
        }
      },
      "isTransporter(address)": {
        "params": {
          "_address": "Address for checking."
        }
      },
      "isVoter(address)": {
        "params": {
          "_address": "Address for checking."
        }
      },
      "isWhitelistedAddress(address)": {
        "params": {
          "_address": "Address to check in the whitelist."
        },
        "returns": {
          "_0": "Is the address in the whitelist."
        }
      },
      "isWhitelister(address)": {
        "params": {
          "_address": "Address for checking."
        }
      },
      "mint(address,uint256)": {
        "params": {
          "_account": "Account where to mint tokens.",
          "_amount": "Amount of tokens to mint."
        }
      },
      "owner()": {
        "details": "Returns the address of the current owner."
      },
      "removeAddressFromWhitelist(address)": {
        "params": {
          "_address": "Address to remove from the whitelist."
        }
      },
      "removeFreezer(address)": {
        "params": {
          "_address": "Address for removing the freezer role."
        }
      },
      "removeLimiter(address)": {
        "params": {
          "_address": "Address for removing the limiter role."
        }
      },
      "removeTransporter(address)": {
        "params": {
          "_address": "Address for removing the transporter role."
        }
      },
      "removeVoter(address)": {
        "params": {
          "_address": "Address for removing the voter role."
        }
      },
      "removeWhitelister(address)": {
        "params": {
          "_address": "Address for removing the whitelister role."
        }
      },
      "renounceOwnership()": {
        "details": "Leaves the contract without owner. It will not be possible to call `onlyOwner` functions anymore. Can only be called by the current owner. NOTE: Renouncing ownership will leave the contract without an owner, thereby removing any functionality that is only available to the owner."
      },
      "renounceRole(bytes32,address)": {
        "details": "Revokes `role` from the calling account. Roles are often managed via {grantRole} and {revokeRole}: this function's purpose is to provide a mechanism for accounts to lose their privileges if they are compromised (such as when a trusted device is misplaced). If the calling account had been granted `role`, emits a {RoleRevoked} event. Requirements: - the caller must be `account`."
      },
      "revokeRole(bytes32,address)": {
        "details": "Revokes `role` from `account`. If `account` had been granted `role`, emits a {RoleRevoked} event. Requirements: - the caller must have ``role``'s admin role."
      },
      "setTransactionCountLimit(address,uint256)": {
        "params": {
          "_account": "Address where to set transaction count limit.",
          "_transactionCountLimit": "Daily transfer limit for an `_account`."
        }
      },
      "setTransferLimit(address,uint256)": {
        "params": {
          "_account": "Address where to set transfer limit.",
          "_transferLimit": "Daily transfer limit for an `_account`."
        }
      },
      "toggleOpenTransactionCount(bool)": {
        "params": {
          "_value": "Flag that enables or disables the transactions limit."
        }
      },
      "toggleOpenWhitelist(bool)": {
        "params": {
          "_value": "Flag that enables or disables the whitelist."
        }
      },
      "transfer(address,uint256)": {
        "params": {
          "_amount": "Amount tokens to move.",
          "_recipient": "Recipient of the tokens."
        },
        "returns": {
          "_0": "A boolean value indicating whether the operation succeeded."
        }
      },
      "transferFrom(address,address,uint256)": {
        "params": {
          "_amount": "Amount of tokens to transfer.",
          "_recipient": "Recipient of tokens.",
          "_sender": "Spender of tokens."
        },
        "returns": {
          "_0": "A boolean value indicating whether the operation succeeded. Requirements: - `_amount` must be less or equal allowance for the `_sender`."
        }
      },
      "transferFunds(address,address,uint256)": {
        "params": {
          "_amount": "Amount to transfer. Requirements: - balance of `_from` must be greater or equal to `_amount`.",
          "_from": "Address from which to transfer funds.",
          "_where": "Address where to transfer funds."
        }
      },
      "transferOwnership(address)": {
        "details": "Transfers ownership of the contract to a new account (`newOwner`). Can only be called by the current owner."
      },
      "unfreezeFunds(address)": {
        "params": {
          "_account": "Account at which to unfreeze funds."
        }
      }
    },
    "title": "STBXToken",
    "version": 1
  },
  "userdoc": {
    "kind": "user",
    "methods": {
      "addAddressToWhitelist(address)": {
        "notice": "Add an address to the whitelist."
      },
      "addFreezer(address)": {
        "notice": "Add the freezer role for the address."
      },
      "addLimiter(address)": {
        "notice": "Add the limiter role for the address."
      },
      "addSuperAdmin(address)": {
        "notice": "Add the super admin role for the address."
      },
      "addTransporter(address)": {
        "notice": "Add the transporter role for the address."
      },
      "addVoter(address)": {
        "notice": "Add the voter role for the address."
      },
      "addWhitelister(address)": {
        "notice": "Add the whitelister role for the address."
      },
      "allowance(address,address)": {
        "notice": "the remaining number of tokens that `_spender` will be allowed to spend on behalf of `_owner` through {transferFrom}. This is zero by default."
      },
      "approve(address,uint256)": {
        "notice": "Sets `_amount` as the allowance of `_spender` over the caller's tokens. Emits an {Approval} event."
      },
      "balanceOf(address)": {
        "notice": "Returns the amount of tokens owned by `_account`."
      },
      "burn(address,uint256)": {
        "notice": "Burning of tokens from the address."
      },
      "constructor": "STBXToken simply implements a ERC20 token.",
      "decimals()": {
        "notice": "Returns the number of decimals used to get its user representation."
      },
      "decreaseAllowance(address,uint256)": {
        "notice": "Decrease allowance for the `_spender`."
      },
      "freezeFunds(address)": {
        "notice": "Freeze all funds at the address."
      },
      "getAllowedToTransfer(address)": {
        "notice": "Get the number of tokens that can be transferred today by `_account`. Can be 0 in 2 cases: a) `_updateTransferLimit` function not called yet; b) transfer limit was set to 0 by limiter."
      },
      "getK()": {
        "notice": "Get main coefficient."
      },
      "getLeftTransactionCountLimit(address)": {
        "notice": "Get the number of transactions that can be transferred today by `_account`. Can be 0 in 2 cases: a) `_updateTransferLimit` function not called yet; b) transfer limit was set to 0 by limiter."
      },
      "getTransactionCountLimit(address)": {
        "notice": "Returns transaction count limit for `_account`. Can be default value or personally assigned to the `_account` value."
      },
      "getTransferLimit(address)": {
        "notice": "Returns transfer limit for `_account`. Can be defaul value or personally assigned to the `_account` value."
      },
      "increaseAllowance(address,uint256)": {
        "notice": "Increase allowance for the `_spender`."
      },
      "isFreezer(address)": {
        "notice": "Checks if the address is assigned the freezer role."
      },
      "isFrozenFunds(address)": {
        "notice": "Checking if the funds are frozen."
      },
      "isLimiter(address)": {
        "notice": "Checks if the address is assigned the limiter role."
      },
      "isSuperAdmin(address)": {
        "notice": "Checks if the address is assigned the super admin role."
      },
      "isTransporter(address)": {
        "notice": "Checks if the address is assigned the transporter role."
      },
      "isVoter(address)": {
        "notice": "Checks if the address is assigned the voter role."
      },
      "isWhitelistedAddress(address)": {
        "notice": "Checking if the address is whitelisted."
      },
      "isWhitelister(address)": {
        "notice": "Checks if the address is assigned the whitelister role."
      },
      "mint(address,uint256)": {
        "notice": "Minting of new tokens to the address."
      },
      "name()": {
        "notice": "Returns the name of the token."
      },
      "removeAddressFromWhitelist(address)": {
        "notice": "Remove an address from the whitelist."
      },
      "removeFreezer(address)": {
        "notice": "Remove the freezer role for the address."
      },
      "removeLimiter(address)": {
        "notice": "Remove the limiter role for the address."
      },
      "removeTransporter(address)": {
        "notice": "Remove the transporter role for the address."
      },
      "removeVoter(address)": {
        "notice": "Remove the voter role for the address."
      },
      "removeWhitelister(address)": {
        "notice": "Remove the whitelister role for the address."
      },
      "renounceSuperAdmin()": {
        "notice": "Renouncement of supera dmin role."
      },
      "setTransactionCountLimit(address,uint256)": {
        "notice": "Set transaction count limit for address."
      },
      "setTransferLimit(address,uint256)": {
        "notice": "Set transfer limit for address."
      },
      "symbol()": {
        "notice": "Returns the symbol of the token."
      },
      "toggleOpenTransactionCount(bool)": {
        "notice": "Enable or disable the transactions limit."
      },
      "toggleOpenWhitelist(bool)": {
        "notice": "Enable or disable the whitelist."
      },
      "totalSupply()": {
        "notice": "Returns the amount of tokens in existence."
      },
      "transfer(address,uint256)": {
        "notice": "Moves `_amount` tokens from the caller's account to `_recipient`. Emits a {Transfer} event."
      },
      "transferFrom(address,address,uint256)": {
        "notice": "Moves `_amount` tokens from `_sender` to `_recipient` using the allowance mechanism. `_amount` is then deducted from the caller's allowance. Emits a {Transfer} event."
      },
      "transferFunds(address,address,uint256)": {
        "notice": "Transfer funds from one address to another."
      },
      "unfreezeFunds(address)": {
        "notice": "Unfreeze all funds at the address."
      }
    },
    "version": 1
  }
}